{
  "contractName": "ProvStorage",
  "abi": [
    {
      "constant": true,
      "inputs": [
        {
          "internalType": "address",
          "name": "",
          "type": "address"
        },
        {
          "internalType": "uint256",
          "name": "",
          "type": "uint256"
        }
      ],
      "name": "address_uploads",
      "outputs": [
        {
          "internalType": "string",
          "name": "ipfsHash",
          "type": "string"
        },
        {
          "internalType": "uint256",
          "name": "txHash",
          "type": "uint256"
        },
        {
          "internalType": "string",
          "name": "author",
          "type": "string"
        },
        {
          "internalType": "string",
          "name": "filename",
          "type": "string"
        },
        {
          "internalType": "uint256",
          "name": "timestamp",
          "type": "uint256"
        }
      ],
      "payable": false,
      "stateMutability": "view",
      "type": "function"
    },
    {
      "constant": true,
      "inputs": [
        {
          "internalType": "uint256",
          "name": "",
          "type": "uint256"
        }
      ],
      "name": "uploads",
      "outputs": [
        {
          "internalType": "string",
          "name": "ipfsHash",
          "type": "string"
        },
        {
          "internalType": "uint256",
          "name": "txHash",
          "type": "uint256"
        },
        {
          "internalType": "string",
          "name": "author",
          "type": "string"
        },
        {
          "internalType": "string",
          "name": "filename",
          "type": "string"
        },
        {
          "internalType": "uint256",
          "name": "timestamp",
          "type": "uint256"
        }
      ],
      "payable": false,
      "stateMutability": "view",
      "type": "function"
    },
    {
      "constant": false,
      "inputs": [
        {
          "internalType": "string",
          "name": "_ipfsHash",
          "type": "string"
        },
        {
          "internalType": "string",
          "name": "_author",
          "type": "string"
        },
        {
          "internalType": "string",
          "name": "_filename",
          "type": "string"
        },
        {
          "internalType": "uint256",
          "name": "_timestamp",
          "type": "uint256"
        }
      ],
      "name": "upload",
      "outputs": [],
      "payable": false,
      "stateMutability": "nonpayable",
      "type": "function"
    },
    {
      "constant": true,
      "inputs": [],
      "name": "getTxNumber",
      "outputs": [
        {
          "internalType": "uint256",
          "name": "",
          "type": "uint256"
        }
      ],
      "payable": false,
      "stateMutability": "view",
      "type": "function"
    },
    {
      "constant": true,
      "inputs": [],
      "name": "getIPFS",
      "outputs": [
        {
          "internalType": "string",
          "name": "",
          "type": "string"
        }
      ],
      "payable": false,
      "stateMutability": "view",
      "type": "function"
    },
    {
      "constant": true,
      "inputs": [],
      "name": "getTxHash",
      "outputs": [
        {
          "internalType": "bytes32",
          "name": "",
          "type": "bytes32"
        }
      ],
      "payable": false,
      "stateMutability": "view",
      "type": "function"
    },
    {
      "constant": true,
      "inputs": [],
      "name": "getAuthor",
      "outputs": [
        {
          "internalType": "string",
          "name": "",
          "type": "string"
        }
      ],
      "payable": false,
      "stateMutability": "view",
      "type": "function"
    },
    {
      "constant": true,
      "inputs": [],
      "name": "getFileName",
      "outputs": [
        {
          "internalType": "string",
          "name": "",
          "type": "string"
        }
      ],
      "payable": false,
      "stateMutability": "view",
      "type": "function"
    },
    {
      "constant": true,
      "inputs": [],
      "name": "getTimestamp",
      "outputs": [
        {
          "internalType": "uint256",
          "name": "",
          "type": "uint256"
        }
      ],
      "payable": false,
      "stateMutability": "view",
      "type": "function"
    },
    {
      "constant": false,
      "inputs": [
        {
          "internalType": "string",
          "name": "x",
          "type": "string"
        }
      ],
      "name": "set",
      "outputs": [],
      "payable": false,
      "stateMutability": "nonpayable",
      "type": "function"
    },
    {
      "constant": true,
      "inputs": [],
      "name": "get",
      "outputs": [
        {
          "internalType": "string",
          "name": "",
          "type": "string"
        }
      ],
      "payable": false,
      "stateMutability": "view",
      "type": "function"
    }
  ],
  "bytecode": "0x60806040526000600155436002556001600254034060035534801561002357600080fd5b50611105806100336000396000f3fe608060405234801561001057600080fd5b50600436106100a95760003560e01c806381d41c951161007157806381d41c95146102ab578063a5faa1251461049e578063abaa293514610521578063eade9eab1461053f578063fbfecaa3146106ec578063fcf6c23c14610879576100a9565b8063188ec356146100ae578063285a448d146100cc5780634ed3885e146100ea5780634efe2d1e146101a55780636d4ce63c14610228575b600080fd5b6100b66108fc565b6040518082815260200191505060405180910390f35b6100d4610906565b6040518082815260200191505060405180910390f35b6101a36004803603602081101561010057600080fd5b810190808035906020019064010000000081111561011d57600080fd5b82018360208201111561012f57600080fd5b8035906020019184600183028401116401000000008311171561015157600080fd5b91908080601f016020809104026020016040519081016040528093929190818152602001838380828437600081840152601f19601f820116905080830192505050505050509192919290505050610910565b005b6101ad61092a565b6040518080602001828103825283818151815260200191508051906020019080838360005b838110156101ed5780820151818401526020810190506101d2565b50505050905090810190601f16801561021a5780820380516001836020036101000a031916815260200191505b509250505060405180910390f35b6102306109cc565b6040518080602001828103825283818151815260200191508051906020019080838360005b83811015610270578082015181840152602081019050610255565b50505050905090810190601f16801561029d5780820380516001836020036101000a031916815260200191505b509250505060405180910390f35b61049c600480360360808110156102c157600080fd5b81019080803590602001906401000000008111156102de57600080fd5b8201836020820111156102f057600080fd5b8035906020019184600183028401116401000000008311171561031257600080fd5b91908080601f016020809104026020016040519081016040528093929190818152602001838380828437600081840152601f19601f8201169050808301925050505050505091929192908035906020019064010000000081111561037557600080fd5b82018360208201111561038757600080fd5b803590602001918460018302840111640100000000831117156103a957600080fd5b91908080601f016020809104026020016040519081016040528093929190818152602001838380828437600081840152601f19601f8201169050808301925050505050505091929192908035906020019064010000000081111561040c57600080fd5b82018360208201111561041e57600080fd5b8035906020019184600183028401116401000000008311171561044057600080fd5b91908080601f016020809104026020016040519081016040528093929190818152602001838380828437600081840152601f19601f82011690508083019250505050505050919291929080359060200190929190505050610a6e565b005b6104a6610ad4565b6040518080602001828103825283818151815260200191508051906020019080838360005b838110156104e65780820151818401526020810190506104cb565b50505050905090810190601f1680156105135780820380516001836020036101000a031916815260200191505b509250505060405180910390f35b610529610b76565b6040518082815260200191505060405180910390f35b61058b6004803603604081101561055557600080fd5b81019080803573ffffffffffffffffffffffffffffffffffffffff16906020019092919080359060200190929190505050610b80565b60405180806020018681526020018060200180602001858152602001848103845289818151815260200191508051906020019080838360005b838110156105df5780820151818401526020810190506105c4565b50505050905090810190601f16801561060c5780820380516001836020036101000a031916815260200191505b50848103835287818151815260200191508051906020019080838360005b8381101561064557808201518184015260208101905061062a565b50505050905090810190601f1680156106725780820380516001836020036101000a031916815260200191505b50848103825286818151815260200191508051906020019080838360005b838110156106ab578082015181840152602081019050610690565b50505050905090810190601f1680156106d85780820380516001836020036101000a031916815260200191505b509850505050505050505060405180910390f35b6107186004803603602081101561070257600080fd5b8101908080359060200190929190505050610d8b565b60405180806020018681526020018060200180602001858152602001848103845289818151815260200191508051906020019080838360005b8381101561076c578082015181840152602081019050610751565b50505050905090810190601f1680156107995780820380516001836020036101000a031916815260200191505b50848103835287818151815260200191508051906020019080838360005b838110156107d25780820151818401526020810190506107b7565b50505050905090810190601f1680156107ff5780820380516001836020036101000a031916815260200191505b50848103825286818151815260200191508051906020019080838360005b8381101561083857808201518184015260208101905061081d565b50505050905090810190601f1680156108655780820380516001836020036101000a031916815260200191505b509850505050505050505060405180910390f35b610881610f89565b6040518080602001828103825283818151815260200191508051906020019080838360005b838110156108c15780820151818401526020810190506108a6565b50505050905090810190601f1680156108ee5780820380516001836020036101000a031916815260200191505b509250505060405180910390f35b6000600654905090565b6000600354905090565b806000908051906020019061092692919061102b565b5050565b606060008054600181600116156101000203166002900480601f0160208091040260200160405190810160405280929190818152602001828054600181600116156101000203166002900480156109c25780601f10610997576101008083540402835291602001916109c2565b820191906000526020600020905b8154815290600101906020018083116109a557829003601f168201915b5050505050905090565b606060008054600181600116156101000203166002900480601f016020809104026020016040519081016040528092919081815260200182805460018160011615610100020316600290048015610a645780601f10610a3957610100808354040283529160200191610a64565b820191906000526020600020905b815481529060010190602001808311610a4757829003601f168201915b5050505050905090565b60018054016001819055508360009080519060200190610a8f92919061102b565b506003546003819055508260049080519060200190610aaf92919061102b565b508160059080519060200190610ac692919061102b565b508060068190555050505050565b606060048054600181600116156101000203166002900480601f016020809104026020016040519081016040528092919081815260200182805460018160011615610100020316600290048015610b6c5780601f10610b4157610100808354040283529160200191610b6c565b820191906000526020600020905b815481529060010190602001808311610b4f57829003601f168201915b5050505050905090565b6000600154905090565b600860205281600052604060002060205280600052604060002060009150915050806000018054600181600116156101000203166002900480601f016020809104026020016040519081016040528092919081815260200182805460018160011615610100020316600290048015610c395780601f10610c0e57610100808354040283529160200191610c39565b820191906000526020600020905b815481529060010190602001808311610c1c57829003601f168201915b505050505090806001015490806002018054600181600116156101000203166002900480601f016020809104026020016040519081016040528092919081815260200182805460018160011615610100020316600290048015610cdd5780601f10610cb257610100808354040283529160200191610cdd565b820191906000526020600020905b815481529060010190602001808311610cc057829003601f168201915b505050505090806003018054600181600116156101000203166002900480601f016020809104026020016040519081016040528092919081815260200182805460018160011615610100020316600290048015610d7b5780601f10610d5057610100808354040283529160200191610d7b565b820191906000526020600020905b815481529060010190602001808311610d5e57829003601f168201915b5050505050908060040154905085565b6007602052806000526040600020600091509050806000018054600181600116156101000203166002900480601f016020809104026020016040519081016040528092919081815260200182805460018160011615610100020316600290048015610e375780601f10610e0c57610100808354040283529160200191610e37565b820191906000526020600020905b815481529060010190602001808311610e1a57829003601f168201915b505050505090806001015490806002018054600181600116156101000203166002900480601f016020809104026020016040519081016040528092919081815260200182805460018160011615610100020316600290048015610edb5780601f10610eb057610100808354040283529160200191610edb565b820191906000526020600020905b815481529060010190602001808311610ebe57829003601f168201915b505050505090806003018054600181600116156101000203166002900480601f016020809104026020016040519081016040528092919081815260200182805460018160011615610100020316600290048015610f795780601f10610f4e57610100808354040283529160200191610f79565b820191906000526020600020905b815481529060010190602001808311610f5c57829003601f168201915b5050505050908060040154905085565b606060058054600181600116156101000203166002900480601f0160208091040260200160405190810160405280929190818152602001828054600181600116156101000203166002900480156110215780601f10610ff657610100808354040283529160200191611021565b820191906000526020600020905b81548152906001019060200180831161100457829003601f168201915b5050505050905090565b828054600181600116156101000203166002900490600052602060002090601f016020900481019282601f1061106c57805160ff191683800117855561109a565b8280016001018555821561109a579182015b8281111561109957825182559160200191906001019061107e565b5b5090506110a791906110ab565b5090565b6110cd91905b808211156110c95760008160009055506001016110b1565b5090565b9056fea265627a7a72315820c41a5092c19066bdd204417fb4715d8edad2c7d769049f7adefc5e4c8e78151664736f6c63430005100032",
  "source": "// SPDX-License-Identifier: MIT\npragma solidity >=0.5.16 <8.10.0;\n\ncontract ProvStorage {\n  string ipfsHash;\n  //not using transaction ID like this. \n  uint txNumber = 0;\n\n  uint blockNumber = block.number;\n  bytes32 txHash =  (blockhash(blockNumber -1));\n  //Has to be blockNumber -1 since the \n\n  //----- try with variables not struct\n  //string ipfsHash;\n  //uint256 txHash;\n  string author;\n  string filename;\n  uint timestamp;\n  //-----\n\n// ---------------------- TEST ---------------------------------\n// Mappings\n   struct Upload {\n     //Doesn't like a structure being used?????\n    //struct for each upload instance\n    string ipfsHash;\n    uint256 txHash;\n    string author;\n    string filename;\n    uint timestamp;  \n  }\n\n  mapping(uint => Upload) public uploads;\n  //Transaction ID maps to an Upload instance\n  mapping(address => mapping(uint => Upload)) public address_uploads;\n  //Uploads can also be mapped to an address (the account of the person who created the upload.)\n\n  function upload(string memory _ipfsHash, string memory _author, string memory _filename, uint _timestamp) public {\n    //associate an upload with address and create the instance\n    //problem is the transaction ID doesn't generate until after this function?\n    txNumber = txNumber +1;\n    //address_uploads[msg.sender][txNumber] = Upload(_ipfsHash, txHash, _author, _filename, _timestamp);\n    ipfsHash = _ipfsHash;\n    txHash = txHash;  //already declared\n    author = _author;\n    filename = _filename;\n    timestamp = _timestamp;\n  }\n  \n  function getTxNumber() public view returns (uint){\n    //return the latest transaction number\n    return txNumber;\n  }\n\n  function getIPFS() public view returns (string memory){\n    //return the ipfsHash taking transaction ID & msg.sender.\n    //return address_uploads[msg.sender][txNumber].ipfsHash;\n    return ipfsHash;\n  }\n\n  function getTxHash() public view returns (bytes32){\n    //Return transactionHash\n    //return address_uploads[msg.sender][txNumber].txHash;\n    return txHash;\n  }\n\n  function getAuthor() public view returns (string memory){\n    //return author based on txNumber and current account.\n    //return address_uploads[msg.sender][txNumber].author;\n    return author;\n  }\n\n   function getFileName() public view returns (string memory){\n    //return author based on txNumber and current account.\n    //return address_uploads[msg.sender][txNumber].filename;\n    //return uploads[txNumber].filename;\n    return filename;\n  }\n  \n   function getTimestamp() public view returns (uint){\n    //return author based on txNumber and current account.\n    //return address_uploads[msg.sender][txNumber].timestamp;\n    return timestamp;\n  }\n  \n //----------------------------------------------------------------  \n //             No Longer used:\n  //Create constructor if I want to have a default value \n  function set(string memory x) public {\n    //change value of hash\n    ipfsHash = x;\n  }\n\n  function get() public view returns (string memory) {\n    //retrieve value of hash\n    return ipfsHash;\n  }\n\n  //-------------------------------------------------------------\n}\n\n//msg.sender = the address of the acccount currently running contract.",
  "sourcePath": "/Users/farkasmaro/Documents/ipfs-project/contracts/ProvStorage.sol",
  "compiler": {
    "name": "solc",
    "version": "0.5.16+commit.9c3226ce.Emscripten.clang"
  },
  "schemaVersion": "3.4.3",
  "updatedAt": "2022-03-10T18:43:20.837Z",
  "devdoc": {
    "methods": {}
  },
  "userdoc": {
    "methods": {}
  }
}