{
  "contractName": "ProvStorage",
  "abi": [
    {
      "constant": true,
      "inputs": [
        {
          "internalType": "string",
          "name": "",
          "type": "string"
        }
      ],
      "name": "downloads",
      "outputs": [
        {
          "internalType": "uint256",
          "name": "txNumber",
          "type": "uint256"
        },
        {
          "internalType": "string",
          "name": "ipfsHash",
          "type": "string"
        },
        {
          "internalType": "string",
          "name": "txHash",
          "type": "string"
        },
        {
          "internalType": "string",
          "name": "downloader",
          "type": "string"
        },
        {
          "internalType": "string",
          "name": "filename",
          "type": "string"
        },
        {
          "internalType": "uint256",
          "name": "timestamp",
          "type": "uint256"
        },
        {
          "internalType": "string",
          "name": "IP",
          "type": "string"
        }
      ],
      "payable": false,
      "stateMutability": "view",
      "type": "function"
    },
    {
      "constant": true,
      "inputs": [
        {
          "internalType": "string",
          "name": "",
          "type": "string"
        }
      ],
      "name": "uploads",
      "outputs": [
        {
          "internalType": "uint256",
          "name": "txNumber",
          "type": "uint256"
        },
        {
          "internalType": "string",
          "name": "ipfsHash",
          "type": "string"
        },
        {
          "internalType": "string",
          "name": "txHash",
          "type": "string"
        },
        {
          "internalType": "string",
          "name": "author",
          "type": "string"
        },
        {
          "internalType": "string",
          "name": "filename",
          "type": "string"
        },
        {
          "internalType": "uint256",
          "name": "timestamp",
          "type": "uint256"
        }
      ],
      "payable": false,
      "stateMutability": "view",
      "type": "function"
    },
    {
      "constant": false,
      "inputs": [
        {
          "internalType": "string",
          "name": "_ipfsHash",
          "type": "string"
        },
        {
          "internalType": "string",
          "name": "_author",
          "type": "string"
        },
        {
          "internalType": "string",
          "name": "_filename",
          "type": "string"
        },
        {
          "internalType": "uint256",
          "name": "_timestamp",
          "type": "uint256"
        }
      ],
      "name": "upload",
      "outputs": [],
      "payable": false,
      "stateMutability": "nonpayable",
      "type": "function"
    },
    {
      "constant": false,
      "inputs": [
        {
          "internalType": "string",
          "name": "_ipfsHash",
          "type": "string"
        },
        {
          "internalType": "string",
          "name": "_filename",
          "type": "string"
        },
        {
          "internalType": "uint256",
          "name": "_time",
          "type": "uint256"
        },
        {
          "internalType": "string",
          "name": "_downloader",
          "type": "string"
        },
        {
          "internalType": "string",
          "name": "_IP",
          "type": "string"
        }
      ],
      "name": "download",
      "outputs": [],
      "payable": false,
      "stateMutability": "nonpayable",
      "type": "function"
    },
    {
      "constant": false,
      "inputs": [
        {
          "internalType": "string",
          "name": "_txHash",
          "type": "string"
        }
      ],
      "name": "updateTxHash_upload",
      "outputs": [],
      "payable": false,
      "stateMutability": "nonpayable",
      "type": "function"
    },
    {
      "constant": false,
      "inputs": [
        {
          "internalType": "string",
          "name": "_txHash",
          "type": "string"
        }
      ],
      "name": "updateTxHash_download",
      "outputs": [],
      "payable": false,
      "stateMutability": "nonpayable",
      "type": "function"
    },
    {
      "constant": true,
      "inputs": [],
      "name": "getTxNumber_up_latest",
      "outputs": [
        {
          "internalType": "uint256",
          "name": "",
          "type": "uint256"
        }
      ],
      "payable": false,
      "stateMutability": "view",
      "type": "function"
    },
    {
      "constant": true,
      "inputs": [],
      "name": "getIPFS_up_latest",
      "outputs": [
        {
          "internalType": "string",
          "name": "",
          "type": "string"
        }
      ],
      "payable": false,
      "stateMutability": "view",
      "type": "function"
    },
    {
      "constant": true,
      "inputs": [],
      "name": "getTxHash_up_latest",
      "outputs": [
        {
          "internalType": "string",
          "name": "",
          "type": "string"
        }
      ],
      "payable": false,
      "stateMutability": "view",
      "type": "function"
    },
    {
      "constant": true,
      "inputs": [],
      "name": "getAuthor_up_latest",
      "outputs": [
        {
          "internalType": "string",
          "name": "",
          "type": "string"
        }
      ],
      "payable": false,
      "stateMutability": "view",
      "type": "function"
    },
    {
      "constant": true,
      "inputs": [],
      "name": "getFileName_up_latest",
      "outputs": [
        {
          "internalType": "string",
          "name": "",
          "type": "string"
        }
      ],
      "payable": false,
      "stateMutability": "view",
      "type": "function"
    },
    {
      "constant": true,
      "inputs": [],
      "name": "getTimestamp_up_latest",
      "outputs": [
        {
          "internalType": "uint256",
          "name": "",
          "type": "uint256"
        }
      ],
      "payable": false,
      "stateMutability": "view",
      "type": "function"
    },
    {
      "constant": true,
      "inputs": [],
      "name": "getTxNumber_down_latest",
      "outputs": [
        {
          "internalType": "uint256",
          "name": "",
          "type": "uint256"
        }
      ],
      "payable": false,
      "stateMutability": "view",
      "type": "function"
    },
    {
      "constant": true,
      "inputs": [],
      "name": "getIPFS_down_latest",
      "outputs": [
        {
          "internalType": "string",
          "name": "",
          "type": "string"
        }
      ],
      "payable": false,
      "stateMutability": "view",
      "type": "function"
    },
    {
      "constant": true,
      "inputs": [],
      "name": "getTxHash_down_latest",
      "outputs": [
        {
          "internalType": "string",
          "name": "",
          "type": "string"
        }
      ],
      "payable": false,
      "stateMutability": "view",
      "type": "function"
    },
    {
      "constant": true,
      "inputs": [],
      "name": "getFileName_down_latest",
      "outputs": [
        {
          "internalType": "string",
          "name": "",
          "type": "string"
        }
      ],
      "payable": false,
      "stateMutability": "view",
      "type": "function"
    },
    {
      "constant": true,
      "inputs": [],
      "name": "getTimestamp_down_latest",
      "outputs": [
        {
          "internalType": "uint256",
          "name": "",
          "type": "uint256"
        }
      ],
      "payable": false,
      "stateMutability": "view",
      "type": "function"
    },
    {
      "constant": true,
      "inputs": [],
      "name": "getDownloader_latest",
      "outputs": [
        {
          "internalType": "string",
          "name": "",
          "type": "string"
        }
      ],
      "payable": false,
      "stateMutability": "view",
      "type": "function"
    },
    {
      "constant": true,
      "inputs": [],
      "name": "getIP_down_latest",
      "outputs": [
        {
          "internalType": "string",
          "name": "",
          "type": "string"
        }
      ],
      "payable": false,
      "stateMutability": "view",
      "type": "function"
    },
    {
      "constant": true,
      "inputs": [
        {
          "internalType": "string",
          "name": "txHash",
          "type": "string"
        }
      ],
      "name": "getTxNumber_up",
      "outputs": [
        {
          "internalType": "uint256",
          "name": "",
          "type": "uint256"
        }
      ],
      "payable": false,
      "stateMutability": "view",
      "type": "function"
    },
    {
      "constant": true,
      "inputs": [
        {
          "internalType": "string",
          "name": "txHash",
          "type": "string"
        }
      ],
      "name": "getIPFS_up",
      "outputs": [
        {
          "internalType": "string",
          "name": "",
          "type": "string"
        }
      ],
      "payable": false,
      "stateMutability": "view",
      "type": "function"
    },
    {
      "constant": true,
      "inputs": [
        {
          "internalType": "string",
          "name": "txHash",
          "type": "string"
        }
      ],
      "name": "getTxHash_up",
      "outputs": [
        {
          "internalType": "string",
          "name": "",
          "type": "string"
        }
      ],
      "payable": false,
      "stateMutability": "view",
      "type": "function"
    },
    {
      "constant": true,
      "inputs": [
        {
          "internalType": "string",
          "name": "txHash",
          "type": "string"
        }
      ],
      "name": "getAuthor_up",
      "outputs": [
        {
          "internalType": "string",
          "name": "",
          "type": "string"
        }
      ],
      "payable": false,
      "stateMutability": "view",
      "type": "function"
    },
    {
      "constant": true,
      "inputs": [
        {
          "internalType": "string",
          "name": "txHash",
          "type": "string"
        }
      ],
      "name": "getFileName_up",
      "outputs": [
        {
          "internalType": "string",
          "name": "",
          "type": "string"
        }
      ],
      "payable": false,
      "stateMutability": "view",
      "type": "function"
    },
    {
      "constant": true,
      "inputs": [
        {
          "internalType": "string",
          "name": "txHash",
          "type": "string"
        }
      ],
      "name": "getTimestamp_up",
      "outputs": [
        {
          "internalType": "uint256",
          "name": "",
          "type": "uint256"
        }
      ],
      "payable": false,
      "stateMutability": "view",
      "type": "function"
    },
    {
      "constant": true,
      "inputs": [
        {
          "internalType": "string",
          "name": "txHash",
          "type": "string"
        }
      ],
      "name": "getTxNumber_down",
      "outputs": [
        {
          "internalType": "uint256",
          "name": "",
          "type": "uint256"
        }
      ],
      "payable": false,
      "stateMutability": "view",
      "type": "function"
    },
    {
      "constant": true,
      "inputs": [
        {
          "internalType": "string",
          "name": "txHash",
          "type": "string"
        }
      ],
      "name": "getIPFS_down",
      "outputs": [
        {
          "internalType": "string",
          "name": "",
          "type": "string"
        }
      ],
      "payable": false,
      "stateMutability": "view",
      "type": "function"
    },
    {
      "constant": true,
      "inputs": [
        {
          "internalType": "string",
          "name": "txHash",
          "type": "string"
        }
      ],
      "name": "getTxHash_down",
      "outputs": [
        {
          "internalType": "string",
          "name": "",
          "type": "string"
        }
      ],
      "payable": false,
      "stateMutability": "view",
      "type": "function"
    },
    {
      "constant": true,
      "inputs": [
        {
          "internalType": "string",
          "name": "txHash",
          "type": "string"
        }
      ],
      "name": "getFileName_down",
      "outputs": [
        {
          "internalType": "string",
          "name": "",
          "type": "string"
        }
      ],
      "payable": false,
      "stateMutability": "view",
      "type": "function"
    },
    {
      "constant": true,
      "inputs": [
        {
          "internalType": "string",
          "name": "txHash",
          "type": "string"
        }
      ],
      "name": "getTimestamp_down",
      "outputs": [
        {
          "internalType": "uint256",
          "name": "",
          "type": "uint256"
        }
      ],
      "payable": false,
      "stateMutability": "view",
      "type": "function"
    },
    {
      "constant": true,
      "inputs": [
        {
          "internalType": "string",
          "name": "txHash",
          "type": "string"
        }
      ],
      "name": "getDownloader",
      "outputs": [
        {
          "internalType": "string",
          "name": "",
          "type": "string"
        }
      ],
      "payable": false,
      "stateMutability": "view",
      "type": "function"
    },
    {
      "constant": true,
      "inputs": [
        {
          "internalType": "string",
          "name": "txHash",
          "type": "string"
        }
      ],
      "name": "getIP_down",
      "outputs": [
        {
          "internalType": "string",
          "name": "",
          "type": "string"
        }
      ],
      "payable": false,
      "stateMutability": "view",
      "type": "function"
    }
  ],
  "bytecode": "0x6080604052600080556000600155604051806020016040528060008152506002908051906020019062000034929190620000bf565b5060405180602001604052806000815250600390805190602001906200005c929190620000bf565b506040518060400160405280600681526020017f6f726967696e000000000000000000000000000000000000000000000000000081525060049080519060200190620000aa929190620000bf565b50348015620000b857600080fd5b506200016e565b828054600181600116156101000203166002900490600052602060002090601f016020900481019282601f106200010257805160ff191683800117855562000133565b8280016001018555821562000133579182015b828111156200013257825182559160200191906001019062000115565b5b50905062000142919062000146565b5090565b6200016b91905b80821115620001675760008160009055506001016200014d565b5090565b90565b614610806200017e6000396000f3fe608060405234801561001057600080fd5b50600436106101ef5760003560e01c806381d41c951161010f578063c47c143b116100a2578063e05f8ef911610071578063e05f8ef914611d2d578063e630665614611dfc578063e841d2c814611f30578063f304a8d214611f4e576101ef565b8063c47c143b14611a24578063c98073be14611b58578063d3fdf20a14611b76578063d59a0c8714611caa576101ef565b80639ff97151116100de5780639ff97151146115d9578063a096e5d014611863578063ab6f47e8146118e6578063c1af68c514611969576101ef565b806381d41c951461100e5780638bc2b5221461120157806394e5abb0146112d057806399cd819514611556576101ef565b806354df221b1161018757806374604400116101565780637460440014610b4757806376c6834114610e395780637ad13c0314610e575780637fcc9ffa14610f8b576101ef565b806354df221b14610852578063666b6dcb146108d55780636deb24bd14610a09578063743e08e614610ac4576101ef565b80632082133b116101c35780632082133b146105ae5780633ccc9686146106e257806346dc4e84146107655780635317b7dd14610783576101ef565b8062c926d7146101f45780630869b8a5146102c3578063154778dc146103f7578063189e09141461047a575b600080fd5b6102ad6004803603602081101561020a57600080fd5b810190808035906020019064010000000081111561022757600080fd5b82018360208201111561023957600080fd5b8035906020019184600183028401116401000000008311171561025b57600080fd5b91908080601f016020809104026020016040519081016040528093929190818152602001838380828437600081840152601f19601f820116905080830192505050505050509192919290505050612082565b6040518082815260200191505060405180910390f35b61037c600480360360208110156102d957600080fd5b81019080803590602001906401000000008111156102f657600080fd5b82018360208201111561030857600080fd5b8035906020019184600183028401116401000000008311171561032a57600080fd5b91908080601f016020809104026020016040519081016040528093929190818152602001838380828437600081840152601f19601f8201169050808301925050505050505091929192905050506120f8565b6040518080602001828103825283818151815260200191508051906020019080838360005b838110156103bc5780820151818401526020810190506103a1565b50505050905090810190601f1680156103e95780820380516001836020036101000a031916815260200191505b509250505060405180910390f35b6103ff612206565b6040518080602001828103825283818151815260200191508051906020019080838360005b8381101561043f578082015181840152602081019050610424565b50505050905090810190601f16801561046c5780820380516001836020036101000a031916815260200191505b509250505060405180910390f35b6105336004803603602081101561049057600080fd5b81019080803590602001906401000000008111156104ad57600080fd5b8201836020820111156104bf57600080fd5b803590602001918460018302840111640100000000831117156104e157600080fd5b91908080601f016020809104026020016040519081016040528093929190818152602001838380828437600081840152601f19601f82011690508083019250505050505050919291929050505061231b565b6040518080602001828103825283818151815260200191508051906020019080838360005b83811015610573578082015181840152602081019050610558565b50505050905090810190601f1680156105a05780820380516001836020036101000a031916815260200191505b509250505060405180910390f35b610667600480360360208110156105c457600080fd5b81019080803590602001906401000000008111156105e157600080fd5b8201836020820111156105f357600080fd5b8035906020019184600183028401116401000000008311171561061557600080fd5b91908080601f016020809104026020016040519081016040528093929190818152602001838380828437600081840152601f19601f820116905080830192505050505050509192919290505050612429565b6040518080602001828103825283818151815260200191508051906020019080838360005b838110156106a757808201518184015260208101905061068c565b50505050905090810190601f1680156106d45780820380516001836020036101000a031916815260200191505b509250505060405180910390f35b6106ea612537565b6040518080602001828103825283818151815260200191508051906020019080838360005b8381101561072a57808201518184015260208101905061070f565b50505050905090810190601f1680156107575780820380516001836020036101000a031916815260200191505b509250505060405180910390f35b61076d61264c565b6040518082815260200191505060405180910390f35b61083c6004803603602081101561079957600080fd5b81019080803590602001906401000000008111156107b657600080fd5b8201836020820111156107c857600080fd5b803590602001918460018302840111640100000000831117156107ea57600080fd5b91908080601f016020809104026020016040519081016040528093929190818152602001838380828437600081840152601f19601f8201169050808301925050505050505091929192905050506126c9565b6040518082815260200191505060405180910390f35b61085a61273f565b6040518080602001828103825283818151815260200191508051906020019080838360005b8381101561089a57808201518184015260208101905061087f565b50505050905090810190601f1680156108c75780820380516001836020036101000a031916815260200191505b509250505060405180910390f35b61098e600480360360208110156108eb57600080fd5b810190808035906020019064010000000081111561090857600080fd5b82018360208201111561091a57600080fd5b8035906020019184600183028401116401000000008311171561093c57600080fd5b91908080601f016020809104026020016040519081016040528093929190818152602001838380828437600081840152601f19601f820116905080830192505050505050509192919290505050612854565b6040518080602001828103825283818151815260200191508051906020019080838360005b838110156109ce5780820151818401526020810190506109b3565b50505050905090810190601f1680156109fb5780820380516001836020036101000a031916815260200191505b509250505060405180910390f35b610ac260048036036020811015610a1f57600080fd5b8101908080359060200190640100000000811115610a3c57600080fd5b820183602082011115610a4e57600080fd5b80359060200191846001830284011164010000000083111715610a7057600080fd5b91908080601f016020809104026020016040519081016040528093929190818152602001838380828437600081840152601f19601f820116905080830192505050505050509192919290505050612962565b005b610acc612b8f565b6040518080602001828103825283818151815260200191508051906020019080838360005b83811015610b0c578082015181840152602081019050610af1565b50505050905090810190601f168015610b395780820380516001836020036101000a031916815260200191505b509250505060405180910390f35b610c0060048036036020811015610b5d57600080fd5b8101908080359060200190640100000000811115610b7a57600080fd5b820183602082011115610b8c57600080fd5b80359060200191846001830284011164010000000083111715610bae57600080fd5b91908080601f016020809104026020016040519081016040528093929190818152602001838380828437600081840152601f19601f820116905080830192505050505050509192919290505050612ca4565b60405180888152602001806020018060200180602001806020018781526020018060200186810386528c818151815260200191508051906020019080838360005b83811015610c5c578082015181840152602081019050610c41565b50505050905090810190601f168015610c895780820380516001836020036101000a031916815260200191505b5086810385528b818151815260200191508051906020019080838360005b83811015610cc2578082015181840152602081019050610ca7565b50505050905090810190601f168015610cef5780820380516001836020036101000a031916815260200191505b5086810384528a818151815260200191508051906020019080838360005b83811015610d28578082015181840152602081019050610d0d565b50505050905090810190601f168015610d555780820380516001836020036101000a031916815260200191505b50868103835289818151815260200191508051906020019080838360005b83811015610d8e578082015181840152602081019050610d73565b50505050905090810190601f168015610dbb5780820380516001836020036101000a031916815260200191505b50868103825287818151815260200191508051906020019080838360005b83811015610df4578082015181840152602081019050610dd9565b50505050905090810190601f168015610e215780820380516001836020036101000a031916815260200191505b509c5050505050505050505050505060405180910390f35b610e41612ff4565b6040518082815260200191505060405180910390f35b610f1060048036036020811015610e6d57600080fd5b8101908080359060200190640100000000811115610e8a57600080fd5b820183602082011115610e9c57600080fd5b80359060200191846001830284011164010000000083111715610ebe57600080fd5b91908080601f016020809104026020016040519081016040528093929190818152602001838380828437600081840152601f19601f820116905080830192505050505050509192919290505050613071565b6040518080602001828103825283818151815260200191508051906020019080838360005b83811015610f50578082015181840152602081019050610f35565b50505050905090810190601f168015610f7d5780820380516001836020036101000a031916815260200191505b509250505060405180910390f35b610f9361317f565b6040518080602001828103825283818151815260200191508051906020019080838360005b83811015610fd3578082015181840152602081019050610fb8565b50505050905090810190601f1680156110005780820380516001836020036101000a031916815260200191505b509250505060405180910390f35b6111ff6004803603608081101561102457600080fd5b810190808035906020019064010000000081111561104157600080fd5b82018360208201111561105357600080fd5b8035906020019184600183028401116401000000008311171561107557600080fd5b91908080601f016020809104026020016040519081016040528093929190818152602001838380828437600081840152601f19601f820116905080830192505050505050509192919290803590602001906401000000008111156110d857600080fd5b8201836020820111156110ea57600080fd5b8035906020019184600183028401116401000000008311171561110c57600080fd5b91908080601f016020809104026020016040519081016040528093929190818152602001838380828437600081840152601f19601f8201169050808301925050505050505091929192908035906020019064010000000081111561116f57600080fd5b82018360208201111561118157600080fd5b803590602001918460018302840111640100000000831117156111a357600080fd5b91908080601f016020809104026020016040519081016040528093929190818152602001838380828437600081840152601f19601f82011690508083019250505050505050919291929080359060200190929190505050613294565b005b6112ba6004803603602081101561121757600080fd5b810190808035906020019064010000000081111561123457600080fd5b82018360208201111561124657600080fd5b8035906020019184600183028401116401000000008311171561126857600080fd5b91908080601f016020809104026020016040519081016040528093929190818152602001838380828437600081840152601f19601f820116905080830192505050505050509192919290505050613407565b6040518082815260200191505060405180910390f35b611389600480360360208110156112e657600080fd5b810190808035906020019064010000000081111561130357600080fd5b82018360208201111561131557600080fd5b8035906020019184600183028401116401000000008311171561133757600080fd5b91908080601f016020809104026020016040519081016040528093929190818152602001838380828437600081840152601f19601f82011690508083019250505050505050919291929050505061347d565b604051808781526020018060200180602001806020018060200186815260200185810385528a818151815260200191508051906020019080838360005b838110156113e15780820151818401526020810190506113c6565b50505050905090810190601f16801561140e5780820380516001836020036101000a031916815260200191505b50858103845289818151815260200191508051906020019080838360005b8381101561144757808201518184015260208101905061142c565b50505050905090810190601f1680156114745780820380516001836020036101000a031916815260200191505b50858103835288818151815260200191508051906020019080838360005b838110156114ad578082015181840152602081019050611492565b50505050905090810190601f1680156114da5780820380516001836020036101000a031916815260200191505b50858103825287818151815260200191508051906020019080838360005b838110156115135780820151818401526020810190506114f8565b50505050905090810190601f1680156115405780820380516001836020036101000a031916815260200191505b509a505050505050505050505060405180910390f35b61155e61372f565b6040518080602001828103825283818151815260200191508051906020019080838360005b8381101561159e578082015181840152602081019050611583565b50505050905090810190601f1680156115cb5780820380516001836020036101000a031916815260200191505b509250505060405180910390f35b611861600480360360a08110156115ef57600080fd5b810190808035906020019064010000000081111561160c57600080fd5b82018360208201111561161e57600080fd5b8035906020019184600183028401116401000000008311171561164057600080fd5b91908080601f016020809104026020016040519081016040528093929190818152602001838380828437600081840152601f19601f820116905080830192505050505050509192919290803590602001906401000000008111156116a357600080fd5b8201836020820111156116b557600080fd5b803590602001918460018302840111640100000000831117156116d757600080fd5b91908080601f016020809104026020016040519081016040528093929190818152602001838380828437600081840152601f19601f820116905080830192505050505050509192919290803590602001909291908035906020019064010000000081111561174457600080fd5b82018360208201111561175657600080fd5b8035906020019184600183028401116401000000008311171561177857600080fd5b91908080601f016020809104026020016040519081016040528093929190818152602001838380828437600081840152601f19601f820116905080830192505050505050509192919290803590602001906401000000008111156117db57600080fd5b8201836020820111156117ed57600080fd5b8035906020019184600183028401116401000000008311171561180f57600080fd5b91908080601f016020809104026020016040519081016040528093929190818152602001838380828437600081840152601f19601f820116905080830192505050505050509192919290505050613844565b005b61186b6139da565b6040518080602001828103825283818151815260200191508051906020019080838360005b838110156118ab578082015181840152602081019050611890565b50505050905090810190601f1680156118d85780820380516001836020036101000a031916815260200191505b509250505060405180910390f35b6118ee613aef565b6040518080602001828103825283818151815260200191508051906020019080838360005b8381101561192e578082015181840152602081019050611913565b50505050905090810190601f16801561195b5780820380516001836020036101000a031916815260200191505b509250505060405180910390f35b611a226004803603602081101561197f57600080fd5b810190808035906020019064010000000081111561199c57600080fd5b8201836020820111156119ae57600080fd5b803590602001918460018302840111640100000000831117156119d057600080fd5b91908080601f016020809104026020016040519081016040528093929190818152602001838380828437600081840152601f19601f820116905080830192505050505050509192919290505050613c04565b005b611add60048036036020811015611a3a57600080fd5b8101908080359060200190640100000000811115611a5757600080fd5b820183602082011115611a6957600080fd5b80359060200191846001830284011164010000000083111715611a8b57600080fd5b91908080601f016020809104026020016040519081016040528093929190818152602001838380828437600081840152601f19601f820116905080830192505050505050509192919290505050613e59565b6040518080602001828103825283818151815260200191508051906020019080838360005b83811015611b1d578082015181840152602081019050611b02565b50505050905090810190601f168015611b4a5780820380516001836020036101000a031916815260200191505b509250505060405180910390f35b611b60613f67565b6040518082815260200191505060405180910390f35b611c2f60048036036020811015611b8c57600080fd5b8101908080359060200190640100000000811115611ba957600080fd5b820183602082011115611bbb57600080fd5b80359060200191846001830284011164010000000083111715611bdd57600080fd5b91908080601f016020809104026020016040519081016040528093929190818152602001838380828437600081840152601f19601f820116905080830192505050505050509192919290505050613f70565b6040518080602001828103825283818151815260200191508051906020019080838360005b83811015611c6f578082015181840152602081019050611c54565b50505050905090810190601f168015611c9c5780820380516001836020036101000a031916815260200191505b509250505060405180910390f35b611cb261407e565b6040518080602001828103825283818151815260200191508051906020019080838360005b83811015611cf2578082015181840152602081019050611cd7565b50505050905090810190601f168015611d1f5780820380516001836020036101000a031916815260200191505b509250505060405180910390f35b611de660048036036020811015611d4357600080fd5b8101908080359060200190640100000000811115611d6057600080fd5b820183602082011115611d7257600080fd5b80359060200191846001830284011164010000000083111715611d9457600080fd5b91908080601f016020809104026020016040519081016040528093929190818152602001838380828437600081840152601f19601f820116905080830192505050505050509192919290505050614193565b6040518082815260200191505060405180910390f35b611eb560048036036020811015611e1257600080fd5b8101908080359060200190640100000000811115611e2f57600080fd5b820183602082011115611e4157600080fd5b80359060200191846001830284011164010000000083111715611e6357600080fd5b91908080601f016020809104026020016040519081016040528093929190818152602001838380828437600081840152601f19601f820116905080830192505050505050509192919290505050614209565b6040518080602001828103825283818151815260200191508051906020019080838360005b83811015611ef5578082015181840152602081019050611eda565b50505050905090810190601f168015611f225780820380516001836020036101000a031916815260200191505b509250505060405180910390f35b611f38614317565b6040518082815260200191505060405180910390f35b61200760048036036020811015611f6457600080fd5b8101908080359060200190640100000000811115611f8157600080fd5b820183602082011115611f9357600080fd5b80359060200191846001830284011164010000000083111715611fb557600080fd5b91908080601f016020809104026020016040519081016040528093929190818152602001838380828437600081840152601f19601f820116905080830192505050505050509192919290505050614321565b6040518080602001828103825283818151815260200191508051906020019080838360005b8381101561204757808201518184015260208101905061202c565b50505050905090810190601f1680156120745780820380516001836020036101000a031916815260200191505b509250505060405180910390f35b60006005826040518082805190602001908083835b602083106120ba5780518252602082019150602081019050602083039250612097565b6001836020036101000a0380198251168184511680821785525050505050509050019150509081526020016040518091039020600001549050919050565b60606005826040518082805190602001908083835b60208310612130578051825260208201915060208101905060208303925061210d565b6001836020036101000a03801982511681845116808217855250505050505090500191505090815260200160405180910390206001018054600181600116156101000203166002900480601f0160208091040260200160405190810160405280929190818152602001828054600181600116156101000203166002900480156121fa5780601f106121cf576101008083540402835291602001916121fa565b820191906000526020600020905b8154815290600101906020018083116121dd57829003601f168201915b50505050509050919050565b60606005600260405180828054600181600116156101000203166002900480156122675780601f10612245576101008083540402835291820191612267565b820191906000526020600020905b815481529060010190602001808311612253575b505091505090815260200160405180910390206004018054600181600116156101000203166002900480601f0160208091040260200160405190810160405280929190818152602001828054600181600116156101000203166002900480156123115780601f106122e657610100808354040283529160200191612311565b820191906000526020600020905b8154815290600101906020018083116122f457829003601f168201915b5050505050905090565b60606006826040518082805190602001908083835b602083106123535780518252602082019150602081019050602083039250612330565b6001836020036101000a03801982511681845116808217855250505050505090500191505090815260200160405180910390206002018054600181600116156101000203166002900480601f01602080910402602001604051908101604052809291908181526020018280546001816001161561010002031660029004801561241d5780601f106123f25761010080835404028352916020019161241d565b820191906000526020600020905b81548152906001019060200180831161240057829003601f168201915b50505050509050919050565b60606006826040518082805190602001908083835b60208310612461578051825260208201915060208101905060208303925061243e565b6001836020036101000a03801982511681845116808217855250505050505090500191505090815260200160405180910390206003018054600181600116156101000203166002900480601f01602080910402602001604051908101604052809291908181526020018280546001816001161561010002031660029004801561252b5780601f106125005761010080835404028352916020019161252b565b820191906000526020600020905b81548152906001019060200180831161250e57829003601f168201915b50505050509050919050565b60606006600360405180828054600181600116156101000203166002900480156125985780601f10612576576101008083540402835291820191612598565b820191906000526020600020905b815481529060010190602001808311612584575b505091505090815260200160405180910390206006018054600181600116156101000203166002900480601f0160208091040260200160405190810160405280929190818152602001828054600181600116156101000203166002900480156126425780601f1061261757610100808354040283529160200191612642565b820191906000526020600020905b81548152906001019060200180831161262557829003601f168201915b5050505050905090565b60006005600260405180828054600181600116156101000203166002900480156126ad5780601f1061268b5761010080835404028352918201916126ad565b820191906000526020600020905b815481529060010190602001808311612699575b5050915050908152602001604051809103902060050154905090565b60006006826040518082805190602001908083835b6020831061270157805182526020820191506020810190506020830392506126de565b6001836020036101000a0380198251168184511680821785525050505050509050019150509081526020016040518091039020600001549050919050565b60606006600360405180828054600181600116156101000203166002900480156127a05780601f1061277e5761010080835404028352918201916127a0565b820191906000526020600020905b81548152906001019060200180831161278c575b505091505090815260200160405180910390206001018054600181600116156101000203166002900480601f01602080910402602001604051908101604052809291908181526020018280546001816001161561010002031660029004801561284a5780601f1061281f5761010080835404028352916020019161284a565b820191906000526020600020905b81548152906001019060200180831161282d57829003601f168201915b5050505050905090565b60606006826040518082805190602001908083835b6020831061288c5780518252602082019150602081019050602083039250612869565b6001836020036101000a03801982511681845116808217855250505050505090500191505090815260200160405180910390206004018054600181600116156101000203166002900480601f0160208091040260200160405190810160405280929190818152602001828054600181600116156101000203166002900480156129565780601f1061292b57610100808354040283529160200191612956565b820191906000526020600020905b81548152906001019060200180831161293957829003601f168201915b50505050509050919050565b6005600460405180828054600181600116156101000203166002900480156129c15780601f1061299f5761010080835404028352918201916129c1565b820191906000526020600020905b8154815290600101906020018083116129ad575b505091505090815260200160405180910390206005826040518082805190602001908083835b60208310612a0a57805182526020820191506020810190506020830392506129e7565b6001836020036101000a03801982511681845116808217855250505050505090500191505090815260200160405180910390206000820154816000015560018201816001019080546001816001161561010002031660029004612a6e92919061442f565b5060028201816002019080546001816001161561010002031660029004612a9692919061442f565b5060038201816003019080546001816001161561010002031660029004612abe92919061442f565b5060048201816004019080546001816001161561010002031660029004612ae692919061442f565b5060058201548160050155905050806005826040518082805190602001908083835b60208310612b2b5780518252602082019150602081019050602083039250612b08565b6001836020036101000a03801982511681845116808217855250505050505090500191505090815260200160405180910390206002019080519060200190612b749291906144b6565b508060029080519060200190612b8b9291906144b6565b5050565b6060600660036040518082805460018160011615610100020316600290048015612bf05780601f10612bce576101008083540402835291820191612bf0565b820191906000526020600020905b815481529060010190602001808311612bdc575b505091505090815260200160405180910390206002018054600181600116156101000203166002900480601f016020809104026020016040519081016040528092919081815260200182805460018160011615610100020316600290048015612c9a5780601f10612c6f57610100808354040283529160200191612c9a565b820191906000526020600020905b815481529060010190602001808311612c7d57829003601f168201915b5050505050905090565b600681805160208101820180518482526020830160208501208183528095505050505050600091509050806000015490806001018054600181600116156101000203166002900480601f016020809104026020016040519081016040528092919081815260200182805460018160011615610100020316600290048015612d6c5780601f10612d4157610100808354040283529160200191612d6c565b820191906000526020600020905b815481529060010190602001808311612d4f57829003601f168201915b505050505090806002018054600181600116156101000203166002900480601f016020809104026020016040519081016040528092919081815260200182805460018160011615610100020316600290048015612e0a5780601f10612ddf57610100808354040283529160200191612e0a565b820191906000526020600020905b815481529060010190602001808311612ded57829003601f168201915b505050505090806003018054600181600116156101000203166002900480601f016020809104026020016040519081016040528092919081815260200182805460018160011615610100020316600290048015612ea85780601f10612e7d57610100808354040283529160200191612ea8565b820191906000526020600020905b815481529060010190602001808311612e8b57829003601f168201915b505050505090806004018054600181600116156101000203166002900480601f016020809104026020016040519081016040528092919081815260200182805460018160011615610100020316600290048015612f465780601f10612f1b57610100808354040283529160200191612f46565b820191906000526020600020905b815481529060010190602001808311612f2957829003601f168201915b505050505090806005015490806006018054600181600116156101000203166002900480601f016020809104026020016040519081016040528092919081815260200182805460018160011615610100020316600290048015612fea5780601f10612fbf57610100808354040283529160200191612fea565b820191906000526020600020905b815481529060010190602001808311612fcd57829003601f168201915b5050505050905087565b60006006600360405180828054600181600116156101000203166002900480156130555780601f10613033576101008083540402835291820191613055565b820191906000526020600020905b815481529060010190602001808311613041575b5050915050908152602001604051809103902060050154905090565b60606005826040518082805190602001908083835b602083106130a95780518252602082019150602081019050602083039250613086565b6001836020036101000a03801982511681845116808217855250505050505090500191505090815260200160405180910390206004018054600181600116156101000203166002900480601f0160208091040260200160405190810160405280929190818152602001828054600181600116156101000203166002900480156131735780601f1061314857610100808354040283529160200191613173565b820191906000526020600020905b81548152906001019060200180831161315657829003601f168201915b50505050509050919050565b60606005600260405180828054600181600116156101000203166002900480156131e05780601f106131be5761010080835404028352918201916131e0565b820191906000526020600020905b8154815290600101906020018083116131cc575b505091505090815260200160405180910390206002018054600181600116156101000203166002900480601f01602080910402602001604051908101604052809291908181526020018280546001816001161561010002031660029004801561328a5780601f1061325f5761010080835404028352916020019161328a565b820191906000526020600020905b81548152906001019060200180831161326d57829003601f168201915b5050505050905090565b6001600054016000819055506040518060c0016040528060005481526020018581526020016040518060400160405280600581526020017f656d7074790000000000000000000000000000000000000000000000000000008152508152602001848152602001838152602001828152506005600460405180828054600181600116156101000203166002900480156133635780601f10613341576101008083540402835291820191613363565b820191906000526020600020905b81548152906001019060200180831161334f575b5050915050908152602001604051809103902060008201518160000155602082015181600101908051906020019061339c929190614536565b5060408201518160020190805190602001906133b9929190614536565b5060608201518160030190805190602001906133d6929190614536565b5060808201518160040190805190602001906133f3929190614536565b5060a0820151816005015590505050505050565b60006006826040518082805190602001908083835b6020831061343f578051825260208201915060208101905060208303925061341c565b6001836020036101000a0380198251168184511680821785525050505050509050019150509081526020016040518091039020600501549050919050565b600581805160208101820180518482526020830160208501208183528095505050505050600091509050806000015490806001018054600181600116156101000203166002900480601f0160208091040260200160405190810160405280929190818152602001828054600181600116156101000203166002900480156135455780601f1061351a57610100808354040283529160200191613545565b820191906000526020600020905b81548152906001019060200180831161352857829003601f168201915b505050505090806002018054600181600116156101000203166002900480601f0160208091040260200160405190810160405280929190818152602001828054600181600116156101000203166002900480156135e35780601f106135b8576101008083540402835291602001916135e3565b820191906000526020600020905b8154815290600101906020018083116135c657829003601f168201915b505050505090806003018054600181600116156101000203166002900480601f0160208091040260200160405190810160405280929190818152602001828054600181600116156101000203166002900480156136815780601f1061365657610100808354040283529160200191613681565b820191906000526020600020905b81548152906001019060200180831161366457829003601f168201915b505050505090806004018054600181600116156101000203166002900480601f01602080910402602001604051908101604052809291908181526020018280546001816001161561010002031660029004801561371f5780601f106136f45761010080835404028352916020019161371f565b820191906000526020600020905b81548152906001019060200180831161370257829003601f168201915b5050505050908060050154905086565b60606005600260405180828054600181600116156101000203166002900480156137905780601f1061376e576101008083540402835291820191613790565b820191906000526020600020905b81548152906001019060200180831161377c575b505091505090815260200160405180910390206001018054600181600116156101000203166002900480601f01602080910402602001604051908101604052809291908181526020018280546001816001161561010002031660029004801561383a5780601f1061380f5761010080835404028352916020019161383a565b820191906000526020600020905b81548152906001019060200180831161381d57829003601f168201915b5050505050905090565b60018054016001819055506040518060e0016040528060015481526020018681526020016040518060400160405280600581526020017f656d7074790000000000000000000000000000000000000000000000000000008152508152602001838152602001858152602001848152602001828152506006600460405180828054600181600116156101000203166002900480156139185780601f106138f6576101008083540402835291820191613918565b820191906000526020600020905b815481529060010190602001808311613904575b50509150509081526020016040518091039020600082015181600001556020820151816001019080519060200190613951929190614536565b50604082015181600201908051906020019061396e929190614536565b50606082015181600301908051906020019061398b929190614536565b5060808201518160040190805190602001906139a8929190614536565b5060a0820151816005015560c08201518160060190805190602001906139cf929190614536565b509050505050505050565b6060600660036040518082805460018160011615610100020316600290048015613a3b5780601f10613a19576101008083540402835291820191613a3b565b820191906000526020600020905b815481529060010190602001808311613a27575b505091505090815260200160405180910390206004018054600181600116156101000203166002900480601f016020809104026020016040519081016040528092919081815260200182805460018160011615610100020316600290048015613ae55780601f10613aba57610100808354040283529160200191613ae5565b820191906000526020600020905b815481529060010190602001808311613ac857829003601f168201915b5050505050905090565b6060600660036040518082805460018160011615610100020316600290048015613b505780601f10613b2e576101008083540402835291820191613b50565b820191906000526020600020905b815481529060010190602001808311613b3c575b505091505090815260200160405180910390206003018054600181600116156101000203166002900480601f016020809104026020016040519081016040528092919081815260200182805460018160011615610100020316600290048015613bfa5780601f10613bcf57610100808354040283529160200191613bfa565b820191906000526020600020905b815481529060010190602001808311613bdd57829003601f168201915b5050505050905090565b600660046040518082805460018160011615610100020316600290048015613c635780601f10613c41576101008083540402835291820191613c63565b820191906000526020600020905b815481529060010190602001808311613c4f575b505091505090815260200160405180910390206006826040518082805190602001908083835b60208310613cac5780518252602082019150602081019050602083039250613c89565b6001836020036101000a03801982511681845116808217855250505050505090500191505090815260200160405180910390206000820154816000015560018201816001019080546001816001161561010002031660029004613d1092919061442f565b5060028201816002019080546001816001161561010002031660029004613d3892919061442f565b5060038201816003019080546001816001161561010002031660029004613d6092919061442f565b5060048201816004019080546001816001161561010002031660029004613d8892919061442f565b506005820154816005015560068201816006019080546001816001161561010002031660029004613dba92919061442f565b50905050806006826040518082805190602001908083835b60208310613df55780518252602082019150602081019050602083039250613dd2565b6001836020036101000a03801982511681845116808217855250505050505090500191505090815260200160405180910390206002019080519060200190613e3e9291906144b6565b508060039080519060200190613e559291906144b6565b5050565b60606005826040518082805190602001908083835b60208310613e915780518252602082019150602081019050602083039250613e6e565b6001836020036101000a03801982511681845116808217855250505050505090500191505090815260200160405180910390206002018054600181600116156101000203166002900480601f016020809104026020016040519081016040528092919081815260200182805460018160011615610100020316600290048015613f5b5780601f10613f3057610100808354040283529160200191613f5b565b820191906000526020600020905b815481529060010190602001808311613f3e57829003601f168201915b50505050509050919050565b60008054905090565b60606006826040518082805190602001908083835b60208310613fa85780518252602082019150602081019050602083039250613f85565b6001836020036101000a03801982511681845116808217855250505050505090500191505090815260200160405180910390206001018054600181600116156101000203166002900480601f0160208091040260200160405190810160405280929190818152602001828054600181600116156101000203166002900480156140725780601f1061404757610100808354040283529160200191614072565b820191906000526020600020905b81548152906001019060200180831161405557829003601f168201915b50505050509050919050565b60606005600260405180828054600181600116156101000203166002900480156140df5780601f106140bd5761010080835404028352918201916140df565b820191906000526020600020905b8154815290600101906020018083116140cb575b505091505090815260200160405180910390206003018054600181600116156101000203166002900480601f0160208091040260200160405190810160405280929190818152602001828054600181600116156101000203166002900480156141895780601f1061415e57610100808354040283529160200191614189565b820191906000526020600020905b81548152906001019060200180831161416c57829003601f168201915b5050505050905090565b60006005826040518082805190602001908083835b602083106141cb57805182526020820191506020810190506020830392506141a8565b6001836020036101000a0380198251168184511680821785525050505050509050019150509081526020016040518091039020600501549050919050565b60606006826040518082805190602001908083835b60208310614241578051825260208201915060208101905060208303925061421e565b6001836020036101000a03801982511681845116808217855250505050505090500191505090815260200160405180910390206006018054600181600116156101000203166002900480601f01602080910402602001604051908101604052809291908181526020018280546001816001161561010002031660029004801561430b5780601f106142e05761010080835404028352916020019161430b565b820191906000526020600020905b8154815290600101906020018083116142ee57829003601f168201915b50505050509050919050565b6000600154905090565b60606005826040518082805190602001908083835b602083106143595780518252602082019150602081019050602083039250614336565b6001836020036101000a03801982511681845116808217855250505050505090500191505090815260200160405180910390206003018054600181600116156101000203166002900480601f0160208091040260200160405190810160405280929190818152602001828054600181600116156101000203166002900480156144235780601f106143f857610100808354040283529160200191614423565b820191906000526020600020905b81548152906001019060200180831161440657829003601f168201915b50505050509050919050565b828054600181600116156101000203166002900490600052602060002090601f016020900481019282601f1061446857805485556144a5565b828001600101855582156144a557600052602060002091601f016020900482015b828111156144a4578254825591600101919060010190614489565b5b5090506144b291906145b6565b5090565b828054600181600116156101000203166002900490600052602060002090601f016020900481019282601f106144f757805160ff1916838001178555614525565b82800160010185558215614525579182015b82811115614524578251825591602001919060010190614509565b5b50905061453291906145b6565b5090565b828054600181600116156101000203166002900490600052602060002090601f016020900481019282601f1061457757805160ff19168380011785556145a5565b828001600101855582156145a5579182015b828111156145a4578251825591602001919060010190614589565b5b5090506145b291906145b6565b5090565b6145d891905b808211156145d45760008160009055506001016145bc565b5090565b9056fea265627a7a72315820b5302e364c42ae3eacbb07f1b83d9da55d642eadda0c04f0130ad60c5ca073ac64736f6c63430005100032",
  "source": "// SPDX-License-Identifier: MIT\npragma solidity >=0.5.16 <8.10.0;\n\ncontract ProvStorage {\n//State Variables\n  uint txNumber_upload = 0;\n  uint txNumber_download = 0;\n  string latest_txHash_upload = \"\";\n  string latest_txHash_download = \"\";\n  string temp_txHash = \"origin\";\n\n// Upload structure\nstruct Upload {\n  //Properties of each upload instance\n  uint txNumber;\n  string ipfsHash;\n  string txHash;\n  string author;\n  string filename;\n  uint timestamp;  \n}\n//Download Structure - Download instances also added to chain\nstruct Download {\n  uint txNumber;\n  string ipfsHash;\n  string txHash;\n  string downloader;\n  string filename;\n  uint timestamp;\n  string IP;\n  //string ip;  need to pull from dapp\n}\n\n//Mappings\nmapping(string => Upload) public uploads;\n//txHash maps to an Upload instance\nmapping(string => Download) public downloads;\n//txHash maps to Download instance too!\n\n//mapping(address => mapping(uint => Upload)) public address_uploads;  //NOT IN USE\n//Uploads can also be mapped to an address (the account of the person who created the upload.)\n\n//--- Upload - Download ---\n\n  function upload(string memory _ipfsHash, string memory _author, string memory _filename, uint _timestamp) public {\n    // Function to set the properties of an upload instance.\n    txNumber_upload = txNumber_upload +1;\n    uploads[temp_txHash] = Upload(txNumber_upload, _ipfsHash, \"empty\", _author, _filename, _timestamp);\n  }\n  \n  function download(string memory _ipfsHash, string memory _filename, uint _time, string memory _downloader, string memory _IP) public {\n    // Function to set the properties of a download instance.\n    txNumber_download = txNumber_download +1;\n    downloads[temp_txHash] = Download(txNumber_download, _ipfsHash, \"empty\", _downloader, _filename, _time, _IP);\n  }\n \n  //function to update txHash with correct value (blockhash) that gets generated after 'upload' is called\n  function updateTxHash_upload(string memory _txHash) public {\n    //set upload instance to have index as transaction hash\n    uploads[_txHash] = uploads[temp_txHash];\n    uploads[_txHash].txHash = _txHash;\n    latest_txHash_upload = _txHash;\n  }\n  //function to update txHash with correct value (blockhash) that gets generated after 'upload' is called\n  function updateTxHash_download(string memory _txHash) public {\n    downloads[_txHash] = downloads[temp_txHash];\n    downloads[_txHash].txHash = _txHash;\n    latest_txHash_download = _txHash;\n  }\n  //-----------------------------------------------\n\n\n  //---------Upload Get latest transaction---------\n  function getTxNumber_up_latest() public view returns (uint){\n    //return the latest transaction number\n    return txNumber_upload;\n  }\n\n  function getIPFS_up_latest() public view returns (string memory){\n    //return the ipfsHash taking transaction ID & msg.sender.\n    return uploads[latest_txHash_upload].ipfsHash;\n    //return getTxHash();\n  }\n\n  function getTxHash_up_latest() public view returns (string memory){\n    //Return transactionHash\n    return uploads[latest_txHash_upload].txHash;\n  }\n\n  function getAuthor_up_latest() public view returns (string memory){\n    //return author based on txNumber and current account.\n    return uploads[latest_txHash_upload].author;\n  }\n\n   function getFileName_up_latest() public view returns (string memory){\n    //return author based on txNumber and current account.\n    return uploads[latest_txHash_upload].filename;\n  }\n  \n   function getTimestamp_up_latest() public view returns (uint){\n    //return author based on txNumber and current account.\n    return uploads[latest_txHash_upload].timestamp;\n  }\n  //-------------------------------------------------------------\n\n//----------- Download Get LATEST ------------------\n  function getTxNumber_down_latest() public view returns (uint){\n    //return the latest transaction number\n    return txNumber_download;\n  }\n\n  function getIPFS_down_latest() public view returns (string memory){\n    return downloads[latest_txHash_download].ipfsHash;\n  }\n\n   function getTxHash_down_latest() public view returns (string memory){\n    return downloads[latest_txHash_download].txHash;\n  }\n\n  function getFileName_down_latest() public view returns (string memory){\n    return downloads[latest_txHash_download].filename;\n  }\n\n  function getTimestamp_down_latest() public view returns (uint){\n    return downloads[latest_txHash_download].timestamp;\n  }\n  function getDownloader_latest() public view returns (string memory){\n    return downloads[latest_txHash_download].downloader;\n  }\n\n  function getIP_down_latest() public view returns (string memory)\n  {\n    return downloads[latest_txHash_download].IP;\n  }\n\n\n  //---------Get upload properties based on txHash ---------\n  function getTxNumber_up(string memory txHash) public view returns (uint){\n    //return the latest transaction number\n    return uploads[txHash].txNumber;\n  }\n  function getIPFS_up(string memory txHash) public view returns (string memory){\n    //Return IPFS Hash of an upload of index 'tXHash'\n    return uploads[txHash].ipfsHash;\n  }\n\n  function getTxHash_up(string memory txHash) public view returns (string memory){\n    //Return transactionHash\n    return uploads[txHash].txHash;\n  }\n\n  function getAuthor_up(string memory txHash) public view returns (string memory){\n    //return author based on txNumber and current account.\n    return uploads[txHash].author;\n  }\n\n   function getFileName_up(string memory txHash) public view returns (string memory){\n    //return author based on txNumber and current account.\n    return uploads[txHash].filename;\n  }\n  \n   function getTimestamp_up(string memory txHash) public view returns (uint){\n    //return author based on txNumber and current account.\n    return uploads[txHash].timestamp;\n  }\n  //-------------------------------------------------------------\n\n  //----------- Download download properties based on txHash ------------------\n  function getTxNumber_down(string memory txHash) public view returns (uint){\n    //return the latest transaction number\n    return downloads[txHash].txNumber;\n  }\n\n  function getIPFS_down(string memory txHash) public view returns (string memory){\n    return downloads[txHash].ipfsHash;\n  }\n\n   function getTxHash_down(string memory txHash) public view returns (string memory){\n    return downloads[txHash].txHash;\n  }\n\n  function getFileName_down(string memory txHash) public view returns (string memory){\n    return downloads[txHash].filename;\n  }\n\n  function getTimestamp_down(string memory txHash) public view returns (uint){\n    return downloads[txHash].timestamp;\n  }\n  function getDownloader(string memory txHash) public view returns (string memory){\n    return downloads[txHash].downloader;\n  }\n  function getIP_down(string memory txHash) public view returns (string memory)\n  {\n    return downloads[txHash].IP;\n  }\n}\n//msg.sender = the address of the acccount currently running contract.\n\n",
  "sourcePath": "/Users/farkasmaro/Documents/ipfs-project/contracts/ProvStorage.sol",
  "compiler": {
    "name": "solc",
    "version": "0.5.16+commit.9c3226ce.Emscripten.clang"
  },
  "schemaVersion": "3.4.3",
  "updatedAt": "2022-04-06T19:37:10.385Z",
  "networkType": "ethereum",
  "devdoc": {
    "methods": {}
  },
  "userdoc": {
    "methods": {}
  }
}