{
  "contractName": "ProvStorage",
  "abi": [
    {
      "constant": true,
      "inputs": [
        {
          "internalType": "uint256",
          "name": "",
          "type": "uint256"
        }
      ],
      "name": "downloads",
      "outputs": [
        {
          "internalType": "uint256",
          "name": "txNumber",
          "type": "uint256"
        },
        {
          "internalType": "string",
          "name": "ipfsHash",
          "type": "string"
        },
        {
          "internalType": "string",
          "name": "txHash",
          "type": "string"
        },
        {
          "internalType": "string",
          "name": "filename",
          "type": "string"
        },
        {
          "internalType": "uint256",
          "name": "timestamp",
          "type": "uint256"
        },
        {
          "internalType": "string",
          "name": "downloader",
          "type": "string"
        }
      ],
      "payable": false,
      "stateMutability": "view",
      "type": "function"
    },
    {
      "constant": true,
      "inputs": [
        {
          "internalType": "uint256",
          "name": "",
          "type": "uint256"
        }
      ],
      "name": "uploads",
      "outputs": [
        {
          "internalType": "uint256",
          "name": "txNumber",
          "type": "uint256"
        },
        {
          "internalType": "string",
          "name": "ipfsHash",
          "type": "string"
        },
        {
          "internalType": "string",
          "name": "txHash",
          "type": "string"
        },
        {
          "internalType": "string",
          "name": "author",
          "type": "string"
        },
        {
          "internalType": "string",
          "name": "filename",
          "type": "string"
        },
        {
          "internalType": "uint256",
          "name": "timestamp",
          "type": "uint256"
        }
      ],
      "payable": false,
      "stateMutability": "view",
      "type": "function"
    },
    {
      "constant": true,
      "inputs": [
        {
          "internalType": "string",
          "name": "",
          "type": "string"
        }
      ],
      "name": "uploads_t",
      "outputs": [
        {
          "internalType": "uint256",
          "name": "txNumber",
          "type": "uint256"
        },
        {
          "internalType": "string",
          "name": "ipfsHash",
          "type": "string"
        },
        {
          "internalType": "string",
          "name": "txHash",
          "type": "string"
        },
        {
          "internalType": "string",
          "name": "author",
          "type": "string"
        },
        {
          "internalType": "string",
          "name": "filename",
          "type": "string"
        },
        {
          "internalType": "uint256",
          "name": "timestamp",
          "type": "uint256"
        }
      ],
      "payable": false,
      "stateMutability": "view",
      "type": "function"
    },
    {
      "constant": false,
      "inputs": [
        {
          "internalType": "string",
          "name": "_ipfsHash",
          "type": "string"
        },
        {
          "internalType": "string",
          "name": "_author",
          "type": "string"
        },
        {
          "internalType": "string",
          "name": "_filename",
          "type": "string"
        },
        {
          "internalType": "uint256",
          "name": "_timestamp",
          "type": "uint256"
        }
      ],
      "name": "upload",
      "outputs": [],
      "payable": false,
      "stateMutability": "nonpayable",
      "type": "function"
    },
    {
      "constant": false,
      "inputs": [
        {
          "internalType": "string",
          "name": "_ipfsHash",
          "type": "string"
        },
        {
          "internalType": "string",
          "name": "_filename",
          "type": "string"
        },
        {
          "internalType": "uint256",
          "name": "_time",
          "type": "uint256"
        },
        {
          "internalType": "string",
          "name": "_downloader",
          "type": "string"
        }
      ],
      "name": "download",
      "outputs": [],
      "payable": false,
      "stateMutability": "nonpayable",
      "type": "function"
    },
    {
      "constant": false,
      "inputs": [
        {
          "internalType": "string",
          "name": "_txHash",
          "type": "string"
        }
      ],
      "name": "updateTxHash",
      "outputs": [],
      "payable": false,
      "stateMutability": "nonpayable",
      "type": "function"
    },
    {
      "constant": true,
      "inputs": [],
      "name": "getTxNumber",
      "outputs": [
        {
          "internalType": "uint256",
          "name": "",
          "type": "uint256"
        }
      ],
      "payable": false,
      "stateMutability": "view",
      "type": "function"
    },
    {
      "constant": true,
      "inputs": [],
      "name": "getIPFS",
      "outputs": [
        {
          "internalType": "string",
          "name": "",
          "type": "string"
        }
      ],
      "payable": false,
      "stateMutability": "view",
      "type": "function"
    },
    {
      "constant": true,
      "inputs": [],
      "name": "getTxHash",
      "outputs": [
        {
          "internalType": "string",
          "name": "",
          "type": "string"
        }
      ],
      "payable": false,
      "stateMutability": "view",
      "type": "function"
    },
    {
      "constant": true,
      "inputs": [],
      "name": "getAuthor",
      "outputs": [
        {
          "internalType": "string",
          "name": "",
          "type": "string"
        }
      ],
      "payable": false,
      "stateMutability": "view",
      "type": "function"
    },
    {
      "constant": true,
      "inputs": [],
      "name": "getFileName",
      "outputs": [
        {
          "internalType": "string",
          "name": "",
          "type": "string"
        }
      ],
      "payable": false,
      "stateMutability": "view",
      "type": "function"
    },
    {
      "constant": true,
      "inputs": [],
      "name": "getTimestamp",
      "outputs": [
        {
          "internalType": "uint256",
          "name": "",
          "type": "uint256"
        }
      ],
      "payable": false,
      "stateMutability": "view",
      "type": "function"
    },
    {
      "constant": true,
      "inputs": [],
      "name": "getIPFS_t",
      "outputs": [
        {
          "internalType": "string",
          "name": "",
          "type": "string"
        }
      ],
      "payable": false,
      "stateMutability": "view",
      "type": "function"
    },
    {
      "constant": true,
      "inputs": [],
      "name": "getTxHash_t",
      "outputs": [
        {
          "internalType": "string",
          "name": "",
          "type": "string"
        }
      ],
      "payable": false,
      "stateMutability": "view",
      "type": "function"
    },
    {
      "constant": true,
      "inputs": [],
      "name": "getAuthor_t",
      "outputs": [
        {
          "internalType": "string",
          "name": "",
          "type": "string"
        }
      ],
      "payable": false,
      "stateMutability": "view",
      "type": "function"
    },
    {
      "constant": true,
      "inputs": [],
      "name": "getFileName_t",
      "outputs": [
        {
          "internalType": "string",
          "name": "",
          "type": "string"
        }
      ],
      "payable": false,
      "stateMutability": "view",
      "type": "function"
    },
    {
      "constant": true,
      "inputs": [],
      "name": "getTimestamp_t",
      "outputs": [
        {
          "internalType": "uint256",
          "name": "",
          "type": "uint256"
        }
      ],
      "payable": false,
      "stateMutability": "view",
      "type": "function"
    },
    {
      "constant": false,
      "inputs": [
        {
          "internalType": "string",
          "name": "_txHash",
          "type": "string"
        }
      ],
      "name": "updateTxHash_download",
      "outputs": [],
      "payable": false,
      "stateMutability": "nonpayable",
      "type": "function"
    },
    {
      "constant": true,
      "inputs": [],
      "name": "getTxNumber_down",
      "outputs": [
        {
          "internalType": "uint256",
          "name": "",
          "type": "uint256"
        }
      ],
      "payable": false,
      "stateMutability": "view",
      "type": "function"
    },
    {
      "constant": true,
      "inputs": [],
      "name": "getIPFS_down",
      "outputs": [
        {
          "internalType": "string",
          "name": "",
          "type": "string"
        }
      ],
      "payable": false,
      "stateMutability": "view",
      "type": "function"
    },
    {
      "constant": true,
      "inputs": [],
      "name": "getTxHash_down",
      "outputs": [
        {
          "internalType": "string",
          "name": "",
          "type": "string"
        }
      ],
      "payable": false,
      "stateMutability": "view",
      "type": "function"
    },
    {
      "constant": true,
      "inputs": [],
      "name": "getFileName_down",
      "outputs": [
        {
          "internalType": "string",
          "name": "",
          "type": "string"
        }
      ],
      "payable": false,
      "stateMutability": "view",
      "type": "function"
    },
    {
      "constant": true,
      "inputs": [],
      "name": "getTimestamp_down",
      "outputs": [
        {
          "internalType": "uint256",
          "name": "",
          "type": "uint256"
        }
      ],
      "payable": false,
      "stateMutability": "view",
      "type": "function"
    },
    {
      "constant": true,
      "inputs": [],
      "name": "getDownloader",
      "outputs": [
        {
          "internalType": "string",
          "name": "",
          "type": "string"
        }
      ],
      "payable": false,
      "stateMutability": "view",
      "type": "function"
    }
  ],
  "bytecode": "0x6080604052600080556000600155604051806020016040528060008152506002908051906020019062000034929190620000bf565b5060405180602001604052806000815250600390805190602001906200005c929190620000bf565b506040518060400160405280600681526020017f6f726967696e000000000000000000000000000000000000000000000000000081525060049080519060200190620000aa929190620000bf565b50348015620000b857600080fd5b506200016e565b828054600181600116156101000203166002900490600052602060002090601f016020900481019282601f106200010257805160ff191683800117855562000133565b8280016001018555821562000133579182015b828111156200013257825182559160200191906001019062000115565b5b50905062000142919062000146565b5090565b6200016b91905b80821115620001675760008160009055506001016200014d565b5090565b90565b612ef5806200017e6000396000f3fe608060405234801561001057600080fd5b50600436106101585760003560e01c8063abaa2935116100c3578063c32602591161007c578063c326025914610fc8578063c933297a1461104b578063da095745146110ce578063f963f058146110ec578063fbfecaa31461116f578063fcf6c23c1461136857610158565b8063abaa293514610b3b578063abd5311514610b59578063b39f9fbe14610c14578063b68325d014610c97578063bf7594c314610e8a578063c1af68c514610f0d57610158565b8063774262b511610115578063774262b5146105a857806381d41c951461062b578063847c63cb1461081e57806387de74a8146108a15780639fd50b2d146108bf578063a5faa12514610ab857610158565b8063188ec3561461015d5780631f28badd1461017b57806327f22e5c14610401578063285a448d146104845780634efe2d1e146105075780636d73c7c11461058a575b600080fd5b6101656113eb565b6040518082815260200191505060405180910390f35b6102346004803603602081101561019157600080fd5b81019080803590602001906401000000008111156101ae57600080fd5b8201836020820111156101c057600080fd5b803590602001918460018302840111640100000000831117156101e257600080fd5b91908080601f016020809104026020016040519081016040528093929190818152602001838380828437600081840152601f19601f82011690508083019250505050505050919291929050505061140a565b604051808781526020018060200180602001806020018060200186815260200185810385528a818151815260200191508051906020019080838360005b8381101561028c578082015181840152602081019050610271565b50505050905090810190601f1680156102b95780820380516001836020036101000a031916815260200191505b50858103845289818151815260200191508051906020019080838360005b838110156102f25780820151818401526020810190506102d7565b50505050905090810190601f16801561031f5780820380516001836020036101000a031916815260200191505b50858103835288818151815260200191508051906020019080838360005b8381101561035857808201518184015260208101905061033d565b50505050905090810190601f1680156103855780820380516001836020036101000a031916815260200191505b50858103825287818151815260200191508051906020019080838360005b838110156103be5780820151818401526020810190506103a3565b50505050905090810190601f1680156103eb5780820380516001836020036101000a031916815260200191505b509a505050505050505050505060405180910390f35b6104096116bc565b6040518080602001828103825283818151815260200191508051906020019080838360005b8381101561044957808201518184015260208101905061042e565b50505050905090810190601f1680156104765780820380516001836020036101000a031916815260200191505b509250505060405180910390f35b61048c611774565b6040518080602001828103825283818151815260200191508051906020019080838360005b838110156104cc5780820151818401526020810190506104b1565b50505050905090810190601f1680156104f95780820380516001836020036101000a031916815260200191505b509250505060405180910390f35b61050f61182b565b6040518080602001828103825283818151815260200191508051906020019080838360005b8381101561054f578082015181840152602081019050610534565b50505050905090810190601f16801561057c5780820380516001836020036101000a031916815260200191505b509250505060405180910390f35b6105926118e2565b6040518082815260200191505060405180910390f35b6105b06118ec565b6040518080602001828103825283818151815260200191508051906020019080838360005b838110156105f05780820151818401526020810190506105d5565b50505050905090810190601f16801561061d5780820380516001836020036101000a031916815260200191505b509250505060405180910390f35b61081c6004803603608081101561064157600080fd5b810190808035906020019064010000000081111561065e57600080fd5b82018360208201111561067057600080fd5b8035906020019184600183028401116401000000008311171561069257600080fd5b91908080601f016020809104026020016040519081016040528093929190818152602001838380828437600081840152601f19601f820116905080830192505050505050509192919290803590602001906401000000008111156106f557600080fd5b82018360208201111561070757600080fd5b8035906020019184600183028401116401000000008311171561072957600080fd5b91908080601f016020809104026020016040519081016040528093929190818152602001838380828437600081840152601f19601f8201169050808301925050505050505091929192908035906020019064010000000081111561078c57600080fd5b82018360208201111561079e57600080fd5b803590602001918460018302840111640100000000831117156107c057600080fd5b91908080601f016020809104026020016040519081016040528093929190818152602001838380828437600081840152601f19601f820116905080830192505050505050509192919290803590602001909291905050506119a4565b005b610826611c4f565b6040518080602001828103825283818151815260200191508051906020019080838360005b8381101561086657808201518184015260208101905061084b565b50505050905090810190601f1680156108935780820380516001836020036101000a031916815260200191505b509250505060405180910390f35b6108a9611d64565b6040518082815260200191505060405180910390f35b6108eb600480360360208110156108d557600080fd5b8101908080359060200190929190505050611d84565b604051808781526020018060200180602001806020018681526020018060200185810385528a818151815260200191508051906020019080838360005b83811015610943578082015181840152602081019050610928565b50505050905090810190601f1680156109705780820380516001836020036101000a031916815260200191505b50858103845289818151815260200191508051906020019080838360005b838110156109a957808201518184015260208101905061098e565b50505050905090810190601f1680156109d65780820380516001836020036101000a031916815260200191505b50858103835288818151815260200191508051906020019080838360005b83811015610a0f5780820151818401526020810190506109f4565b50505050905090810190601f168015610a3c5780820380516001836020036101000a031916815260200191505b50858103825286818151815260200191508051906020019080838360005b83811015610a75578082015181840152602081019050610a5a565b50505050905090810190601f168015610aa25780820380516001836020036101000a031916815260200191505b509a505050505050505050505060405180910390f35b610ac0612020565b6040518080602001828103825283818151815260200191508051906020019080838360005b83811015610b00578082015181840152602081019050610ae5565b50505050905090810190601f168015610b2d5780820380516001836020036101000a031916815260200191505b509250505060405180910390f35b610b436120d7565b6040518082815260200191505060405180910390f35b610c1260048036036020811015610b6f57600080fd5b8101908080359060200190640100000000811115610b8c57600080fd5b820183602082011115610b9e57600080fd5b80359060200191846001830284011164010000000083111715610bc057600080fd5b91908080601f016020809104026020016040519081016040528093929190818152602001838380828437600081840152601f19601f8201169050808301925050505050505091929192905050506120e0565b005b610c1c612339565b6040518080602001828103825283818151815260200191508051906020019080838360005b83811015610c5c578082015181840152602081019050610c41565b50505050905090810190601f168015610c895780820380516001836020036101000a031916815260200191505b509250505060405180910390f35b610e8860048036036080811015610cad57600080fd5b8101908080359060200190640100000000811115610cca57600080fd5b820183602082011115610cdc57600080fd5b80359060200191846001830284011164010000000083111715610cfe57600080fd5b91908080601f016020809104026020016040519081016040528093929190818152602001838380828437600081840152601f19601f82011690508083019250505050505050919291929080359060200190640100000000811115610d6157600080fd5b820183602082011115610d7357600080fd5b80359060200191846001830284011164010000000083111715610d9557600080fd5b91908080601f016020809104026020016040519081016040528093929190818152602001838380828437600081840152601f19601f8201169050808301925050505050505091929192908035906020019092919080359060200190640100000000811115610e0257600080fd5b820183602082011115610e1457600080fd5b80359060200191846001830284011164010000000083111715610e3657600080fd5b91908080601f016020809104026020016040519081016040528093929190818152602001838380828437600081840152601f19601f82011690508083019250505050505050919291929050505061244e565b005b610e92612563565b6040518080602001828103825283818151815260200191508051906020019080838360005b83811015610ed2578082015181840152602081019050610eb7565b50505050905090810190601f168015610eff5780820380516001836020036101000a031916815260200191505b509250505060405180910390f35b610fc660048036036020811015610f2357600080fd5b8101908080359060200190640100000000811115610f4057600080fd5b820183602082011115610f5257600080fd5b80359060200191846001830284011164010000000083111715610f7457600080fd5b91908080601f016020809104026020016040519081016040528093929190818152602001838380828437600081840152601f19601f820116905080830192505050505050509192919290505050612678565b005b610fd06126bf565b6040518080602001828103825283818151815260200191508051906020019080838360005b83811015611010578082015181840152602081019050610ff5565b50505050905090810190601f16801561103d5780820380516001836020036101000a031916815260200191505b509250505060405180910390f35b611053612777565b6040518080602001828103825283818151815260200191508051906020019080838360005b83811015611093578082015181840152602081019050611078565b50505050905090810190601f1680156110c05780820380516001836020036101000a031916815260200191505b509250505060405180910390f35b6110d661288c565b6040518082815260200191505060405180910390f35b6110f4612909565b6040518080602001828103825283818151815260200191508051906020019080838360005b83811015611134578082015181840152602081019050611119565b50505050905090810190601f1680156111615780820380516001836020036101000a031916815260200191505b509250505060405180910390f35b61119b6004803603602081101561118557600080fd5b81019080803590602001909291905050506129c1565b604051808781526020018060200180602001806020018060200186815260200185810385528a818151815260200191508051906020019080838360005b838110156111f35780820151818401526020810190506111d8565b50505050905090810190601f1680156112205780820380516001836020036101000a031916815260200191505b50858103845289818151815260200191508051906020019080838360005b8381101561125957808201518184015260208101905061123e565b50505050905090810190601f1680156112865780820380516001836020036101000a031916815260200191505b50858103835288818151815260200191508051906020019080838360005b838110156112bf5780820151818401526020810190506112a4565b50505050905090810190601f1680156112ec5780820380516001836020036101000a031916815260200191505b50858103825287818151815260200191508051906020019080838360005b8381101561132557808201518184015260208101905061130a565b50505050905090810190601f1680156113525780820380516001836020036101000a031916815260200191505b509a505050505050505050505060405180910390f35b611370612c5d565b6040518080602001828103825283818151815260200191508051906020019080838360005b838110156113b0578082015181840152602081019050611395565b50505050905090810190601f1680156113dd5780820380516001836020036101000a031916815260200191505b509250505060405180910390f35b6000600560008054815260200190815260200160002060050154905090565b600681805160208101820180518482526020830160208501208183528095505050505050600091509050806000015490806001018054600181600116156101000203166002900480601f0160208091040260200160405190810160405280929190818152602001828054600181600116156101000203166002900480156114d25780601f106114a7576101008083540402835291602001916114d2565b820191906000526020600020905b8154815290600101906020018083116114b557829003601f168201915b505050505090806002018054600181600116156101000203166002900480601f0160208091040260200160405190810160405280929190818152602001828054600181600116156101000203166002900480156115705780601f1061154557610100808354040283529160200191611570565b820191906000526020600020905b81548152906001019060200180831161155357829003601f168201915b505050505090806003018054600181600116156101000203166002900480601f01602080910402602001604051908101604052809291908181526020018280546001816001161561010002031660029004801561160e5780601f106115e35761010080835404028352916020019161160e565b820191906000526020600020905b8154815290600101906020018083116115f157829003601f168201915b505050505090806004018054600181600116156101000203166002900480601f0160208091040260200160405190810160405280929190818152602001828054600181600116156101000203166002900480156116ac5780601f10611681576101008083540402835291602001916116ac565b820191906000526020600020905b81548152906001019060200180831161168f57829003601f168201915b5050505050908060050154905086565b60606007600060015481526020019081526020016000206002018054600181600116156101000203166002900480601f01602080910402602001604051908101604052809291908181526020018280546001816001161561010002031660029004801561176a5780601f1061173f5761010080835404028352916020019161176a565b820191906000526020600020905b81548152906001019060200180831161174d57829003601f168201915b5050505050905090565b606060056000805481526020019081526020016000206002018054600181600116156101000203166002900480601f0160208091040260200160405190810160405280929190818152602001828054600181600116156101000203166002900480156118215780601f106117f657610100808354040283529160200191611821565b820191906000526020600020905b81548152906001019060200180831161180457829003601f168201915b5050505050905090565b606060056000805481526020019081526020016000206001018054600181600116156101000203166002900480601f0160208091040260200160405190810160405280929190818152602001828054600181600116156101000203166002900480156118d85780601f106118ad576101008083540402835291602001916118d8565b820191906000526020600020905b8154815290600101906020018083116118bb57829003601f168201915b5050505050905090565b6000600154905090565b60606007600060015481526020019081526020016000206005018054600181600116156101000203166002900480601f01602080910402602001604051908101604052809291908181526020018280546001816001161561010002031660029004801561199a5780601f1061196f5761010080835404028352916020019161199a565b820191906000526020600020905b81548152906001019060200180831161197d57829003601f168201915b5050505050905090565b6001600054016000819055506040518060c0016040528060005481526020018581526020016040518060400160405280600581526020017f656d7074790000000000000000000000000000000000000000000000000000008152508152602001848152602001838152602001828152506005600080548152602001908152602001600020600082015181600001556020820151816001019080519060200190611a4e929190612d14565b506040820151816002019080519060200190611a6b929190612d14565b506060820151816003019080519060200190611a88929190612d14565b506080820151816004019080519060200190611aa5929190612d14565b5060a082015181600501559050506040518060c0016040528060005481526020018581526020016040518060400160405280600581526020017f656d70747900000000000000000000000000000000000000000000000000000081525081526020016040518060400160405280600a81526020017f7468697320776f726b7300000000000000000000000000000000000000000000815250815260200183815260200182815250600660046040518082805460018160011615610100020316600290048015611bab5780601f10611b89576101008083540402835291820191611bab565b820191906000526020600020905b815481529060010190602001808311611b97575b50509150509081526020016040518091039020600082015181600001556020820151816001019080519060200190611be4929190612d14565b506040820151816002019080519060200190611c01929190612d14565b506060820151816003019080519060200190611c1e929190612d14565b506080820151816004019080519060200190611c3b929190612d14565b5060a0820151816005015590505050505050565b6060600660026040518082805460018160011615610100020316600290048015611cb05780601f10611c8e576101008083540402835291820191611cb0565b820191906000526020600020905b815481529060010190602001808311611c9c575b505091505090815260200160405180910390206001018054600181600116156101000203166002900480601f016020809104026020016040519081016040528092919081815260200182805460018160011615610100020316600290048015611d5a5780601f10611d2f57610100808354040283529160200191611d5a565b820191906000526020600020905b815481529060010190602001808311611d3d57829003601f168201915b5050505050905090565b600060076000600154815260200190815260200160002060040154905090565b6007602052806000526040600020600091509050806000015490806001018054600181600116156101000203166002900480601f016020809104026020016040519081016040528092919081815260200182805460018160011615610100020316600290048015611e365780601f10611e0b57610100808354040283529160200191611e36565b820191906000526020600020905b815481529060010190602001808311611e1957829003601f168201915b505050505090806002018054600181600116156101000203166002900480601f016020809104026020016040519081016040528092919081815260200182805460018160011615610100020316600290048015611ed45780601f10611ea957610100808354040283529160200191611ed4565b820191906000526020600020905b815481529060010190602001808311611eb757829003601f168201915b505050505090806003018054600181600116156101000203166002900480601f016020809104026020016040519081016040528092919081815260200182805460018160011615610100020316600290048015611f725780601f10611f4757610100808354040283529160200191611f72565b820191906000526020600020905b815481529060010190602001808311611f5557829003601f168201915b505050505090806004015490806005018054600181600116156101000203166002900480601f0160208091040260200160405190810160405280929190818152602001828054600181600116156101000203166002900480156120165780601f10611feb57610100808354040283529160200191612016565b820191906000526020600020905b815481529060010190602001808311611ff957829003601f168201915b5050505050905086565b606060056000805481526020019081526020016000206003018054600181600116156101000203166002900480601f0160208091040260200160405190810160405280929190818152602001828054600181600116156101000203166002900480156120cd5780601f106120a2576101008083540402835291602001916120cd565b820191906000526020600020905b8154815290600101906020018083116120b057829003601f168201915b5050505050905090565b60008054905090565b806005600080548152602001908152602001600020600201908051906020019061210b929190612d94565b5060066004604051808280546001816001161561010002031660029004801561216b5780601f1061214957610100808354040283529182019161216b565b820191906000526020600020905b815481529060010190602001808311612157575b505091505090815260200160405180910390206006826040518082805190602001908083835b602083106121b45780518252602082019150602081019050602083039250612191565b6001836020036101000a03801982511681845116808217855250505050505090500191505090815260200160405180910390206000820154816000015560018201816001019080546001816001161561010002031660029004612218929190612e14565b5060028201816002019080546001816001161561010002031660029004612240929190612e14565b5060038201816003019080546001816001161561010002031660029004612268929190612e14565b5060048201816004019080546001816001161561010002031660029004612290929190612e14565b5060058201548160050155905050806006826040518082805190602001908083835b602083106122d557805182526020820191506020810190506020830392506122b2565b6001836020036101000a0380198251168184511680821785525050505050509050019150509081526020016040518091039020600201908051906020019061231e929190612d94565b508060029080519060200190612335929190612d94565b5050565b606060066002604051808280546001816001161561010002031660029004801561239a5780601f1061237857610100808354040283529182019161239a565b820191906000526020600020905b815481529060010190602001808311612386575b505091505090815260200160405180910390206002018054600181600116156101000203166002900480601f0160208091040260200160405190810160405280929190818152602001828054600181600116156101000203166002900480156124445780601f1061241957610100808354040283529160200191612444565b820191906000526020600020905b81548152906001019060200180831161242757829003601f168201915b5050505050905090565b60018054016001819055506040518060c0016040528060005481526020018581526020016040518060400160405280600581526020017f656d7074790000000000000000000000000000000000000000000000000000008152508152602001848152602001838152602001828152506007600060015481526020019081526020016000206000820151816000015560208201518160010190805190602001906124f8929190612d14565b506040820151816002019080519060200190612515929190612d14565b506060820151816003019080519060200190612532929190612d14565b506080820151816004015560a0820151816005019080519060200190612559929190612d14565b5090505050505050565b60606006600260405180828054600181600116156101000203166002900480156125c45780601f106125a25761010080835404028352918201916125c4565b820191906000526020600020905b8154815290600101906020018083116125b0575b505091505090815260200160405180910390206004018054600181600116156101000203166002900480601f01602080910402602001604051908101604052809291908181526020018280546001816001161561010002031660029004801561266e5780601f106126435761010080835404028352916020019161266e565b820191906000526020600020905b81548152906001019060200180831161265157829003601f168201915b5050505050905090565b8060076000600154815260200190815260200160002060020190805190602001906126a4929190612d94565b5080600390805190602001906126bb929190612d94565b5050565b60606007600060015481526020019081526020016000206001018054600181600116156101000203166002900480601f01602080910402602001604051908101604052809291908181526020018280546001816001161561010002031660029004801561276d5780601f106127425761010080835404028352916020019161276d565b820191906000526020600020905b81548152906001019060200180831161275057829003601f168201915b5050505050905090565b60606006600260405180828054600181600116156101000203166002900480156127d85780601f106127b65761010080835404028352918201916127d8565b820191906000526020600020905b8154815290600101906020018083116127c4575b505091505090815260200160405180910390206003018054600181600116156101000203166002900480601f0160208091040260200160405190810160405280929190818152602001828054600181600116156101000203166002900480156128825780601f1061285757610100808354040283529160200191612882565b820191906000526020600020905b81548152906001019060200180831161286557829003601f168201915b5050505050905090565b60006006600260405180828054600181600116156101000203166002900480156128ed5780601f106128cb5761010080835404028352918201916128ed565b820191906000526020600020905b8154815290600101906020018083116128d9575b5050915050908152602001604051809103902060050154905090565b60606007600060015481526020019081526020016000206003018054600181600116156101000203166002900480601f0160208091040260200160405190810160405280929190818152602001828054600181600116156101000203166002900480156129b75780601f1061298c576101008083540402835291602001916129b7565b820191906000526020600020905b81548152906001019060200180831161299a57829003601f168201915b5050505050905090565b6005602052806000526040600020600091509050806000015490806001018054600181600116156101000203166002900480601f016020809104026020016040519081016040528092919081815260200182805460018160011615610100020316600290048015612a735780601f10612a4857610100808354040283529160200191612a73565b820191906000526020600020905b815481529060010190602001808311612a5657829003601f168201915b505050505090806002018054600181600116156101000203166002900480601f016020809104026020016040519081016040528092919081815260200182805460018160011615610100020316600290048015612b115780601f10612ae657610100808354040283529160200191612b11565b820191906000526020600020905b815481529060010190602001808311612af457829003601f168201915b505050505090806003018054600181600116156101000203166002900480601f016020809104026020016040519081016040528092919081815260200182805460018160011615610100020316600290048015612baf5780601f10612b8457610100808354040283529160200191612baf565b820191906000526020600020905b815481529060010190602001808311612b9257829003601f168201915b505050505090806004018054600181600116156101000203166002900480601f016020809104026020016040519081016040528092919081815260200182805460018160011615610100020316600290048015612c4d5780601f10612c2257610100808354040283529160200191612c4d565b820191906000526020600020905b815481529060010190602001808311612c3057829003601f168201915b5050505050908060050154905086565b606060056000805481526020019081526020016000206004018054600181600116156101000203166002900480601f016020809104026020016040519081016040528092919081815260200182805460018160011615610100020316600290048015612d0a5780601f10612cdf57610100808354040283529160200191612d0a565b820191906000526020600020905b815481529060010190602001808311612ced57829003601f168201915b5050505050905090565b828054600181600116156101000203166002900490600052602060002090601f016020900481019282601f10612d5557805160ff1916838001178555612d83565b82800160010185558215612d83579182015b82811115612d82578251825591602001919060010190612d67565b5b509050612d909190612e9b565b5090565b828054600181600116156101000203166002900490600052602060002090601f016020900481019282601f10612dd557805160ff1916838001178555612e03565b82800160010185558215612e03579182015b82811115612e02578251825591602001919060010190612de7565b5b509050612e109190612e9b565b5090565b828054600181600116156101000203166002900490600052602060002090601f016020900481019282601f10612e4d5780548555612e8a565b82800160010185558215612e8a57600052602060002091601f016020900482015b82811115612e89578254825591600101919060010190612e6e565b5b509050612e979190612e9b565b5090565b612ebd91905b80821115612eb9576000816000905550600101612ea1565b5090565b9056fea265627a7a72315820bfd90db72082806f0700d7eaf2dd68c98cd61ded82b530b7e7a9e43cc7b42e9f64736f6c63430005100032",
  "source": "// SPDX-License-Identifier: MIT\npragma solidity >=0.5.16 <8.10.0;\n\ncontract ProvStorage {\n//Global variables storing latest transaction count.\n  uint txNumber_upload = 0;\n  uint txNumber_download = 0;\n  string latest_txHash_upload = \"\";\n  string latest_txHash_download = \"\";\n\n  string temp_txHash = \"origin\";\n\n// Upload structure\nstruct Upload {\n  //struct for each upload instance\n  uint txNumber;\n  string ipfsHash;\n  string txHash;\n  string author;\n  string filename;\n  uint timestamp;  \n}\n//Download Structure - Download instances also added to chain\nstruct Download {\n  uint txNumber;\n  string ipfsHash;\n  string txHash;\n  string filename;\n  uint timestamp;\n  string downloader;\n  //string ip;  need to pull from dapp\n}\n\n//Mappings\nmapping(uint => Upload) public uploads;\nmapping(string => Upload) public uploads_t;\n//txNumber maps to an Upload instance\nmapping(uint => Download) public downloads;\n//txNumber_downloads maps to Download instance?\n\n//mapping(address => mapping(uint => Upload)) public address_uploads;  //NOT IN USE\n//Uploads can also be mapped to an address (the account of the person who created the upload.)\n\n\n//Conversion functions:\n/*\nfunction bytes32ToString(bytes32 _bytes32) public pure returns (string memory) {\n  //From: https://ethereum.stackexchange.com/questions/2519/how-to-convert-a-bytes32-to-string\n\nfunction uint2str(uint _i) internal pure returns (string memory _uintAsString) {\n  //From: https://stackoverflow.com/questions/47129173/how-to-convert-uint-to-string-in-solidity\n*/\n//DateUtils- https://github.com/SkeletonCodeworks/DateUtils \n\n//------------------------------------------------------------------------\n//--- Upload - Download ---\n\n  function upload(string memory _ipfsHash, string memory _author, string memory _filename, uint _timestamp) public {\n    //associate an upload with address and create the instance\n    txNumber_upload = txNumber_upload +1;\n    //address_uploads[msg.sender][txNumber] = Upload(_ipfsHash, txHash, _author, _filename, _timestamp);\n    uploads[txNumber_upload] = Upload(txNumber_upload, _ipfsHash, \"empty\" , _author, _filename, _timestamp);  \n    uploads_t[temp_txHash] = Upload(txNumber_upload, _ipfsHash, \"empty\", \"this works\", _filename, _timestamp);\n  }\n  \n  function download(string memory _ipfsHash, string memory _filename, uint _time, string memory _downloader) public {\n    txNumber_download = txNumber_download +1;\n    downloads[txNumber_download] = Download(txNumber_upload,_ipfsHash, \"empty\", _filename, _time, _downloader);\n  }\n  //----- Conditional Getters ----------\n  // Function can only return one variable in Solidity, \n  // returning entire transaction as a string instead. \n  /*\n  function append(string memory a, string memory b, string memory c, string memory d, string memory e, string memory f) internal pure returns (string memory) {\n\n    return string(abi.encodePacked(a, b, c, d, e, f));\n  }\n\n  function getUploadByTxNumber(uint txNum) public view returns (string memory){\n    //storage or memory?\n    string memory a = uint2str(txNum);\n    string memory b = uploads[txNum].ipfsHash;\n    string memory c = bytes32ToString(uploads[txNum].txHash); //need to convert to string\n    string memory d = uploads[txNum].author;\n    string memory e = uploads[txNum].filename;\n    string memory f = uint2str(uploads[txNum].timestamp);  \n    //Solidity does not let you concat strings. \n    //return \"Transaction Type: UPLOAD\\nTransaction count: \" + a + \"\\nIPFS Hash: \" + b + \"\\nTrasanction Hash: \" + c + \"\\nAuthor: \" + d + \"\\nFilename: \" + e + \"\\nTimestamp (unix): \" + f;\n    return append(a,b,c,d,e,f);\n  }\n  */\n  //function to update txHash with correct value (blockhash) that gets generated after 'upload' is called\n  function updateTxHash(string memory _txHash) public {\n    uploads[txNumber_upload].txHash = _txHash;\n    //set upload instance to have index as transaction hash\n    uploads_t[_txHash] = uploads_t[temp_txHash];\n    uploads_t[_txHash].txHash = _txHash;\n    latest_txHash_upload = _txHash;\n  }\n\n  //---------Upload Get---------\n  function getTxNumber() public view returns (uint){\n    //return the latest transaction number\n    return txNumber_upload;\n  }\n\n  function getIPFS() public view returns (string memory){\n    //return the ipfsHash taking transaction ID & msg.sender.\n    //return address_uploads[msg.sender][txNumber].ipfsHash;\n    return uploads[txNumber_upload].ipfsHash;\n    //return getTxHash();\n  }\n\n  function getTxHash() public view returns (string memory){\n    //Return transactionHash\n    //return address_uploads[msg.sender][txNumber].txHash;\n    return uploads[txNumber_upload].txHash;\n  }\n\n  function getAuthor() public view returns (string memory){\n    //return author based on txNumber and current account.\n    //return address_uploads[msg.sender][txNumber].author;\n    return uploads[txNumber_upload].author;\n  }\n\n   function getFileName() public view returns (string memory){\n    //return author based on txNumber and current account.\n    //return address_uploads[msg.sender][txNumber].filename;\n    return uploads[txNumber_upload].filename;\n  }\n  \n   function getTimestamp() public view returns (uint){\n    //return author based on txNumber and current account.\n    //return address_uploads[msg.sender][txNumber].timestamp;\n    return uploads[txNumber_upload].timestamp;\n  }\n  //-------------------------------------------------------------\n\n  //----- test getters for transaction hash -----\n\n function getIPFS_t() public view returns (string memory){\n    return uploads_t[latest_txHash_upload].ipfsHash;\n  }\n\n  function getTxHash_t() public view returns (string memory){\n    return uploads_t[latest_txHash_upload].txHash;\n  }\n\n  function getAuthor_t() public view returns (string memory){\n    return uploads_t[latest_txHash_upload].author;\n  }\n\n   function getFileName_t() public view returns (string memory){\n    return uploads_t[latest_txHash_upload].filename;\n  }\n  \n   function getTimestamp_t() public view returns (uint){\n    return uploads_t[latest_txHash_upload].timestamp;\n   }\n\n  //-----\n\n  //function to update txHash with correct value (blockhash) that gets generated after 'upload' is called\n  function updateTxHash_download(string memory _txHash) public {\n    downloads[txNumber_download].txHash = _txHash;\n    latest_txHash_download = _txHash;\n  }\n//----------- Download Get LATEST ------------------\n  function getTxNumber_down() public view returns (uint){\n    //return the latest transaction number\n    return txNumber_download;\n  }\n\n  function getIPFS_down() public view returns (string memory){\n    return downloads[txNumber_download].ipfsHash;\n  }\n\n   function getTxHash_down() public view returns (string memory){\n    return downloads[txNumber_download].txHash;\n  }\n\n  function getFileName_down() public view returns (string memory){\n    return downloads[txNumber_download].filename;\n  }\n\n  function getTimestamp_down() public view returns (uint){\n    return downloads[txNumber_download].timestamp;\n  }\n  function getDownloader() public view returns (string memory){\n    return downloads[txNumber_download].downloader;\n  }\n}\n\n//msg.sender = the address of the acccount currently running contract.",
  "sourcePath": "/Users/farkasmaro/Documents/ipfs-project/contracts/ProvStorage.sol",
  "compiler": {
    "name": "solc",
    "version": "0.5.16+commit.9c3226ce.Emscripten.clang"
  },
  "schemaVersion": "3.4.3",
  "updatedAt": "2022-03-25T16:01:24.607Z",
  "networkType": "ethereum",
  "devdoc": {
    "methods": {}
  },
  "userdoc": {
    "methods": {}
  }
}