{
  "contractName": "ProvStorage",
  "abi": [
    {
      "constant": true,
      "inputs": [
        {
          "internalType": "string",
          "name": "",
          "type": "string"
        }
      ],
      "name": "downloads",
      "outputs": [
        {
          "internalType": "uint256",
          "name": "txNumber",
          "type": "uint256"
        },
        {
          "internalType": "string",
          "name": "ipfsHash",
          "type": "string"
        },
        {
          "internalType": "string",
          "name": "txHash",
          "type": "string"
        },
        {
          "internalType": "string",
          "name": "downloader",
          "type": "string"
        },
        {
          "internalType": "string",
          "name": "filename",
          "type": "string"
        },
        {
          "internalType": "uint256",
          "name": "timestamp",
          "type": "uint256"
        }
      ],
      "payable": false,
      "stateMutability": "view",
      "type": "function"
    },
    {
      "constant": true,
      "inputs": [
        {
          "internalType": "string",
          "name": "",
          "type": "string"
        }
      ],
      "name": "uploads",
      "outputs": [
        {
          "internalType": "uint256",
          "name": "txNumber",
          "type": "uint256"
        },
        {
          "internalType": "string",
          "name": "ipfsHash",
          "type": "string"
        },
        {
          "internalType": "string",
          "name": "txHash",
          "type": "string"
        },
        {
          "internalType": "string",
          "name": "author",
          "type": "string"
        },
        {
          "internalType": "string",
          "name": "filename",
          "type": "string"
        },
        {
          "internalType": "uint256",
          "name": "timestamp",
          "type": "uint256"
        }
      ],
      "payable": false,
      "stateMutability": "view",
      "type": "function"
    },
    {
      "constant": false,
      "inputs": [
        {
          "internalType": "string",
          "name": "_ipfsHash",
          "type": "string"
        },
        {
          "internalType": "string",
          "name": "_author",
          "type": "string"
        },
        {
          "internalType": "string",
          "name": "_filename",
          "type": "string"
        },
        {
          "internalType": "uint256",
          "name": "_timestamp",
          "type": "uint256"
        }
      ],
      "name": "upload",
      "outputs": [],
      "payable": false,
      "stateMutability": "nonpayable",
      "type": "function"
    },
    {
      "constant": false,
      "inputs": [
        {
          "internalType": "string",
          "name": "_ipfsHash",
          "type": "string"
        },
        {
          "internalType": "string",
          "name": "_filename",
          "type": "string"
        },
        {
          "internalType": "uint256",
          "name": "_time",
          "type": "uint256"
        },
        {
          "internalType": "string",
          "name": "_downloader",
          "type": "string"
        }
      ],
      "name": "download",
      "outputs": [],
      "payable": false,
      "stateMutability": "nonpayable",
      "type": "function"
    },
    {
      "constant": false,
      "inputs": [
        {
          "internalType": "string",
          "name": "_txHash",
          "type": "string"
        }
      ],
      "name": "updateTxHash_upload",
      "outputs": [],
      "payable": false,
      "stateMutability": "nonpayable",
      "type": "function"
    },
    {
      "constant": false,
      "inputs": [
        {
          "internalType": "string",
          "name": "_txHash",
          "type": "string"
        }
      ],
      "name": "updateTxHash_download",
      "outputs": [],
      "payable": false,
      "stateMutability": "nonpayable",
      "type": "function"
    },
    {
      "constant": true,
      "inputs": [],
      "name": "getTxNumber_up_latest",
      "outputs": [
        {
          "internalType": "uint256",
          "name": "",
          "type": "uint256"
        }
      ],
      "payable": false,
      "stateMutability": "view",
      "type": "function"
    },
    {
      "constant": true,
      "inputs": [],
      "name": "getIPFS_up_latest",
      "outputs": [
        {
          "internalType": "string",
          "name": "",
          "type": "string"
        }
      ],
      "payable": false,
      "stateMutability": "view",
      "type": "function"
    },
    {
      "constant": true,
      "inputs": [],
      "name": "getTxHash_up_latest",
      "outputs": [
        {
          "internalType": "string",
          "name": "",
          "type": "string"
        }
      ],
      "payable": false,
      "stateMutability": "view",
      "type": "function"
    },
    {
      "constant": true,
      "inputs": [],
      "name": "getAuthor_up_latest",
      "outputs": [
        {
          "internalType": "string",
          "name": "",
          "type": "string"
        }
      ],
      "payable": false,
      "stateMutability": "view",
      "type": "function"
    },
    {
      "constant": true,
      "inputs": [],
      "name": "getFileName_up_latest",
      "outputs": [
        {
          "internalType": "string",
          "name": "",
          "type": "string"
        }
      ],
      "payable": false,
      "stateMutability": "view",
      "type": "function"
    },
    {
      "constant": true,
      "inputs": [],
      "name": "getTimestamp_up_latest",
      "outputs": [
        {
          "internalType": "uint256",
          "name": "",
          "type": "uint256"
        }
      ],
      "payable": false,
      "stateMutability": "view",
      "type": "function"
    },
    {
      "constant": true,
      "inputs": [],
      "name": "getTxNumber_down_latest",
      "outputs": [
        {
          "internalType": "uint256",
          "name": "",
          "type": "uint256"
        }
      ],
      "payable": false,
      "stateMutability": "view",
      "type": "function"
    },
    {
      "constant": true,
      "inputs": [],
      "name": "getIPFS_down_latest",
      "outputs": [
        {
          "internalType": "string",
          "name": "",
          "type": "string"
        }
      ],
      "payable": false,
      "stateMutability": "view",
      "type": "function"
    },
    {
      "constant": true,
      "inputs": [],
      "name": "getTxHash_down_latest",
      "outputs": [
        {
          "internalType": "string",
          "name": "",
          "type": "string"
        }
      ],
      "payable": false,
      "stateMutability": "view",
      "type": "function"
    },
    {
      "constant": true,
      "inputs": [],
      "name": "getFileName_down_latest",
      "outputs": [
        {
          "internalType": "string",
          "name": "",
          "type": "string"
        }
      ],
      "payable": false,
      "stateMutability": "view",
      "type": "function"
    },
    {
      "constant": true,
      "inputs": [],
      "name": "getTimestamp_down_latest",
      "outputs": [
        {
          "internalType": "uint256",
          "name": "",
          "type": "uint256"
        }
      ],
      "payable": false,
      "stateMutability": "view",
      "type": "function"
    },
    {
      "constant": true,
      "inputs": [],
      "name": "getDownloader_latest",
      "outputs": [
        {
          "internalType": "string",
          "name": "",
          "type": "string"
        }
      ],
      "payable": false,
      "stateMutability": "view",
      "type": "function"
    },
    {
      "constant": true,
      "inputs": [
        {
          "internalType": "string",
          "name": "txHash",
          "type": "string"
        }
      ],
      "name": "getTxNumber_up",
      "outputs": [
        {
          "internalType": "uint256",
          "name": "",
          "type": "uint256"
        }
      ],
      "payable": false,
      "stateMutability": "view",
      "type": "function"
    },
    {
      "constant": true,
      "inputs": [
        {
          "internalType": "string",
          "name": "txHash",
          "type": "string"
        }
      ],
      "name": "getIPFS_up",
      "outputs": [
        {
          "internalType": "string",
          "name": "",
          "type": "string"
        }
      ],
      "payable": false,
      "stateMutability": "view",
      "type": "function"
    },
    {
      "constant": true,
      "inputs": [
        {
          "internalType": "string",
          "name": "txHash",
          "type": "string"
        }
      ],
      "name": "getTxHash_up",
      "outputs": [
        {
          "internalType": "string",
          "name": "",
          "type": "string"
        }
      ],
      "payable": false,
      "stateMutability": "view",
      "type": "function"
    },
    {
      "constant": true,
      "inputs": [
        {
          "internalType": "string",
          "name": "txHash",
          "type": "string"
        }
      ],
      "name": "getAuthor_up",
      "outputs": [
        {
          "internalType": "string",
          "name": "",
          "type": "string"
        }
      ],
      "payable": false,
      "stateMutability": "view",
      "type": "function"
    },
    {
      "constant": true,
      "inputs": [
        {
          "internalType": "string",
          "name": "txHash",
          "type": "string"
        }
      ],
      "name": "getFileName_up",
      "outputs": [
        {
          "internalType": "string",
          "name": "",
          "type": "string"
        }
      ],
      "payable": false,
      "stateMutability": "view",
      "type": "function"
    },
    {
      "constant": true,
      "inputs": [
        {
          "internalType": "string",
          "name": "txHash",
          "type": "string"
        }
      ],
      "name": "getTimestamp_up",
      "outputs": [
        {
          "internalType": "uint256",
          "name": "",
          "type": "uint256"
        }
      ],
      "payable": false,
      "stateMutability": "view",
      "type": "function"
    },
    {
      "constant": true,
      "inputs": [
        {
          "internalType": "string",
          "name": "txHash",
          "type": "string"
        }
      ],
      "name": "getTxNumber_down",
      "outputs": [
        {
          "internalType": "uint256",
          "name": "",
          "type": "uint256"
        }
      ],
      "payable": false,
      "stateMutability": "view",
      "type": "function"
    },
    {
      "constant": true,
      "inputs": [
        {
          "internalType": "string",
          "name": "txHash",
          "type": "string"
        }
      ],
      "name": "getIPFS_down",
      "outputs": [
        {
          "internalType": "string",
          "name": "",
          "type": "string"
        }
      ],
      "payable": false,
      "stateMutability": "view",
      "type": "function"
    },
    {
      "constant": true,
      "inputs": [
        {
          "internalType": "string",
          "name": "txHash",
          "type": "string"
        }
      ],
      "name": "getTxHash_down",
      "outputs": [
        {
          "internalType": "string",
          "name": "",
          "type": "string"
        }
      ],
      "payable": false,
      "stateMutability": "view",
      "type": "function"
    },
    {
      "constant": true,
      "inputs": [
        {
          "internalType": "string",
          "name": "txHash",
          "type": "string"
        }
      ],
      "name": "getFileName_down",
      "outputs": [
        {
          "internalType": "string",
          "name": "",
          "type": "string"
        }
      ],
      "payable": false,
      "stateMutability": "view",
      "type": "function"
    },
    {
      "constant": true,
      "inputs": [
        {
          "internalType": "string",
          "name": "txHash",
          "type": "string"
        }
      ],
      "name": "getTimestamp_down",
      "outputs": [
        {
          "internalType": "uint256",
          "name": "",
          "type": "uint256"
        }
      ],
      "payable": false,
      "stateMutability": "view",
      "type": "function"
    },
    {
      "constant": true,
      "inputs": [
        {
          "internalType": "string",
          "name": "txHash",
          "type": "string"
        }
      ],
      "name": "getDownloader",
      "outputs": [
        {
          "internalType": "string",
          "name": "",
          "type": "string"
        }
      ],
      "payable": false,
      "stateMutability": "view",
      "type": "function"
    }
  ],
  "bytecode": "0x6080604052600080556000600155604051806020016040528060008152506002908051906020019062000034929190620000bf565b5060405180602001604052806000815250600390805190602001906200005c929190620000bf565b506040518060400160405280600681526020017f6f726967696e000000000000000000000000000000000000000000000000000081525060049080519060200190620000aa929190620000bf565b50348015620000b857600080fd5b506200016e565b828054600181600116156101000203166002900490600052602060002090601f016020900481019282601f106200010257805160ff191683800117855562000133565b8280016001018555821562000133579182015b828111156200013257825182559160200191906001019062000115565b5b50905062000142919062000146565b5090565b6200016b91905b80821115620001675760008160009055506001016200014d565b5090565b90565b614033806200017e6000396000f3fe608060405234801561001057600080fd5b50600436106101d95760003560e01c806381d41c9511610104578063c1af68c5116100a2578063d59a0c8711610071578063d59a0c8714611b0e578063e05f8ef914611b91578063e841d2c814611c60578063f304a8d214611c7e576101d9565b8063c1af68c5146117cd578063c47c143b14611888578063c98073be146119bc578063d3fdf20a146119da576101d9565b806399cd8195116100de57806399cd819514611451578063a096e5d0146114d4578063ab6f47e814611557578063b68325d0146115da576101d9565b806381d41c9514610f095780638bc2b522146110fc57806394e5abb0146111cb576101d9565b806354df221b1161017c578063746044001161014b5780637460440014610aae57806376c6834114610d345780637ad13c0314610d525780637fcc9ffa14610e86576101d9565b806354df221b146107b9578063666b6dcb1461083c5780636deb24bd14610970578063743e08e614610a2b576101d9565b8063189e0914116101b8578063189e0914146104645780632082133b1461059857806346dc4e84146106cc5780635317b7dd146106ea576101d9565b8062c926d7146101de5780630869b8a5146102ad578063154778dc146103e1575b600080fd5b610297600480360360208110156101f457600080fd5b810190808035906020019064010000000081111561021157600080fd5b82018360208201111561022357600080fd5b8035906020019184600183028401116401000000008311171561024557600080fd5b91908080601f016020809104026020016040519081016040528093929190818152602001838380828437600081840152601f19601f820116905080830192505050505050509192919290505050611db2565b6040518082815260200191505060405180910390f35b610366600480360360208110156102c357600080fd5b81019080803590602001906401000000008111156102e057600080fd5b8201836020820111156102f257600080fd5b8035906020019184600183028401116401000000008311171561031457600080fd5b91908080601f016020809104026020016040519081016040528093929190818152602001838380828437600081840152601f19601f820116905080830192505050505050509192919290505050611e28565b6040518080602001828103825283818151815260200191508051906020019080838360005b838110156103a657808201518184015260208101905061038b565b50505050905090810190601f1680156103d35780820380516001836020036101000a031916815260200191505b509250505060405180910390f35b6103e9611f36565b6040518080602001828103825283818151815260200191508051906020019080838360005b8381101561042957808201518184015260208101905061040e565b50505050905090810190601f1680156104565780820380516001836020036101000a031916815260200191505b509250505060405180910390f35b61051d6004803603602081101561047a57600080fd5b810190808035906020019064010000000081111561049757600080fd5b8201836020820111156104a957600080fd5b803590602001918460018302840111640100000000831117156104cb57600080fd5b91908080601f016020809104026020016040519081016040528093929190818152602001838380828437600081840152601f19601f82011690508083019250505050505050919291929050505061204b565b6040518080602001828103825283818151815260200191508051906020019080838360005b8381101561055d578082015181840152602081019050610542565b50505050905090810190601f16801561058a5780820380516001836020036101000a031916815260200191505b509250505060405180910390f35b610651600480360360208110156105ae57600080fd5b81019080803590602001906401000000008111156105cb57600080fd5b8201836020820111156105dd57600080fd5b803590602001918460018302840111640100000000831117156105ff57600080fd5b91908080601f016020809104026020016040519081016040528093929190818152602001838380828437600081840152601f19601f820116905080830192505050505050509192919290505050612159565b6040518080602001828103825283818151815260200191508051906020019080838360005b83811015610691578082015181840152602081019050610676565b50505050905090810190601f1680156106be5780820380516001836020036101000a031916815260200191505b509250505060405180910390f35b6106d4612267565b6040518082815260200191505060405180910390f35b6107a36004803603602081101561070057600080fd5b810190808035906020019064010000000081111561071d57600080fd5b82018360208201111561072f57600080fd5b8035906020019184600183028401116401000000008311171561075157600080fd5b91908080601f016020809104026020016040519081016040528093929190818152602001838380828437600081840152601f19601f8201169050808301925050505050505091929192905050506122e4565b6040518082815260200191505060405180910390f35b6107c161235a565b6040518080602001828103825283818151815260200191508051906020019080838360005b838110156108015780820151818401526020810190506107e6565b50505050905090810190601f16801561082e5780820380516001836020036101000a031916815260200191505b509250505060405180910390f35b6108f56004803603602081101561085257600080fd5b810190808035906020019064010000000081111561086f57600080fd5b82018360208201111561088157600080fd5b803590602001918460018302840111640100000000831117156108a357600080fd5b91908080601f016020809104026020016040519081016040528093929190818152602001838380828437600081840152601f19601f82011690508083019250505050505050919291929050505061246f565b6040518080602001828103825283818151815260200191508051906020019080838360005b8381101561093557808201518184015260208101905061091a565b50505050905090810190601f1680156109625780820380516001836020036101000a031916815260200191505b509250505060405180910390f35b610a296004803603602081101561098657600080fd5b81019080803590602001906401000000008111156109a357600080fd5b8201836020820111156109b557600080fd5b803590602001918460018302840111640100000000831117156109d757600080fd5b91908080601f016020809104026020016040519081016040528093929190818152602001838380828437600081840152601f19601f82011690508083019250505050505050919291929050505061257d565b005b610a336127aa565b6040518080602001828103825283818151815260200191508051906020019080838360005b83811015610a73578082015181840152602081019050610a58565b50505050905090810190601f168015610aa05780820380516001836020036101000a031916815260200191505b509250505060405180910390f35b610b6760048036036020811015610ac457600080fd5b8101908080359060200190640100000000811115610ae157600080fd5b820183602082011115610af357600080fd5b80359060200191846001830284011164010000000083111715610b1557600080fd5b91908080601f016020809104026020016040519081016040528093929190818152602001838380828437600081840152601f19601f8201169050808301925050505050505091929192905050506128bf565b604051808781526020018060200180602001806020018060200186815260200185810385528a818151815260200191508051906020019080838360005b83811015610bbf578082015181840152602081019050610ba4565b50505050905090810190601f168015610bec5780820380516001836020036101000a031916815260200191505b50858103845289818151815260200191508051906020019080838360005b83811015610c25578082015181840152602081019050610c0a565b50505050905090810190601f168015610c525780820380516001836020036101000a031916815260200191505b50858103835288818151815260200191508051906020019080838360005b83811015610c8b578082015181840152602081019050610c70565b50505050905090810190601f168015610cb85780820380516001836020036101000a031916815260200191505b50858103825287818151815260200191508051906020019080838360005b83811015610cf1578082015181840152602081019050610cd6565b50505050905090810190601f168015610d1e5780820380516001836020036101000a031916815260200191505b509a505050505050505050505060405180910390f35b610d3c612b71565b6040518082815260200191505060405180910390f35b610e0b60048036036020811015610d6857600080fd5b8101908080359060200190640100000000811115610d8557600080fd5b820183602082011115610d9757600080fd5b80359060200191846001830284011164010000000083111715610db957600080fd5b91908080601f016020809104026020016040519081016040528093929190818152602001838380828437600081840152601f19601f820116905080830192505050505050509192919290505050612bee565b6040518080602001828103825283818151815260200191508051906020019080838360005b83811015610e4b578082015181840152602081019050610e30565b50505050905090810190601f168015610e785780820380516001836020036101000a031916815260200191505b509250505060405180910390f35b610e8e612cfc565b6040518080602001828103825283818151815260200191508051906020019080838360005b83811015610ece578082015181840152602081019050610eb3565b50505050905090810190601f168015610efb5780820380516001836020036101000a031916815260200191505b509250505060405180910390f35b6110fa60048036036080811015610f1f57600080fd5b8101908080359060200190640100000000811115610f3c57600080fd5b820183602082011115610f4e57600080fd5b80359060200191846001830284011164010000000083111715610f7057600080fd5b91908080601f016020809104026020016040519081016040528093929190818152602001838380828437600081840152601f19601f82011690508083019250505050505050919291929080359060200190640100000000811115610fd357600080fd5b820183602082011115610fe557600080fd5b8035906020019184600183028401116401000000008311171561100757600080fd5b91908080601f016020809104026020016040519081016040528093929190818152602001838380828437600081840152601f19601f8201169050808301925050505050505091929192908035906020019064010000000081111561106a57600080fd5b82018360208201111561107c57600080fd5b8035906020019184600183028401116401000000008311171561109e57600080fd5b91908080601f016020809104026020016040519081016040528093929190818152602001838380828437600081840152601f19601f82011690508083019250505050505050919291929080359060200190929190505050612e11565b005b6111b56004803603602081101561111257600080fd5b810190808035906020019064010000000081111561112f57600080fd5b82018360208201111561114157600080fd5b8035906020019184600183028401116401000000008311171561116357600080fd5b91908080601f016020809104026020016040519081016040528093929190818152602001838380828437600081840152601f19601f820116905080830192505050505050509192919290505050612f84565b6040518082815260200191505060405180910390f35b611284600480360360208110156111e157600080fd5b81019080803590602001906401000000008111156111fe57600080fd5b82018360208201111561121057600080fd5b8035906020019184600183028401116401000000008311171561123257600080fd5b91908080601f016020809104026020016040519081016040528093929190818152602001838380828437600081840152601f19601f820116905080830192505050505050509192919290505050612ffa565b604051808781526020018060200180602001806020018060200186815260200185810385528a818151815260200191508051906020019080838360005b838110156112dc5780820151818401526020810190506112c1565b50505050905090810190601f1680156113095780820380516001836020036101000a031916815260200191505b50858103845289818151815260200191508051906020019080838360005b83811015611342578082015181840152602081019050611327565b50505050905090810190601f16801561136f5780820380516001836020036101000a031916815260200191505b50858103835288818151815260200191508051906020019080838360005b838110156113a857808201518184015260208101905061138d565b50505050905090810190601f1680156113d55780820380516001836020036101000a031916815260200191505b50858103825287818151815260200191508051906020019080838360005b8381101561140e5780820151818401526020810190506113f3565b50505050905090810190601f16801561143b5780820380516001836020036101000a031916815260200191505b509a505050505050505050505060405180910390f35b6114596132ac565b6040518080602001828103825283818151815260200191508051906020019080838360005b8381101561149957808201518184015260208101905061147e565b50505050905090810190601f1680156114c65780820380516001836020036101000a031916815260200191505b509250505060405180910390f35b6114dc6133c1565b6040518080602001828103825283818151815260200191508051906020019080838360005b8381101561151c578082015181840152602081019050611501565b50505050905090810190601f1680156115495780820380516001836020036101000a031916815260200191505b509250505060405180910390f35b61155f6134d6565b6040518080602001828103825283818151815260200191508051906020019080838360005b8381101561159f578082015181840152602081019050611584565b50505050905090810190601f1680156115cc5780820380516001836020036101000a031916815260200191505b509250505060405180910390f35b6117cb600480360360808110156115f057600080fd5b810190808035906020019064010000000081111561160d57600080fd5b82018360208201111561161f57600080fd5b8035906020019184600183028401116401000000008311171561164157600080fd5b91908080601f016020809104026020016040519081016040528093929190818152602001838380828437600081840152601f19601f820116905080830192505050505050509192919290803590602001906401000000008111156116a457600080fd5b8201836020820111156116b657600080fd5b803590602001918460018302840111640100000000831117156116d857600080fd5b91908080601f016020809104026020016040519081016040528093929190818152602001838380828437600081840152601f19601f820116905080830192505050505050509192919290803590602001909291908035906020019064010000000081111561174557600080fd5b82018360208201111561175757600080fd5b8035906020019184600183028401116401000000008311171561177957600080fd5b91908080601f016020809104026020016040519081016040528093929190818152602001838380828437600081840152601f19601f8201169050808301925050505050505091929192905050506135eb565b005b611886600480360360208110156117e357600080fd5b810190808035906020019064010000000081111561180057600080fd5b82018360208201111561181257600080fd5b8035906020019184600183028401116401000000008311171561183457600080fd5b91908080601f016020809104026020016040519081016040528093929190818152602001838380828437600081840152601f19601f82011690508083019250505050505050919291929050505061375d565b005b6119416004803603602081101561189e57600080fd5b81019080803590602001906401000000008111156118bb57600080fd5b8201836020820111156118cd57600080fd5b803590602001918460018302840111640100000000831117156118ef57600080fd5b91908080601f016020809104026020016040519081016040528093929190818152602001838380828437600081840152601f19601f82011690508083019250505050505050919291929050505061398a565b6040518080602001828103825283818151815260200191508051906020019080838360005b83811015611981578082015181840152602081019050611966565b50505050905090810190601f1680156119ae5780820380516001836020036101000a031916815260200191505b509250505060405180910390f35b6119c4613a98565b6040518082815260200191505060405180910390f35b611a93600480360360208110156119f057600080fd5b8101908080359060200190640100000000811115611a0d57600080fd5b820183602082011115611a1f57600080fd5b80359060200191846001830284011164010000000083111715611a4157600080fd5b91908080601f016020809104026020016040519081016040528093929190818152602001838380828437600081840152601f19601f820116905080830192505050505050509192919290505050613aa1565b6040518080602001828103825283818151815260200191508051906020019080838360005b83811015611ad3578082015181840152602081019050611ab8565b50505050905090810190601f168015611b005780820380516001836020036101000a031916815260200191505b509250505060405180910390f35b611b16613baf565b6040518080602001828103825283818151815260200191508051906020019080838360005b83811015611b56578082015181840152602081019050611b3b565b50505050905090810190601f168015611b835780820380516001836020036101000a031916815260200191505b509250505060405180910390f35b611c4a60048036036020811015611ba757600080fd5b8101908080359060200190640100000000811115611bc457600080fd5b820183602082011115611bd657600080fd5b80359060200191846001830284011164010000000083111715611bf857600080fd5b91908080601f016020809104026020016040519081016040528093929190818152602001838380828437600081840152601f19601f820116905080830192505050505050509192919290505050613cc4565b6040518082815260200191505060405180910390f35b611c68613d3a565b6040518082815260200191505060405180910390f35b611d3760048036036020811015611c9457600080fd5b8101908080359060200190640100000000811115611cb157600080fd5b820183602082011115611cc357600080fd5b80359060200191846001830284011164010000000083111715611ce557600080fd5b91908080601f016020809104026020016040519081016040528093929190818152602001838380828437600081840152601f19601f820116905080830192505050505050509192919290505050613d44565b6040518080602001828103825283818151815260200191508051906020019080838360005b83811015611d77578082015181840152602081019050611d5c565b50505050905090810190601f168015611da45780820380516001836020036101000a031916815260200191505b509250505060405180910390f35b60006005826040518082805190602001908083835b60208310611dea5780518252602082019150602081019050602083039250611dc7565b6001836020036101000a0380198251168184511680821785525050505050509050019150509081526020016040518091039020600001549050919050565b60606005826040518082805190602001908083835b60208310611e605780518252602082019150602081019050602083039250611e3d565b6001836020036101000a03801982511681845116808217855250505050505090500191505090815260200160405180910390206001018054600181600116156101000203166002900480601f016020809104026020016040519081016040528092919081815260200182805460018160011615610100020316600290048015611f2a5780601f10611eff57610100808354040283529160200191611f2a565b820191906000526020600020905b815481529060010190602001808311611f0d57829003601f168201915b50505050509050919050565b6060600560026040518082805460018160011615610100020316600290048015611f975780601f10611f75576101008083540402835291820191611f97565b820191906000526020600020905b815481529060010190602001808311611f83575b505091505090815260200160405180910390206004018054600181600116156101000203166002900480601f0160208091040260200160405190810160405280929190818152602001828054600181600116156101000203166002900480156120415780601f1061201657610100808354040283529160200191612041565b820191906000526020600020905b81548152906001019060200180831161202457829003601f168201915b5050505050905090565b60606006826040518082805190602001908083835b602083106120835780518252602082019150602081019050602083039250612060565b6001836020036101000a03801982511681845116808217855250505050505090500191505090815260200160405180910390206002018054600181600116156101000203166002900480601f01602080910402602001604051908101604052809291908181526020018280546001816001161561010002031660029004801561214d5780601f106121225761010080835404028352916020019161214d565b820191906000526020600020905b81548152906001019060200180831161213057829003601f168201915b50505050509050919050565b60606006826040518082805190602001908083835b60208310612191578051825260208201915060208101905060208303925061216e565b6001836020036101000a03801982511681845116808217855250505050505090500191505090815260200160405180910390206003018054600181600116156101000203166002900480601f01602080910402602001604051908101604052809291908181526020018280546001816001161561010002031660029004801561225b5780601f106122305761010080835404028352916020019161225b565b820191906000526020600020905b81548152906001019060200180831161223e57829003601f168201915b50505050509050919050565b60006005600260405180828054600181600116156101000203166002900480156122c85780601f106122a65761010080835404028352918201916122c8565b820191906000526020600020905b8154815290600101906020018083116122b4575b5050915050908152602001604051809103902060050154905090565b60006006826040518082805190602001908083835b6020831061231c57805182526020820191506020810190506020830392506122f9565b6001836020036101000a0380198251168184511680821785525050505050509050019150509081526020016040518091039020600001549050919050565b60606006600360405180828054600181600116156101000203166002900480156123bb5780601f106123995761010080835404028352918201916123bb565b820191906000526020600020905b8154815290600101906020018083116123a7575b505091505090815260200160405180910390206001018054600181600116156101000203166002900480601f0160208091040260200160405190810160405280929190818152602001828054600181600116156101000203166002900480156124655780601f1061243a57610100808354040283529160200191612465565b820191906000526020600020905b81548152906001019060200180831161244857829003601f168201915b5050505050905090565b60606006826040518082805190602001908083835b602083106124a75780518252602082019150602081019050602083039250612484565b6001836020036101000a03801982511681845116808217855250505050505090500191505090815260200160405180910390206004018054600181600116156101000203166002900480601f0160208091040260200160405190810160405280929190818152602001828054600181600116156101000203166002900480156125715780601f1061254657610100808354040283529160200191612571565b820191906000526020600020905b81548152906001019060200180831161255457829003601f168201915b50505050509050919050565b6005600460405180828054600181600116156101000203166002900480156125dc5780601f106125ba5761010080835404028352918201916125dc565b820191906000526020600020905b8154815290600101906020018083116125c8575b505091505090815260200160405180910390206005826040518082805190602001908083835b602083106126255780518252602082019150602081019050602083039250612602565b6001836020036101000a03801982511681845116808217855250505050505090500191505090815260200160405180910390206000820154816000015560018201816001019080546001816001161561010002031660029004612689929190613e52565b50600282018160020190805460018160011615610100020316600290046126b1929190613e52565b50600382018160030190805460018160011615610100020316600290046126d9929190613e52565b5060048201816004019080546001816001161561010002031660029004612701929190613e52565b5060058201548160050155905050806005826040518082805190602001908083835b602083106127465780518252602082019150602081019050602083039250612723565b6001836020036101000a0380198251168184511680821785525050505050509050019150509081526020016040518091039020600201908051906020019061278f929190613ed9565b5080600290805190602001906127a6929190613ed9565b5050565b606060066003604051808280546001816001161561010002031660029004801561280b5780601f106127e957610100808354040283529182019161280b565b820191906000526020600020905b8154815290600101906020018083116127f7575b505091505090815260200160405180910390206002018054600181600116156101000203166002900480601f0160208091040260200160405190810160405280929190818152602001828054600181600116156101000203166002900480156128b55780601f1061288a576101008083540402835291602001916128b5565b820191906000526020600020905b81548152906001019060200180831161289857829003601f168201915b5050505050905090565b600681805160208101820180518482526020830160208501208183528095505050505050600091509050806000015490806001018054600181600116156101000203166002900480601f0160208091040260200160405190810160405280929190818152602001828054600181600116156101000203166002900480156129875780601f1061295c57610100808354040283529160200191612987565b820191906000526020600020905b81548152906001019060200180831161296a57829003601f168201915b505050505090806002018054600181600116156101000203166002900480601f016020809104026020016040519081016040528092919081815260200182805460018160011615610100020316600290048015612a255780601f106129fa57610100808354040283529160200191612a25565b820191906000526020600020905b815481529060010190602001808311612a0857829003601f168201915b505050505090806003018054600181600116156101000203166002900480601f016020809104026020016040519081016040528092919081815260200182805460018160011615610100020316600290048015612ac35780601f10612a9857610100808354040283529160200191612ac3565b820191906000526020600020905b815481529060010190602001808311612aa657829003601f168201915b505050505090806004018054600181600116156101000203166002900480601f016020809104026020016040519081016040528092919081815260200182805460018160011615610100020316600290048015612b615780601f10612b3657610100808354040283529160200191612b61565b820191906000526020600020905b815481529060010190602001808311612b4457829003601f168201915b5050505050908060050154905086565b6000600660036040518082805460018160011615610100020316600290048015612bd25780601f10612bb0576101008083540402835291820191612bd2565b820191906000526020600020905b815481529060010190602001808311612bbe575b5050915050908152602001604051809103902060050154905090565b60606005826040518082805190602001908083835b60208310612c265780518252602082019150602081019050602083039250612c03565b6001836020036101000a03801982511681845116808217855250505050505090500191505090815260200160405180910390206004018054600181600116156101000203166002900480601f016020809104026020016040519081016040528092919081815260200182805460018160011615610100020316600290048015612cf05780601f10612cc557610100808354040283529160200191612cf0565b820191906000526020600020905b815481529060010190602001808311612cd357829003601f168201915b50505050509050919050565b6060600560026040518082805460018160011615610100020316600290048015612d5d5780601f10612d3b576101008083540402835291820191612d5d565b820191906000526020600020905b815481529060010190602001808311612d49575b505091505090815260200160405180910390206002018054600181600116156101000203166002900480601f016020809104026020016040519081016040528092919081815260200182805460018160011615610100020316600290048015612e075780601f10612ddc57610100808354040283529160200191612e07565b820191906000526020600020905b815481529060010190602001808311612dea57829003601f168201915b5050505050905090565b6001600054016000819055506040518060c0016040528060005481526020018581526020016040518060400160405280600581526020017f656d707479000000000000000000000000000000000000000000000000000000815250815260200184815260200183815260200182815250600560046040518082805460018160011615610100020316600290048015612ee05780601f10612ebe576101008083540402835291820191612ee0565b820191906000526020600020905b815481529060010190602001808311612ecc575b50509150509081526020016040518091039020600082015181600001556020820151816001019080519060200190612f19929190613f59565b506040820151816002019080519060200190612f36929190613f59565b506060820151816003019080519060200190612f53929190613f59565b506080820151816004019080519060200190612f70929190613f59565b5060a0820151816005015590505050505050565b60006006826040518082805190602001908083835b60208310612fbc5780518252602082019150602081019050602083039250612f99565b6001836020036101000a0380198251168184511680821785525050505050509050019150509081526020016040518091039020600501549050919050565b600581805160208101820180518482526020830160208501208183528095505050505050600091509050806000015490806001018054600181600116156101000203166002900480601f0160208091040260200160405190810160405280929190818152602001828054600181600116156101000203166002900480156130c25780601f10613097576101008083540402835291602001916130c2565b820191906000526020600020905b8154815290600101906020018083116130a557829003601f168201915b505050505090806002018054600181600116156101000203166002900480601f0160208091040260200160405190810160405280929190818152602001828054600181600116156101000203166002900480156131605780601f1061313557610100808354040283529160200191613160565b820191906000526020600020905b81548152906001019060200180831161314357829003601f168201915b505050505090806003018054600181600116156101000203166002900480601f0160208091040260200160405190810160405280929190818152602001828054600181600116156101000203166002900480156131fe5780601f106131d3576101008083540402835291602001916131fe565b820191906000526020600020905b8154815290600101906020018083116131e157829003601f168201915b505050505090806004018054600181600116156101000203166002900480601f01602080910402602001604051908101604052809291908181526020018280546001816001161561010002031660029004801561329c5780601f106132715761010080835404028352916020019161329c565b820191906000526020600020905b81548152906001019060200180831161327f57829003601f168201915b5050505050908060050154905086565b606060056002604051808280546001816001161561010002031660029004801561330d5780601f106132eb57610100808354040283529182019161330d565b820191906000526020600020905b8154815290600101906020018083116132f9575b505091505090815260200160405180910390206001018054600181600116156101000203166002900480601f0160208091040260200160405190810160405280929190818152602001828054600181600116156101000203166002900480156133b75780601f1061338c576101008083540402835291602001916133b7565b820191906000526020600020905b81548152906001019060200180831161339a57829003601f168201915b5050505050905090565b60606006600360405180828054600181600116156101000203166002900480156134225780601f10613400576101008083540402835291820191613422565b820191906000526020600020905b81548152906001019060200180831161340e575b505091505090815260200160405180910390206004018054600181600116156101000203166002900480601f0160208091040260200160405190810160405280929190818152602001828054600181600116156101000203166002900480156134cc5780601f106134a1576101008083540402835291602001916134cc565b820191906000526020600020905b8154815290600101906020018083116134af57829003601f168201915b5050505050905090565b60606006600360405180828054600181600116156101000203166002900480156135375780601f10613515576101008083540402835291820191613537565b820191906000526020600020905b815481529060010190602001808311613523575b505091505090815260200160405180910390206003018054600181600116156101000203166002900480601f0160208091040260200160405190810160405280929190818152602001828054600181600116156101000203166002900480156135e15780601f106135b6576101008083540402835291602001916135e1565b820191906000526020600020905b8154815290600101906020018083116135c457829003601f168201915b5050505050905090565b60018054016001819055506040518060c0016040528060015481526020018581526020016040518060400160405280600581526020017f656d7074790000000000000000000000000000000000000000000000000000008152508152602001828152602001848152602001838152506006600460405180828054600181600116156101000203166002900480156136b95780601f106136975761010080835404028352918201916136b9565b820191906000526020600020905b8154815290600101906020018083116136a5575b505091505090815260200160405180910390206000820151816000015560208201518160010190805190602001906136f2929190613f59565b50604082015181600201908051906020019061370f929190613f59565b50606082015181600301908051906020019061372c929190613f59565b506080820151816004019080519060200190613749929190613f59565b5060a0820151816005015590505050505050565b6006600460405180828054600181600116156101000203166002900480156137bc5780601f1061379a5761010080835404028352918201916137bc565b820191906000526020600020905b8154815290600101906020018083116137a8575b505091505090815260200160405180910390206006826040518082805190602001908083835b6020831061380557805182526020820191506020810190506020830392506137e2565b6001836020036101000a03801982511681845116808217855250505050505090500191505090815260200160405180910390206000820154816000015560018201816001019080546001816001161561010002031660029004613869929190613e52565b5060028201816002019080546001816001161561010002031660029004613891929190613e52565b50600382018160030190805460018160011615610100020316600290046138b9929190613e52565b50600482018160040190805460018160011615610100020316600290046138e1929190613e52565b5060058201548160050155905050806006826040518082805190602001908083835b602083106139265780518252602082019150602081019050602083039250613903565b6001836020036101000a0380198251168184511680821785525050505050509050019150509081526020016040518091039020600201908051906020019061396f929190613ed9565b508060039080519060200190613986929190613ed9565b5050565b60606005826040518082805190602001908083835b602083106139c2578051825260208201915060208101905060208303925061399f565b6001836020036101000a03801982511681845116808217855250505050505090500191505090815260200160405180910390206002018054600181600116156101000203166002900480601f016020809104026020016040519081016040528092919081815260200182805460018160011615610100020316600290048015613a8c5780601f10613a6157610100808354040283529160200191613a8c565b820191906000526020600020905b815481529060010190602001808311613a6f57829003601f168201915b50505050509050919050565b60008054905090565b60606006826040518082805190602001908083835b60208310613ad95780518252602082019150602081019050602083039250613ab6565b6001836020036101000a03801982511681845116808217855250505050505090500191505090815260200160405180910390206001018054600181600116156101000203166002900480601f016020809104026020016040519081016040528092919081815260200182805460018160011615610100020316600290048015613ba35780601f10613b7857610100808354040283529160200191613ba3565b820191906000526020600020905b815481529060010190602001808311613b8657829003601f168201915b50505050509050919050565b6060600560026040518082805460018160011615610100020316600290048015613c105780601f10613bee576101008083540402835291820191613c10565b820191906000526020600020905b815481529060010190602001808311613bfc575b505091505090815260200160405180910390206003018054600181600116156101000203166002900480601f016020809104026020016040519081016040528092919081815260200182805460018160011615610100020316600290048015613cba5780601f10613c8f57610100808354040283529160200191613cba565b820191906000526020600020905b815481529060010190602001808311613c9d57829003601f168201915b5050505050905090565b60006005826040518082805190602001908083835b60208310613cfc5780518252602082019150602081019050602083039250613cd9565b6001836020036101000a0380198251168184511680821785525050505050509050019150509081526020016040518091039020600501549050919050565b6000600154905090565b60606005826040518082805190602001908083835b60208310613d7c5780518252602082019150602081019050602083039250613d59565b6001836020036101000a03801982511681845116808217855250505050505090500191505090815260200160405180910390206003018054600181600116156101000203166002900480601f016020809104026020016040519081016040528092919081815260200182805460018160011615610100020316600290048015613e465780601f10613e1b57610100808354040283529160200191613e46565b820191906000526020600020905b815481529060010190602001808311613e2957829003601f168201915b50505050509050919050565b828054600181600116156101000203166002900490600052602060002090601f016020900481019282601f10613e8b5780548555613ec8565b82800160010185558215613ec857600052602060002091601f016020900482015b82811115613ec7578254825591600101919060010190613eac565b5b509050613ed59190613fd9565b5090565b828054600181600116156101000203166002900490600052602060002090601f016020900481019282601f10613f1a57805160ff1916838001178555613f48565b82800160010185558215613f48579182015b82811115613f47578251825591602001919060010190613f2c565b5b509050613f559190613fd9565b5090565b828054600181600116156101000203166002900490600052602060002090601f016020900481019282601f10613f9a57805160ff1916838001178555613fc8565b82800160010185558215613fc8579182015b82811115613fc7578251825591602001919060010190613fac565b5b509050613fd59190613fd9565b5090565b613ffb91905b80821115613ff7576000816000905550600101613fdf565b5090565b9056fea265627a7a723158200fda261522c861309215ca1aac0bc41a8642ce7dfcb6432d5b7e158d1ecb700764736f6c63430005100032",
  "source": "// SPDX-License-Identifier: MIT\npragma solidity >=0.5.16 <8.10.0;\n\ncontract ProvStorage {\n//State Variables\n  uint txNumber_upload = 0;\n  uint txNumber_download = 0;\n  string latest_txHash_upload = \"\";\n  string latest_txHash_download = \"\";\n  string temp_txHash = \"origin\";\n\n// Upload structure\nstruct Upload {\n  //Properties of each upload instance\n  uint txNumber;\n  string ipfsHash;\n  string txHash;\n  string author;\n  string filename;\n  uint timestamp;  \n}\n//Download Structure - Download instances also added to chain\nstruct Download {\n  uint txNumber;\n  string ipfsHash;\n  string txHash;\n  string downloader;\n  string filename;\n  uint timestamp;\n  //string ip;  need to pull from dapp\n}\n\n//Mappings\nmapping(string => Upload) public uploads;\n//txHash maps to an Upload instance\nmapping(string => Download) public downloads;\n//txHash maps to Download instance too!\n\n//mapping(address => mapping(uint => Upload)) public address_uploads;  //NOT IN USE\n//Uploads can also be mapped to an address (the account of the person who created the upload.)\n\n//--- Upload - Download ---\n\n  function upload(string memory _ipfsHash, string memory _author, string memory _filename, uint _timestamp) public {\n    // Function to set the properties of an upload instance.\n    txNumber_upload = txNumber_upload +1;\n    uploads[temp_txHash] = Upload(txNumber_upload, _ipfsHash, \"empty\", _author, _filename, _timestamp);\n  }\n  \n  function download(string memory _ipfsHash, string memory _filename, uint _time, string memory _downloader) public {\n    // Function to set the properties of a download instance.\n    txNumber_download = txNumber_download +1;\n    downloads[temp_txHash] = Download(txNumber_download, _ipfsHash, \"empty\", _downloader, _filename, _time);\n  }\n \n  //function to update txHash with correct value (blockhash) that gets generated after 'upload' is called\n  function updateTxHash_upload(string memory _txHash) public {\n    //set upload instance to have index as transaction hash\n    uploads[_txHash] = uploads[temp_txHash];\n    uploads[_txHash].txHash = _txHash;\n    latest_txHash_upload = _txHash;\n  }\n  //function to update txHash with correct value (blockhash) that gets generated after 'upload' is called\n  function updateTxHash_download(string memory _txHash) public {\n    downloads[_txHash] = downloads[temp_txHash];\n    downloads[_txHash].txHash = _txHash;\n    latest_txHash_download = _txHash;\n  }\n  //-----------------------------------------------\n\n\n  //---------Upload Get latest transaction---------\n  function getTxNumber_up_latest() public view returns (uint){\n    //return the latest transaction number\n    return txNumber_upload;\n  }\n\n  function getIPFS_up_latest() public view returns (string memory){\n    //return the ipfsHash taking transaction ID & msg.sender.\n    return uploads[latest_txHash_upload].ipfsHash;\n    //return getTxHash();\n  }\n\n  function getTxHash_up_latest() public view returns (string memory){\n    //Return transactionHash\n    return uploads[latest_txHash_upload].txHash;\n  }\n\n  function getAuthor_up_latest() public view returns (string memory){\n    //return author based on txNumber and current account.\n    return uploads[latest_txHash_upload].author;\n  }\n\n   function getFileName_up_latest() public view returns (string memory){\n    //return author based on txNumber and current account.\n    return uploads[latest_txHash_upload].filename;\n  }\n  \n   function getTimestamp_up_latest() public view returns (uint){\n    //return author based on txNumber and current account.\n    return uploads[latest_txHash_upload].timestamp;\n  }\n  //-------------------------------------------------------------\n\n//----------- Download Get LATEST ------------------\n  function getTxNumber_down_latest() public view returns (uint){\n    //return the latest transaction number\n    return txNumber_download;\n  }\n\n  function getIPFS_down_latest() public view returns (string memory){\n    return downloads[latest_txHash_download].ipfsHash;\n  }\n\n   function getTxHash_down_latest() public view returns (string memory){\n    return downloads[latest_txHash_download].txHash;\n  }\n\n  function getFileName_down_latest() public view returns (string memory){\n    return downloads[latest_txHash_download].filename;\n  }\n\n  function getTimestamp_down_latest() public view returns (uint){\n    return downloads[latest_txHash_download].timestamp;\n  }\n  function getDownloader_latest() public view returns (string memory){\n    return downloads[latest_txHash_download].downloader;\n  }\n\n\n  //---------Get upload properties based on txHash ---------\n  function getTxNumber_up(string memory txHash) public view returns (uint){\n    //return the latest transaction number\n    return uploads[txHash].txNumber;\n  }\n  function getIPFS_up(string memory txHash) public view returns (string memory){\n    //Return IPFS Hash of an upload of index 'tXHash'\n    return uploads[txHash].ipfsHash;\n  }\n\n  function getTxHash_up(string memory txHash) public view returns (string memory){\n    //Return transactionHash\n    return uploads[txHash].txHash;\n  }\n\n  function getAuthor_up(string memory txHash) public view returns (string memory){\n    //return author based on txNumber and current account.\n    return uploads[txHash].author;\n  }\n\n   function getFileName_up(string memory txHash) public view returns (string memory){\n    //return author based on txNumber and current account.\n    return uploads[txHash].filename;\n  }\n  \n   function getTimestamp_up(string memory txHash) public view returns (uint){\n    //return author based on txNumber and current account.\n    return uploads[txHash].timestamp;\n  }\n  //-------------------------------------------------------------\n\n  //----------- Download download properties based on txHash ------------------\n  function getTxNumber_down(string memory txHash) public view returns (uint){\n    //return the latest transaction number\n    return downloads[txHash].txNumber;\n  }\n\n  function getIPFS_down(string memory txHash) public view returns (string memory){\n    return downloads[txHash].ipfsHash;\n  }\n\n   function getTxHash_down(string memory txHash) public view returns (string memory){\n    return downloads[txHash].txHash;\n  }\n\n  function getFileName_down(string memory txHash) public view returns (string memory){\n    return downloads[txHash].filename;\n  }\n\n  function getTimestamp_down(string memory txHash) public view returns (uint){\n    return downloads[txHash].timestamp;\n  }\n  function getDownloader(string memory txHash) public view returns (string memory){\n    return downloads[txHash].downloader;\n  }\n}\n//msg.sender = the address of the acccount currently running contract.\n\n",
  "sourcePath": "/Users/farkasmaro/Documents/ipfs-project/contracts/ProvStorage.sol",
  "compiler": {
    "name": "solc",
    "version": "0.5.16+commit.9c3226ce.Emscripten.clang"
  },
  "schemaVersion": "3.4.3",
  "updatedAt": "2022-04-06T13:42:16.597Z",
  "networkType": "ethereum",
  "devdoc": {
    "methods": {}
  },
  "userdoc": {
    "methods": {}
  }
}