{
  "contractName": "ProvStorage",
  "abi": [
    {
      "constant": true,
      "inputs": [
        {
          "internalType": "address",
          "name": "",
          "type": "address"
        },
        {
          "internalType": "uint256",
          "name": "",
          "type": "uint256"
        }
      ],
      "name": "address_uploads",
      "outputs": [
        {
          "internalType": "string",
          "name": "ipfsHash",
          "type": "string"
        },
        {
          "internalType": "string",
          "name": "txHash",
          "type": "string"
        },
        {
          "internalType": "string",
          "name": "author",
          "type": "string"
        },
        {
          "internalType": "string",
          "name": "filename",
          "type": "string"
        },
        {
          "internalType": "uint256",
          "name": "timestamp",
          "type": "uint256"
        }
      ],
      "payable": false,
      "stateMutability": "view",
      "type": "function"
    },
    {
      "constant": true,
      "inputs": [
        {
          "internalType": "uint256",
          "name": "",
          "type": "uint256"
        }
      ],
      "name": "downloads",
      "outputs": [
        {
          "internalType": "string",
          "name": "ipfsHash",
          "type": "string"
        },
        {
          "internalType": "string",
          "name": "filename",
          "type": "string"
        },
        {
          "internalType": "uint256",
          "name": "timestamp",
          "type": "uint256"
        },
        {
          "internalType": "string",
          "name": "downloader",
          "type": "string"
        }
      ],
      "payable": false,
      "stateMutability": "view",
      "type": "function"
    },
    {
      "constant": true,
      "inputs": [
        {
          "internalType": "uint256",
          "name": "",
          "type": "uint256"
        }
      ],
      "name": "uploads",
      "outputs": [
        {
          "internalType": "string",
          "name": "ipfsHash",
          "type": "string"
        },
        {
          "internalType": "string",
          "name": "txHash",
          "type": "string"
        },
        {
          "internalType": "string",
          "name": "author",
          "type": "string"
        },
        {
          "internalType": "string",
          "name": "filename",
          "type": "string"
        },
        {
          "internalType": "uint256",
          "name": "timestamp",
          "type": "uint256"
        }
      ],
      "payable": false,
      "stateMutability": "view",
      "type": "function"
    },
    {
      "constant": false,
      "inputs": [
        {
          "internalType": "string",
          "name": "_ipfsHash",
          "type": "string"
        },
        {
          "internalType": "string",
          "name": "_author",
          "type": "string"
        },
        {
          "internalType": "string",
          "name": "_filename",
          "type": "string"
        },
        {
          "internalType": "uint256",
          "name": "_timestamp",
          "type": "uint256"
        }
      ],
      "name": "upload",
      "outputs": [],
      "payable": false,
      "stateMutability": "nonpayable",
      "type": "function"
    },
    {
      "constant": false,
      "inputs": [
        {
          "internalType": "string",
          "name": "_ipfsHash",
          "type": "string"
        },
        {
          "internalType": "string",
          "name": "_filename",
          "type": "string"
        },
        {
          "internalType": "uint256",
          "name": "_time",
          "type": "uint256"
        },
        {
          "internalType": "string",
          "name": "_downloader",
          "type": "string"
        }
      ],
      "name": "download",
      "outputs": [],
      "payable": false,
      "stateMutability": "nonpayable",
      "type": "function"
    },
    {
      "constant": false,
      "inputs": [
        {
          "internalType": "string",
          "name": "_txHash",
          "type": "string"
        }
      ],
      "name": "updateTxHash",
      "outputs": [],
      "payable": false,
      "stateMutability": "nonpayable",
      "type": "function"
    },
    {
      "constant": true,
      "inputs": [],
      "name": "getTxNumber",
      "outputs": [
        {
          "internalType": "uint256",
          "name": "",
          "type": "uint256"
        }
      ],
      "payable": false,
      "stateMutability": "view",
      "type": "function"
    },
    {
      "constant": true,
      "inputs": [],
      "name": "getIPFS",
      "outputs": [
        {
          "internalType": "string",
          "name": "",
          "type": "string"
        }
      ],
      "payable": false,
      "stateMutability": "view",
      "type": "function"
    },
    {
      "constant": true,
      "inputs": [],
      "name": "getTxHash",
      "outputs": [
        {
          "internalType": "string",
          "name": "",
          "type": "string"
        }
      ],
      "payable": false,
      "stateMutability": "view",
      "type": "function"
    },
    {
      "constant": true,
      "inputs": [],
      "name": "getAuthor",
      "outputs": [
        {
          "internalType": "string",
          "name": "",
          "type": "string"
        }
      ],
      "payable": false,
      "stateMutability": "view",
      "type": "function"
    },
    {
      "constant": true,
      "inputs": [],
      "name": "getFileName",
      "outputs": [
        {
          "internalType": "string",
          "name": "",
          "type": "string"
        }
      ],
      "payable": false,
      "stateMutability": "view",
      "type": "function"
    },
    {
      "constant": true,
      "inputs": [],
      "name": "getTimestamp",
      "outputs": [
        {
          "internalType": "uint256",
          "name": "",
          "type": "uint256"
        }
      ],
      "payable": false,
      "stateMutability": "view",
      "type": "function"
    },
    {
      "constant": true,
      "inputs": [],
      "name": "getTxNumber_down",
      "outputs": [
        {
          "internalType": "uint256",
          "name": "",
          "type": "uint256"
        }
      ],
      "payable": false,
      "stateMutability": "view",
      "type": "function"
    },
    {
      "constant": true,
      "inputs": [],
      "name": "getIPFS_down",
      "outputs": [
        {
          "internalType": "string",
          "name": "",
          "type": "string"
        }
      ],
      "payable": false,
      "stateMutability": "view",
      "type": "function"
    },
    {
      "constant": true,
      "inputs": [],
      "name": "getFileName_down",
      "outputs": [
        {
          "internalType": "string",
          "name": "",
          "type": "string"
        }
      ],
      "payable": false,
      "stateMutability": "view",
      "type": "function"
    },
    {
      "constant": true,
      "inputs": [],
      "name": "getTimestamp_down",
      "outputs": [
        {
          "internalType": "uint256",
          "name": "",
          "type": "uint256"
        }
      ],
      "payable": false,
      "stateMutability": "view",
      "type": "function"
    },
    {
      "constant": true,
      "inputs": [],
      "name": "getDownloader",
      "outputs": [
        {
          "internalType": "string",
          "name": "",
          "type": "string"
        }
      ],
      "payable": false,
      "stateMutability": "view",
      "type": "function"
    }
  ],
  "bytecode": "0x60806040526000805560006001556040518060400160405280600581526020017f656d707479000000000000000000000000000000000000000000000000000000815250600290805190602001906200005a9291906200006f565b503480156200006857600080fd5b506200011e565b828054600181600116156101000203166002900490600052602060002090601f016020900481019282601f10620000b257805160ff1916838001178555620000e3565b82800160010185558215620000e3579182015b82811115620000e2578251825591602001919060010190620000c5565b5b509050620000f29190620000f6565b5090565b6200011b91905b8082111562000117576000816000905550600101620000fd565b5090565b90565b611f6b806200012e6000396000f3fe608060405234801561001057600080fd5b506004361061010b5760003560e01c8063a5faa125116100a2578063c326025911610071578063c3260259146109bb578063eade9eab14610a3e578063f963f05814610c50578063fbfecaa314610cd3578063fcf6c23c14610ec55761010b565b8063a5faa1251461066c578063abaa2935146106ef578063abd531151461070d578063b68325d0146107c85761010b565b8063774262b5116100de578063774262b51461025257806381d41c95146102d557806387de74a8146104c85780639fd50b2d146104e65761010b565b8063188ec35614610110578063285a448d1461012e5780634efe2d1e146101b15780636d73c7c114610234575b600080fd5b610118610f48565b6040518082815260200191505060405180910390f35b610136610f67565b6040518080602001828103825283818151815260200191508051906020019080838360005b8381101561017657808201518184015260208101905061015b565b50505050905090810190601f1680156101a35780820380516001836020036101000a031916815260200191505b509250505060405180910390f35b6101b961101e565b6040518080602001828103825283818151815260200191508051906020019080838360005b838110156101f95780820151818401526020810190506101de565b50505050905090810190601f1680156102265780820380516001836020036101000a031916815260200191505b509250505060405180910390f35b61023c6110d5565b6040518082815260200191505060405180910390f35b61025a6110df565b6040518080602001828103825283818151815260200191508051906020019080838360005b8381101561029a57808201518184015260208101905061027f565b50505050905090810190601f1680156102c75780820380516001836020036101000a031916815260200191505b509250505060405180910390f35b6104c6600480360360808110156102eb57600080fd5b810190808035906020019064010000000081111561030857600080fd5b82018360208201111561031a57600080fd5b8035906020019184600183028401116401000000008311171561033c57600080fd5b91908080601f016020809104026020016040519081016040528093929190818152602001838380828437600081840152601f19601f8201169050808301925050505050505091929192908035906020019064010000000081111561039f57600080fd5b8201836020820111156103b157600080fd5b803590602001918460018302840111640100000000831117156103d357600080fd5b91908080601f016020809104026020016040519081016040528093929190818152602001838380828437600081840152601f19601f8201169050808301925050505050505091929192908035906020019064010000000081111561043657600080fd5b82018360208201111561044857600080fd5b8035906020019184600183028401116401000000008311171561046a57600080fd5b91908080601f016020809104026020016040519081016040528093929190818152602001838380828437600081840152601f19601f82011690508083019250505050505050919291929080359060200190929190505050611197565b005b6104d06112ff565b6040518082815260200191505060405180910390f35b610512600480360360208110156104fc57600080fd5b810190808035906020019092919050505061131f565b60405180806020018060200185815260200180602001848103845288818151815260200191508051906020019080838360005b83811015610560578082015181840152602081019050610545565b50505050905090810190601f16801561058d5780820380516001836020036101000a031916815260200191505b50848103835287818151815260200191508051906020019080838360005b838110156105c65780820151818401526020810190506105ab565b50505050905090810190601f1680156105f35780820380516001836020036101000a031916815260200191505b50848103825285818151815260200191508051906020019080838360005b8381101561062c578082015181840152602081019050610611565b50505050905090810190601f1680156106595780820380516001836020036101000a031916815260200191505b5097505050505050505060405180910390f35b610674611517565b6040518080602001828103825283818151815260200191508051906020019080838360005b838110156106b4578082015181840152602081019050610699565b50505050905090810190601f1680156106e15780820380516001836020036101000a031916815260200191505b509250505060405180910390f35b6106f76115ce565b6040518082815260200191505060405180910390f35b6107c66004803603602081101561072357600080fd5b810190808035906020019064010000000081111561074057600080fd5b82018360208201111561075257600080fd5b8035906020019184600183028401116401000000008311171561077457600080fd5b91908080601f016020809104026020016040519081016040528093929190818152602001838380828437600081840152601f19601f8201169050808301925050505050505091929192905050506115d7565b005b6109b9600480360360808110156107de57600080fd5b81019080803590602001906401000000008111156107fb57600080fd5b82018360208201111561080d57600080fd5b8035906020019184600183028401116401000000008311171561082f57600080fd5b91908080601f016020809104026020016040519081016040528093929190818152602001838380828437600081840152601f19601f8201169050808301925050505050505091929192908035906020019064010000000081111561089257600080fd5b8201836020820111156108a457600080fd5b803590602001918460018302840111640100000000831117156108c657600080fd5b91908080601f016020809104026020016040519081016040528093929190818152602001838380828437600081840152601f19601f820116905080830192505050505050509192919290803590602001909291908035906020019064010000000081111561093357600080fd5b82018360208201111561094557600080fd5b8035906020019184600183028401116401000000008311171561096757600080fd5b91908080601f016020809104026020016040519081016040528093929190818152602001838380828437600081840152601f19601f820116905080830192505050505050509192919290505050611606565b005b6109c36116b1565b6040518080602001828103825283818151815260200191508051906020019080838360005b83811015610a035780820151818401526020810190506109e8565b50505050905090810190601f168015610a305780820380516001836020036101000a031916815260200191505b509250505060405180910390f35b610a8a60048036036040811015610a5457600080fd5b81019080803573ffffffffffffffffffffffffffffffffffffffff16906020019092919080359060200190929190505050611769565b604051808060200180602001806020018060200186815260200185810385528a818151815260200191508051906020019080838360005b83811015610adc578082015181840152602081019050610ac1565b50505050905090810190601f168015610b095780820380516001836020036101000a031916815260200191505b50858103845289818151815260200191508051906020019080838360005b83811015610b42578082015181840152602081019050610b27565b50505050905090810190601f168015610b6f5780820380516001836020036101000a031916815260200191505b50858103835288818151815260200191508051906020019080838360005b83811015610ba8578082015181840152602081019050610b8d565b50505050905090810190601f168015610bd55780820380516001836020036101000a031916815260200191505b50858103825287818151815260200191508051906020019080838360005b83811015610c0e578082015181840152602081019050610bf3565b50505050905090810190601f168015610c3b5780820380516001836020036101000a031916815260200191505b50995050505050505050505060405180910390f35b610c58611a0c565b6040518080602001828103825283818151815260200191508051906020019080838360005b83811015610c98578082015181840152602081019050610c7d565b50505050905090810190601f168015610cc55780820380516001836020036101000a031916815260200191505b509250505060405180910390f35b610cff60048036036020811015610ce957600080fd5b8101908080359060200190929190505050611ac4565b604051808060200180602001806020018060200186815260200185810385528a818151815260200191508051906020019080838360005b83811015610d51578082015181840152602081019050610d36565b50505050905090810190601f168015610d7e5780820380516001836020036101000a031916815260200191505b50858103845289818151815260200191508051906020019080838360005b83811015610db7578082015181840152602081019050610d9c565b50505050905090810190601f168015610de45780820380516001836020036101000a031916815260200191505b50858103835288818151815260200191508051906020019080838360005b83811015610e1d578082015181840152602081019050610e02565b50505050905090810190601f168015610e4a5780820380516001836020036101000a031916815260200191505b50858103825287818151815260200191508051906020019080838360005b83811015610e83578082015181840152602081019050610e68565b50505050905090810190601f168015610eb05780820380516001836020036101000a031916815260200191505b50995050505050505050505060405180910390f35b610ecd611d5a565b6040518080602001828103825283818151815260200191508051906020019080838360005b83811015610f0d578082015181840152602081019050610ef2565b50505050905090810190601f168015610f3a5780820380516001836020036101000a031916815260200191505b509250505060405180910390f35b6000600360008054815260200190815260200160002060040154905090565b606060036000805481526020019081526020016000206001018054600181600116156101000203166002900480601f0160208091040260200160405190810160405280929190818152602001828054600181600116156101000203166002900480156110145780601f10610fe957610100808354040283529160200191611014565b820191906000526020600020905b815481529060010190602001808311610ff757829003601f168201915b5050505050905090565b606060036000805481526020019081526020016000206000018054600181600116156101000203166002900480601f0160208091040260200160405190810160405280929190818152602001828054600181600116156101000203166002900480156110cb5780601f106110a0576101008083540402835291602001916110cb565b820191906000526020600020905b8154815290600101906020018083116110ae57829003601f168201915b5050505050905090565b6000600154905090565b60606004600060015481526020019081526020016000206003018054600181600116156101000203166002900480601f01602080910402602001604051908101604052809291908181526020018280546001816001161561010002031660029004801561118d5780601f106111625761010080835404028352916020019161118d565b820191906000526020600020905b81548152906001019060200180831161117057829003601f168201915b5050505050905090565b6001600054016000819055506040518060a0016040528085815260200160028054600181600116156101000203166002900480601f01602080910402602001604051908101604052809291908181526020018280546001816001161561010002031660029004801561124a5780601f1061121f5761010080835404028352916020019161124a565b820191906000526020600020905b81548152906001019060200180831161122d57829003601f168201915b505050505081526020018481526020018381526020018281525060036000805481526020019081526020016000206000820151816000019080519060200190611294929190611e11565b5060208201518160010190805190602001906112b1929190611e11565b5060408201518160020190805190602001906112ce929190611e11565b5060608201518160030190805190602001906112eb929190611e11565b506080820151816004015590505050505050565b600060046000600154815260200190815260200160002060020154905090565b6004602052806000526040600020600091509050806000018054600181600116156101000203166002900480601f0160208091040260200160405190810160405280929190818152602001828054600181600116156101000203166002900480156113cb5780601f106113a0576101008083540402835291602001916113cb565b820191906000526020600020905b8154815290600101906020018083116113ae57829003601f168201915b505050505090806001018054600181600116156101000203166002900480601f0160208091040260200160405190810160405280929190818152602001828054600181600116156101000203166002900480156114695780601f1061143e57610100808354040283529160200191611469565b820191906000526020600020905b81548152906001019060200180831161144c57829003601f168201915b505050505090806002015490806003018054600181600116156101000203166002900480601f01602080910402602001604051908101604052809291908181526020018280546001816001161561010002031660029004801561150d5780601f106114e25761010080835404028352916020019161150d565b820191906000526020600020905b8154815290600101906020018083116114f057829003601f168201915b5050505050905084565b606060036000805481526020019081526020016000206002018054600181600116156101000203166002900480601f0160208091040260200160405190810160405280929190818152602001828054600181600116156101000203166002900480156115c45780601f10611599576101008083540402835291602001916115c4565b820191906000526020600020905b8154815290600101906020018083116115a757829003601f168201915b5050505050905090565b60008054905090565b8060036000805481526020019081526020016000206001019080519060200190611602929190611e91565b5050565b60018054016001819055506040518060800160405280858152602001848152602001838152602001828152506004600060015481526020019081526020016000206000820151816000019080519060200190611663929190611e11565b506020820151816001019080519060200190611680929190611e11565b506040820151816002015560608201518160030190805190602001906116a7929190611e11565b5090505050505050565b60606004600060015481526020019081526020016000206000018054600181600116156101000203166002900480601f01602080910402602001604051908101604052809291908181526020018280546001816001161561010002031660029004801561175f5780601f106117345761010080835404028352916020019161175f565b820191906000526020600020905b81548152906001019060200180831161174257829003601f168201915b5050505050905090565b600560205281600052604060002060205280600052604060002060009150915050806000018054600181600116156101000203166002900480601f0160208091040260200160405190810160405280929190818152602001828054600181600116156101000203166002900480156118225780601f106117f757610100808354040283529160200191611822565b820191906000526020600020905b81548152906001019060200180831161180557829003601f168201915b505050505090806001018054600181600116156101000203166002900480601f0160208091040260200160405190810160405280929190818152602001828054600181600116156101000203166002900480156118c05780601f10611895576101008083540402835291602001916118c0565b820191906000526020600020905b8154815290600101906020018083116118a357829003601f168201915b505050505090806002018054600181600116156101000203166002900480601f01602080910402602001604051908101604052809291908181526020018280546001816001161561010002031660029004801561195e5780601f106119335761010080835404028352916020019161195e565b820191906000526020600020905b81548152906001019060200180831161194157829003601f168201915b505050505090806003018054600181600116156101000203166002900480601f0160208091040260200160405190810160405280929190818152602001828054600181600116156101000203166002900480156119fc5780601f106119d1576101008083540402835291602001916119fc565b820191906000526020600020905b8154815290600101906020018083116119df57829003601f168201915b5050505050908060040154905085565b60606004600060015481526020019081526020016000206001018054600181600116156101000203166002900480601f016020809104026020016040519081016040528092919081815260200182805460018160011615610100020316600290048015611aba5780601f10611a8f57610100808354040283529160200191611aba565b820191906000526020600020905b815481529060010190602001808311611a9d57829003601f168201915b5050505050905090565b6003602052806000526040600020600091509050806000018054600181600116156101000203166002900480601f016020809104026020016040519081016040528092919081815260200182805460018160011615610100020316600290048015611b705780601f10611b4557610100808354040283529160200191611b70565b820191906000526020600020905b815481529060010190602001808311611b5357829003601f168201915b505050505090806001018054600181600116156101000203166002900480601f016020809104026020016040519081016040528092919081815260200182805460018160011615610100020316600290048015611c0e5780601f10611be357610100808354040283529160200191611c0e565b820191906000526020600020905b815481529060010190602001808311611bf157829003601f168201915b505050505090806002018054600181600116156101000203166002900480601f016020809104026020016040519081016040528092919081815260200182805460018160011615610100020316600290048015611cac5780601f10611c8157610100808354040283529160200191611cac565b820191906000526020600020905b815481529060010190602001808311611c8f57829003601f168201915b505050505090806003018054600181600116156101000203166002900480601f016020809104026020016040519081016040528092919081815260200182805460018160011615610100020316600290048015611d4a5780601f10611d1f57610100808354040283529160200191611d4a565b820191906000526020600020905b815481529060010190602001808311611d2d57829003601f168201915b5050505050908060040154905085565b606060036000805481526020019081526020016000206003018054600181600116156101000203166002900480601f016020809104026020016040519081016040528092919081815260200182805460018160011615610100020316600290048015611e075780601f10611ddc57610100808354040283529160200191611e07565b820191906000526020600020905b815481529060010190602001808311611dea57829003601f168201915b5050505050905090565b828054600181600116156101000203166002900490600052602060002090601f016020900481019282601f10611e5257805160ff1916838001178555611e80565b82800160010185558215611e80579182015b82811115611e7f578251825591602001919060010190611e64565b5b509050611e8d9190611f11565b5090565b828054600181600116156101000203166002900490600052602060002090601f016020900481019282601f10611ed257805160ff1916838001178555611f00565b82800160010185558215611f00579182015b82811115611eff578251825591602001919060010190611ee4565b5b509050611f0d9190611f11565b5090565b611f3391905b80821115611f2f576000816000905550600101611f17565b5090565b9056fea265627a7a7231582057f983cc7ba9bfee6e3116e21b695a48ab36056073de443940e5e9694ca2f45264736f6c63430005100032",
  "source": "// SPDX-License-Identifier: MIT\npragma solidity >=0.5.16 <8.10.0;\n\ncontract ProvStorage {\n  //string ipfsHash;\n  //not using transaction ID like this. \n  uint txNumber = 0;\n  uint txNumber_download = 0;\n\n  //uint blockNumber = block.number;\n  //bytes32 txHash =  (blockhash(blockNumber -1));\n  string txHash = \"empty\";\n\n// Upload structure\nstruct Upload {\n  //struct for each upload instance\n  string ipfsHash;\n  string txHash;\n  string author;\n  string filename;\n  uint timestamp;  \n}\n//Download Structure - Download instances also added to chain\nstruct Download {\n  string ipfsHash;\n  string filename;\n  uint timestamp;\n  string downloader;\n  //string ip;  need to pull from dapp\n}\n//Mappings\nmapping(uint => Upload) public uploads;\n//txNumber maps to an Upload instance\nmapping(uint=> Download) public downloads;\n//txNumber_downloads maps to Download instance?\n\nmapping(address => mapping(uint => Upload)) public address_uploads;  //NOT IN USE\n//Uploads can also be mapped to an address (the account of the person who created the upload.)\n\n\n//Conversion functions:\n/*\nfunction bytes32ToString(bytes32 _bytes32) public pure returns (string memory) {\n  //From: https://ethereum.stackexchange.com/questions/2519/how-to-convert-a-bytes32-to-string\n  //Converts a bytes32 num to string.\n  uint8 i = 0;\n  while(i < 32 && _bytes32[i] != 0) {\n    i++;\n  }\n  bytes memory bytesArray = new bytes(i);\n    for (i = 0; i < 32 && _bytes32[i] != 0; i++) {\n      bytesArray[i] = _bytes32[i];\n    }\n  return string(bytesArray);\n}\n\nfunction uint2str(uint _i) internal pure returns (string memory _uintAsString) {\n  //From: https://stackoverflow.com/questions/47129173/how-to-convert-uint-to-string-in-solidity\n  //Converts Uint to string\n  if (_i == 0) {\n    return \"0\";\n  }\n  uint j = _i;\n  uint len;\n  while (j != 0) {\n    len++;\n    j /= 10;\n  }\n  bytes memory bstr = new bytes(len);\n  uint k = len;\n  while (_i != 0) {\n    k = k-1;\n    uint8 temp = (48 + uint8(_i - _i / 10 * 10));\n    bytes1 b1 = bytes1(temp);\n    bstr[k] = b1;\n    _i /= 10;\n  }\n  return string(bstr);\n}\n*/\n\n//DateUtils- https://github.com/SkeletonCodeworks/DateUtils \n\n//Mappings:\n\n  \n  function upload(string memory _ipfsHash, string memory _author, string memory _filename, uint _timestamp) public {\n    //associate an upload with address and create the instance\n    txNumber = txNumber +1;\n    //address_uploads[msg.sender][txNumber] = Upload(_ipfsHash, txHash, _author, _filename, _timestamp);\n    uploads[txNumber] = Upload(_ipfsHash, txHash , _author, _filename, _timestamp);  \n  }\n\n  function download(string memory _ipfsHash, string memory _filename, uint _time, string memory _downloader) public {\n    txNumber_download = txNumber_download +1;\n    downloads[txNumber_download] = Download(_ipfsHash, _filename, _time, _downloader);\n  }\n  //----- Conditional Getters ----------\n  // Function can only return one variable in Solidity, \n  // returning entire transaction as a string instead. \n  /*\n  function append(string memory a, string memory b, string memory c, string memory d, string memory e, string memory f) internal pure returns (string memory) {\n\n    return string(abi.encodePacked(a, b, c, d, e, f));\n  }\n\n  function getUploadByTxNumber(uint txNum) public view returns (string memory){\n    //storage or memory?\n    string memory a = uint2str(txNum);\n    string memory b = uploads[txNum].ipfsHash;\n    string memory c = bytes32ToString(uploads[txNum].txHash); //need to convert to string\n    string memory d = uploads[txNum].author;\n    string memory e = uploads[txNum].filename;\n    string memory f = uint2str(uploads[txNum].timestamp);  \n    //Solidity does not let you concat strings. \n    //return \"Transaction Type: UPLOAD\\nTransaction count: \" + a + \"\\nIPFS Hash: \" + b + \"\\nTrasanction Hash: \" + c + \"\\nAuthor: \" + d + \"\\nFilename: \" + e + \"\\nTimestamp (unix): \" + f;\n    return append(a,b,c,d,e,f);\n  }\n  */\n  //function to update txHash with correct value (blockhash) that gets generated after 'upload' is called\n  function updateTxHash(string memory _txHash) public {\n    uploads[txNumber].txHash = _txHash;\n  }\n\n  //---------Upload Get---------\n  function getTxNumber() public view returns (uint){\n    //return the latest transaction number\n    return txNumber;\n  }\n\n  function getIPFS() public view returns (string memory){\n    //return the ipfsHash taking transaction ID & msg.sender.\n    //return address_uploads[msg.sender][txNumber].ipfsHash;\n    return uploads[txNumber].ipfsHash;\n  }\n\n  function getTxHash() public view returns (string memory){\n    //Return transactionHash\n    //return address_uploads[msg.sender][txNumber].txHash;\n    return uploads[txNumber].txHash;\n  }\n\n  function getAuthor() public view returns (string memory){\n    //return author based on txNumber and current account.\n    //return address_uploads[msg.sender][txNumber].author;\n    return uploads[txNumber].author;\n  }\n\n   function getFileName() public view returns (string memory){\n    //return author based on txNumber and current account.\n    //return address_uploads[msg.sender][txNumber].filename;\n    return uploads[txNumber].filename;\n  }\n  \n   function getTimestamp() public view returns (uint){\n    //return author based on txNumber and current account.\n    //return address_uploads[msg.sender][txNumber].timestamp;\n    return uploads[txNumber].timestamp;\n  }\n  //-------------------------------------------------------------\n//----------- Download Get ------------------\n  function getTxNumber_down() public view returns (uint){\n    //return the latest transaction number\n    return txNumber_download;\n  }\n\n  function getIPFS_down() public view returns (string memory){\n    return downloads[txNumber_download].ipfsHash;\n  }\n\n  function getFileName_down() public view returns (string memory){\n    return downloads[txNumber_download].filename;\n  }\n\n  function getTimestamp_down() public view returns (uint){\n    return downloads[txNumber_download].timestamp;\n  }\n  function getDownloader() public view returns (string memory){\n    return downloads[txNumber_download].downloader;\n  }\n}\n\n//msg.sender = the address of the acccount currently running contract.",
  "sourcePath": "/Users/farkasmaro/Documents/ipfs-project/contracts/ProvStorage.sol",
  "compiler": {
    "name": "solc",
    "version": "0.5.16+commit.9c3226ce.Emscripten.clang"
  },
  "schemaVersion": "3.4.3",
  "updatedAt": "2022-03-23T18:36:10.567Z",
  "devdoc": {
    "methods": {}
  },
  "userdoc": {
    "methods": {}
  }
}