{
  "contractName": "ProvStorage",
  "abi": [
    {
      "constant": true,
      "inputs": [
        {
          "internalType": "string",
          "name": "",
          "type": "string"
        }
      ],
      "name": "downloads",
      "outputs": [
        {
          "internalType": "uint256",
          "name": "txNumber",
          "type": "uint256"
        },
        {
          "internalType": "string",
          "name": "ipfsHash",
          "type": "string"
        },
        {
          "internalType": "string",
          "name": "txHash",
          "type": "string"
        },
        {
          "internalType": "string",
          "name": "downloader",
          "type": "string"
        },
        {
          "internalType": "string",
          "name": "filename",
          "type": "string"
        },
        {
          "internalType": "uint256",
          "name": "timestamp",
          "type": "uint256"
        },
        {
          "internalType": "string",
          "name": "IP",
          "type": "string"
        }
      ],
      "payable": false,
      "stateMutability": "view",
      "type": "function"
    },
    {
      "constant": true,
      "inputs": [
        {
          "internalType": "string",
          "name": "",
          "type": "string"
        }
      ],
      "name": "uploads",
      "outputs": [
        {
          "internalType": "uint256",
          "name": "txNumber",
          "type": "uint256"
        },
        {
          "internalType": "string",
          "name": "ipfsHash",
          "type": "string"
        },
        {
          "internalType": "string",
          "name": "txHash",
          "type": "string"
        },
        {
          "internalType": "string",
          "name": "author",
          "type": "string"
        },
        {
          "internalType": "string",
          "name": "filename",
          "type": "string"
        },
        {
          "internalType": "uint256",
          "name": "timestamp",
          "type": "uint256"
        },
        {
          "internalType": "string",
          "name": "IP",
          "type": "string"
        }
      ],
      "payable": false,
      "stateMutability": "view",
      "type": "function"
    },
    {
      "constant": false,
      "inputs": [
        {
          "internalType": "string",
          "name": "_ipfsHash",
          "type": "string"
        },
        {
          "internalType": "string",
          "name": "_author",
          "type": "string"
        },
        {
          "internalType": "string",
          "name": "_filename",
          "type": "string"
        },
        {
          "internalType": "uint256",
          "name": "_timestamp",
          "type": "uint256"
        },
        {
          "internalType": "string",
          "name": "_IP",
          "type": "string"
        }
      ],
      "name": "upload",
      "outputs": [],
      "payable": false,
      "stateMutability": "nonpayable",
      "type": "function"
    },
    {
      "constant": false,
      "inputs": [
        {
          "internalType": "string",
          "name": "_ipfsHash",
          "type": "string"
        },
        {
          "internalType": "string",
          "name": "_filename",
          "type": "string"
        },
        {
          "internalType": "uint256",
          "name": "_time",
          "type": "uint256"
        },
        {
          "internalType": "string",
          "name": "_downloader",
          "type": "string"
        },
        {
          "internalType": "string",
          "name": "_IP",
          "type": "string"
        }
      ],
      "name": "download",
      "outputs": [],
      "payable": false,
      "stateMutability": "nonpayable",
      "type": "function"
    },
    {
      "constant": false,
      "inputs": [
        {
          "internalType": "string",
          "name": "_txHash",
          "type": "string"
        }
      ],
      "name": "updateTxHash_upload",
      "outputs": [],
      "payable": false,
      "stateMutability": "nonpayable",
      "type": "function"
    },
    {
      "constant": false,
      "inputs": [
        {
          "internalType": "string",
          "name": "_txHash",
          "type": "string"
        }
      ],
      "name": "updateTxHash_download",
      "outputs": [],
      "payable": false,
      "stateMutability": "nonpayable",
      "type": "function"
    },
    {
      "constant": true,
      "inputs": [],
      "name": "getTxNumber_up_latest",
      "outputs": [
        {
          "internalType": "uint256",
          "name": "",
          "type": "uint256"
        }
      ],
      "payable": false,
      "stateMutability": "view",
      "type": "function"
    },
    {
      "constant": true,
      "inputs": [],
      "name": "getIPFS_up_latest",
      "outputs": [
        {
          "internalType": "string",
          "name": "",
          "type": "string"
        }
      ],
      "payable": false,
      "stateMutability": "view",
      "type": "function"
    },
    {
      "constant": true,
      "inputs": [],
      "name": "getTxHash_up_latest",
      "outputs": [
        {
          "internalType": "string",
          "name": "",
          "type": "string"
        }
      ],
      "payable": false,
      "stateMutability": "view",
      "type": "function"
    },
    {
      "constant": true,
      "inputs": [],
      "name": "getAuthor_up_latest",
      "outputs": [
        {
          "internalType": "string",
          "name": "",
          "type": "string"
        }
      ],
      "payable": false,
      "stateMutability": "view",
      "type": "function"
    },
    {
      "constant": true,
      "inputs": [],
      "name": "getFileName_up_latest",
      "outputs": [
        {
          "internalType": "string",
          "name": "",
          "type": "string"
        }
      ],
      "payable": false,
      "stateMutability": "view",
      "type": "function"
    },
    {
      "constant": true,
      "inputs": [],
      "name": "getTimestamp_up_latest",
      "outputs": [
        {
          "internalType": "uint256",
          "name": "",
          "type": "uint256"
        }
      ],
      "payable": false,
      "stateMutability": "view",
      "type": "function"
    },
    {
      "constant": true,
      "inputs": [],
      "name": "getIP_up_latest",
      "outputs": [
        {
          "internalType": "string",
          "name": "",
          "type": "string"
        }
      ],
      "payable": false,
      "stateMutability": "view",
      "type": "function"
    },
    {
      "constant": true,
      "inputs": [],
      "name": "getTxNumber_down_latest",
      "outputs": [
        {
          "internalType": "uint256",
          "name": "",
          "type": "uint256"
        }
      ],
      "payable": false,
      "stateMutability": "view",
      "type": "function"
    },
    {
      "constant": true,
      "inputs": [],
      "name": "getIPFS_down_latest",
      "outputs": [
        {
          "internalType": "string",
          "name": "",
          "type": "string"
        }
      ],
      "payable": false,
      "stateMutability": "view",
      "type": "function"
    },
    {
      "constant": true,
      "inputs": [],
      "name": "getTxHash_down_latest",
      "outputs": [
        {
          "internalType": "string",
          "name": "",
          "type": "string"
        }
      ],
      "payable": false,
      "stateMutability": "view",
      "type": "function"
    },
    {
      "constant": true,
      "inputs": [],
      "name": "getFileName_down_latest",
      "outputs": [
        {
          "internalType": "string",
          "name": "",
          "type": "string"
        }
      ],
      "payable": false,
      "stateMutability": "view",
      "type": "function"
    },
    {
      "constant": true,
      "inputs": [],
      "name": "getTimestamp_down_latest",
      "outputs": [
        {
          "internalType": "uint256",
          "name": "",
          "type": "uint256"
        }
      ],
      "payable": false,
      "stateMutability": "view",
      "type": "function"
    },
    {
      "constant": true,
      "inputs": [],
      "name": "getDownloader_latest",
      "outputs": [
        {
          "internalType": "string",
          "name": "",
          "type": "string"
        }
      ],
      "payable": false,
      "stateMutability": "view",
      "type": "function"
    },
    {
      "constant": true,
      "inputs": [],
      "name": "getIP_down_latest",
      "outputs": [
        {
          "internalType": "string",
          "name": "",
          "type": "string"
        }
      ],
      "payable": false,
      "stateMutability": "view",
      "type": "function"
    },
    {
      "constant": true,
      "inputs": [
        {
          "internalType": "string",
          "name": "txHash",
          "type": "string"
        }
      ],
      "name": "getTxNumber_up",
      "outputs": [
        {
          "internalType": "uint256",
          "name": "",
          "type": "uint256"
        }
      ],
      "payable": false,
      "stateMutability": "view",
      "type": "function"
    },
    {
      "constant": true,
      "inputs": [
        {
          "internalType": "string",
          "name": "txHash",
          "type": "string"
        }
      ],
      "name": "getIPFS_up",
      "outputs": [
        {
          "internalType": "string",
          "name": "",
          "type": "string"
        }
      ],
      "payable": false,
      "stateMutability": "view",
      "type": "function"
    },
    {
      "constant": true,
      "inputs": [
        {
          "internalType": "string",
          "name": "txHash",
          "type": "string"
        }
      ],
      "name": "getTxHash_up",
      "outputs": [
        {
          "internalType": "string",
          "name": "",
          "type": "string"
        }
      ],
      "payable": false,
      "stateMutability": "view",
      "type": "function"
    },
    {
      "constant": true,
      "inputs": [
        {
          "internalType": "string",
          "name": "txHash",
          "type": "string"
        }
      ],
      "name": "getAuthor_up",
      "outputs": [
        {
          "internalType": "string",
          "name": "",
          "type": "string"
        }
      ],
      "payable": false,
      "stateMutability": "view",
      "type": "function"
    },
    {
      "constant": true,
      "inputs": [
        {
          "internalType": "string",
          "name": "txHash",
          "type": "string"
        }
      ],
      "name": "getFileName_up",
      "outputs": [
        {
          "internalType": "string",
          "name": "",
          "type": "string"
        }
      ],
      "payable": false,
      "stateMutability": "view",
      "type": "function"
    },
    {
      "constant": true,
      "inputs": [
        {
          "internalType": "string",
          "name": "txHash",
          "type": "string"
        }
      ],
      "name": "getTimestamp_up",
      "outputs": [
        {
          "internalType": "uint256",
          "name": "",
          "type": "uint256"
        }
      ],
      "payable": false,
      "stateMutability": "view",
      "type": "function"
    },
    {
      "constant": true,
      "inputs": [
        {
          "internalType": "string",
          "name": "txHash",
          "type": "string"
        }
      ],
      "name": "getIP_up",
      "outputs": [
        {
          "internalType": "string",
          "name": "",
          "type": "string"
        }
      ],
      "payable": false,
      "stateMutability": "view",
      "type": "function"
    },
    {
      "constant": true,
      "inputs": [
        {
          "internalType": "string",
          "name": "txHash",
          "type": "string"
        }
      ],
      "name": "getTxNumber_down",
      "outputs": [
        {
          "internalType": "uint256",
          "name": "",
          "type": "uint256"
        }
      ],
      "payable": false,
      "stateMutability": "view",
      "type": "function"
    },
    {
      "constant": true,
      "inputs": [
        {
          "internalType": "string",
          "name": "txHash",
          "type": "string"
        }
      ],
      "name": "getIPFS_down",
      "outputs": [
        {
          "internalType": "string",
          "name": "",
          "type": "string"
        }
      ],
      "payable": false,
      "stateMutability": "view",
      "type": "function"
    },
    {
      "constant": true,
      "inputs": [
        {
          "internalType": "string",
          "name": "txHash",
          "type": "string"
        }
      ],
      "name": "getTxHash_down",
      "outputs": [
        {
          "internalType": "string",
          "name": "",
          "type": "string"
        }
      ],
      "payable": false,
      "stateMutability": "view",
      "type": "function"
    },
    {
      "constant": true,
      "inputs": [
        {
          "internalType": "string",
          "name": "txHash",
          "type": "string"
        }
      ],
      "name": "getFileName_down",
      "outputs": [
        {
          "internalType": "string",
          "name": "",
          "type": "string"
        }
      ],
      "payable": false,
      "stateMutability": "view",
      "type": "function"
    },
    {
      "constant": true,
      "inputs": [
        {
          "internalType": "string",
          "name": "txHash",
          "type": "string"
        }
      ],
      "name": "getTimestamp_down",
      "outputs": [
        {
          "internalType": "uint256",
          "name": "",
          "type": "uint256"
        }
      ],
      "payable": false,
      "stateMutability": "view",
      "type": "function"
    },
    {
      "constant": true,
      "inputs": [
        {
          "internalType": "string",
          "name": "txHash",
          "type": "string"
        }
      ],
      "name": "getDownloader",
      "outputs": [
        {
          "internalType": "string",
          "name": "",
          "type": "string"
        }
      ],
      "payable": false,
      "stateMutability": "view",
      "type": "function"
    },
    {
      "constant": true,
      "inputs": [
        {
          "internalType": "string",
          "name": "txHash",
          "type": "string"
        }
      ],
      "name": "getIP_down",
      "outputs": [
        {
          "internalType": "string",
          "name": "",
          "type": "string"
        }
      ],
      "payable": false,
      "stateMutability": "view",
      "type": "function"
    }
  ],
  "bytecode": "0x6080604052600080556000600155604051806020016040528060008152506002908051906020019062000034929190620000bf565b5060405180602001604052806000815250600390805190602001906200005c929190620000bf565b506040518060400160405280600681526020017f6f726967696e000000000000000000000000000000000000000000000000000081525060049080519060200190620000aa929190620000bf565b50348015620000b857600080fd5b506200016e565b828054600181600116156101000203166002900490600052602060002090601f016020900481019282601f106200010257805160ff191683800117855562000133565b8280016001018555821562000133579182015b828111156200013257825182559160200191906001019062000115565b5b50905062000142919062000146565b5090565b6200016b91905b80821115620001675760008160009055506001016200014d565b5090565b90565b614bed806200017e6000396000f3fe608060405234801561001057600080fd5b50600436106102055760003560e01c806394e5abb01161011a578063c91804a9116100ad578063e05f8ef91161007c578063e05f8ef914611ec9578063e630665614611f98578063e8181391146120cc578063e841d2c814612200578063f304a8d21461221e57610205565b8063c91804a914611c71578063c98073be14611cf4578063d3fdf20a14611d12578063d59a0c8714611e4657610205565b8063ab6f47e8116100e9578063ab6f47e814611775578063be6851a5146117f8578063c1af68c514611a82578063c47c143b14611b3d57610205565b806394e5abb0146110f357806399cd8195146113e55780639ff9715114611468578063a096e5d0146116f257610205565b806354df221b1161019d578063746044001161016c5780637460440014610b5d57806376c6834114610e4f5780637ad13c0314610e6d5780637fcc9ffa14610fa15780638bc2b5221461102457610205565b806354df221b14610868578063666b6dcb146108eb5780636deb24bd14610a1f578063743e08e614610ada57610205565b80632082133b116101d95780632082133b146105c45780633ccc9686146106f857806346dc4e841461077b5780635317b7dd1461079957610205565b8062c926d71461020a5780630869b8a5146102d9578063154778dc1461040d578063189e091414610490575b600080fd5b6102c36004803603602081101561022057600080fd5b810190808035906020019064010000000081111561023d57600080fd5b82018360208201111561024f57600080fd5b8035906020019184600183028401116401000000008311171561027157600080fd5b91908080601f016020809104026020016040519081016040528093929190818152602001838380828437600081840152601f19601f820116905080830192505050505050509192919290505050612352565b6040518082815260200191505060405180910390f35b610392600480360360208110156102ef57600080fd5b810190808035906020019064010000000081111561030c57600080fd5b82018360208201111561031e57600080fd5b8035906020019184600183028401116401000000008311171561034057600080fd5b91908080601f016020809104026020016040519081016040528093929190818152602001838380828437600081840152601f19601f8201169050808301925050505050505091929192905050506123c8565b6040518080602001828103825283818151815260200191508051906020019080838360005b838110156103d25780820151818401526020810190506103b7565b50505050905090810190601f1680156103ff5780820380516001836020036101000a031916815260200191505b509250505060405180910390f35b6104156124d6565b6040518080602001828103825283818151815260200191508051906020019080838360005b8381101561045557808201518184015260208101905061043a565b50505050905090810190601f1680156104825780820380516001836020036101000a031916815260200191505b509250505060405180910390f35b610549600480360360208110156104a657600080fd5b81019080803590602001906401000000008111156104c357600080fd5b8201836020820111156104d557600080fd5b803590602001918460018302840111640100000000831117156104f757600080fd5b91908080601f016020809104026020016040519081016040528093929190818152602001838380828437600081840152601f19601f8201169050808301925050505050505091929192905050506125eb565b6040518080602001828103825283818151815260200191508051906020019080838360005b8381101561058957808201518184015260208101905061056e565b50505050905090810190601f1680156105b65780820380516001836020036101000a031916815260200191505b509250505060405180910390f35b61067d600480360360208110156105da57600080fd5b81019080803590602001906401000000008111156105f757600080fd5b82018360208201111561060957600080fd5b8035906020019184600183028401116401000000008311171561062b57600080fd5b91908080601f016020809104026020016040519081016040528093929190818152602001838380828437600081840152601f19601f8201169050808301925050505050505091929192905050506126f9565b6040518080602001828103825283818151815260200191508051906020019080838360005b838110156106bd5780820151818401526020810190506106a2565b50505050905090810190601f1680156106ea5780820380516001836020036101000a031916815260200191505b509250505060405180910390f35b610700612807565b6040518080602001828103825283818151815260200191508051906020019080838360005b83811015610740578082015181840152602081019050610725565b50505050905090810190601f16801561076d5780820380516001836020036101000a031916815260200191505b509250505060405180910390f35b61078361291c565b6040518082815260200191505060405180910390f35b610852600480360360208110156107af57600080fd5b81019080803590602001906401000000008111156107cc57600080fd5b8201836020820111156107de57600080fd5b8035906020019184600183028401116401000000008311171561080057600080fd5b91908080601f016020809104026020016040519081016040528093929190818152602001838380828437600081840152601f19601f820116905080830192505050505050509192919290505050612999565b6040518082815260200191505060405180910390f35b610870612a0f565b6040518080602001828103825283818151815260200191508051906020019080838360005b838110156108b0578082015181840152602081019050610895565b50505050905090810190601f1680156108dd5780820380516001836020036101000a031916815260200191505b509250505060405180910390f35b6109a46004803603602081101561090157600080fd5b810190808035906020019064010000000081111561091e57600080fd5b82018360208201111561093057600080fd5b8035906020019184600183028401116401000000008311171561095257600080fd5b91908080601f016020809104026020016040519081016040528093929190818152602001838380828437600081840152601f19601f820116905080830192505050505050509192919290505050612b24565b6040518080602001828103825283818151815260200191508051906020019080838360005b838110156109e45780820151818401526020810190506109c9565b50505050905090810190601f168015610a115780820380516001836020036101000a031916815260200191505b509250505060405180910390f35b610ad860048036036020811015610a3557600080fd5b8101908080359060200190640100000000811115610a5257600080fd5b820183602082011115610a6457600080fd5b80359060200191846001830284011164010000000083111715610a8657600080fd5b91908080601f016020809104026020016040519081016040528093929190818152602001838380828437600081840152601f19601f820116905080830192505050505050509192919290505050612c32565b005b610ae2612e87565b6040518080602001828103825283818151815260200191508051906020019080838360005b83811015610b22578082015181840152602081019050610b07565b50505050905090810190601f168015610b4f5780820380516001836020036101000a031916815260200191505b509250505060405180910390f35b610c1660048036036020811015610b7357600080fd5b8101908080359060200190640100000000811115610b9057600080fd5b820183602082011115610ba257600080fd5b80359060200191846001830284011164010000000083111715610bc457600080fd5b91908080601f016020809104026020016040519081016040528093929190818152602001838380828437600081840152601f19601f820116905080830192505050505050509192919290505050612f9c565b60405180888152602001806020018060200180602001806020018781526020018060200186810386528c818151815260200191508051906020019080838360005b83811015610c72578082015181840152602081019050610c57565b50505050905090810190601f168015610c9f5780820380516001836020036101000a031916815260200191505b5086810385528b818151815260200191508051906020019080838360005b83811015610cd8578082015181840152602081019050610cbd565b50505050905090810190601f168015610d055780820380516001836020036101000a031916815260200191505b5086810384528a818151815260200191508051906020019080838360005b83811015610d3e578082015181840152602081019050610d23565b50505050905090810190601f168015610d6b5780820380516001836020036101000a031916815260200191505b50868103835289818151815260200191508051906020019080838360005b83811015610da4578082015181840152602081019050610d89565b50505050905090810190601f168015610dd15780820380516001836020036101000a031916815260200191505b50868103825287818151815260200191508051906020019080838360005b83811015610e0a578082015181840152602081019050610def565b50505050905090810190601f168015610e375780820380516001836020036101000a031916815260200191505b509c5050505050505050505050505060405180910390f35b610e576132ec565b6040518082815260200191505060405180910390f35b610f2660048036036020811015610e8357600080fd5b8101908080359060200190640100000000811115610ea057600080fd5b820183602082011115610eb257600080fd5b80359060200191846001830284011164010000000083111715610ed457600080fd5b91908080601f016020809104026020016040519081016040528093929190818152602001838380828437600081840152601f19601f820116905080830192505050505050509192919290505050613369565b6040518080602001828103825283818151815260200191508051906020019080838360005b83811015610f66578082015181840152602081019050610f4b565b50505050905090810190601f168015610f935780820380516001836020036101000a031916815260200191505b509250505060405180910390f35b610fa9613477565b6040518080602001828103825283818151815260200191508051906020019080838360005b83811015610fe9578082015181840152602081019050610fce565b50505050905090810190601f1680156110165780820380516001836020036101000a031916815260200191505b509250505060405180910390f35b6110dd6004803603602081101561103a57600080fd5b810190808035906020019064010000000081111561105757600080fd5b82018360208201111561106957600080fd5b8035906020019184600183028401116401000000008311171561108b57600080fd5b91908080601f016020809104026020016040519081016040528093929190818152602001838380828437600081840152601f19601f82011690508083019250505050505050919291929050505061358c565b6040518082815260200191505060405180910390f35b6111ac6004803603602081101561110957600080fd5b810190808035906020019064010000000081111561112657600080fd5b82018360208201111561113857600080fd5b8035906020019184600183028401116401000000008311171561115a57600080fd5b91908080601f016020809104026020016040519081016040528093929190818152602001838380828437600081840152601f19601f820116905080830192505050505050509192919290505050613602565b60405180888152602001806020018060200180602001806020018781526020018060200186810386528c818151815260200191508051906020019080838360005b838110156112085780820151818401526020810190506111ed565b50505050905090810190601f1680156112355780820380516001836020036101000a031916815260200191505b5086810385528b818151815260200191508051906020019080838360005b8381101561126e578082015181840152602081019050611253565b50505050905090810190601f16801561129b5780820380516001836020036101000a031916815260200191505b5086810384528a818151815260200191508051906020019080838360005b838110156112d45780820151818401526020810190506112b9565b50505050905090810190601f1680156113015780820380516001836020036101000a031916815260200191505b50868103835289818151815260200191508051906020019080838360005b8381101561133a57808201518184015260208101905061131f565b50505050905090810190601f1680156113675780820380516001836020036101000a031916815260200191505b50868103825287818151815260200191508051906020019080838360005b838110156113a0578082015181840152602081019050611385565b50505050905090810190601f1680156113cd5780820380516001836020036101000a031916815260200191505b509c5050505050505050505050505060405180910390f35b6113ed613952565b6040518080602001828103825283818151815260200191508051906020019080838360005b8381101561142d578082015181840152602081019050611412565b50505050905090810190601f16801561145a5780820380516001836020036101000a031916815260200191505b509250505060405180910390f35b6116f0600480360360a081101561147e57600080fd5b810190808035906020019064010000000081111561149b57600080fd5b8201836020820111156114ad57600080fd5b803590602001918460018302840111640100000000831117156114cf57600080fd5b91908080601f016020809104026020016040519081016040528093929190818152602001838380828437600081840152601f19601f8201169050808301925050505050505091929192908035906020019064010000000081111561153257600080fd5b82018360208201111561154457600080fd5b8035906020019184600183028401116401000000008311171561156657600080fd5b91908080601f016020809104026020016040519081016040528093929190818152602001838380828437600081840152601f19601f82011690508083019250505050505050919291929080359060200190929190803590602001906401000000008111156115d357600080fd5b8201836020820111156115e557600080fd5b8035906020019184600183028401116401000000008311171561160757600080fd5b91908080601f016020809104026020016040519081016040528093929190818152602001838380828437600081840152601f19601f8201169050808301925050505050505091929192908035906020019064010000000081111561166a57600080fd5b82018360208201111561167c57600080fd5b8035906020019184600183028401116401000000008311171561169e57600080fd5b91908080601f016020809104026020016040519081016040528093929190818152602001838380828437600081840152601f19601f820116905080830192505050505050509192919290505050613a67565b005b6116fa613bfd565b6040518080602001828103825283818151815260200191508051906020019080838360005b8381101561173a57808201518184015260208101905061171f565b50505050905090810190601f1680156117675780820380516001836020036101000a031916815260200191505b509250505060405180910390f35b61177d613d12565b6040518080602001828103825283818151815260200191508051906020019080838360005b838110156117bd5780820151818401526020810190506117a2565b50505050905090810190601f1680156117ea5780820380516001836020036101000a031916815260200191505b509250505060405180910390f35b611a80600480360360a081101561180e57600080fd5b810190808035906020019064010000000081111561182b57600080fd5b82018360208201111561183d57600080fd5b8035906020019184600183028401116401000000008311171561185f57600080fd5b91908080601f016020809104026020016040519081016040528093929190818152602001838380828437600081840152601f19601f820116905080830192505050505050509192919290803590602001906401000000008111156118c257600080fd5b8201836020820111156118d457600080fd5b803590602001918460018302840111640100000000831117156118f657600080fd5b91908080601f016020809104026020016040519081016040528093929190818152602001838380828437600081840152601f19601f8201169050808301925050505050505091929192908035906020019064010000000081111561195957600080fd5b82018360208201111561196b57600080fd5b8035906020019184600183028401116401000000008311171561198d57600080fd5b91908080601f016020809104026020016040519081016040528093929190818152602001838380828437600081840152601f19601f82011690508083019250505050505050919291929080359060200190929190803590602001906401000000008111156119fa57600080fd5b820183602082011115611a0c57600080fd5b80359060200191846001830284011164010000000083111715611a2e57600080fd5b91908080601f016020809104026020016040519081016040528093929190818152602001838380828437600081840152601f19601f820116905080830192505050505050509192919290505050613e27565b005b611b3b60048036036020811015611a9857600080fd5b8101908080359060200190640100000000811115611ab557600080fd5b820183602082011115611ac757600080fd5b80359060200191846001830284011164010000000083111715611ae957600080fd5b91908080601f016020809104026020016040519081016040528093929190818152602001838380828437600081840152601f19601f820116905080830192505050505050509192919290505050613fbe565b005b611bf660048036036020811015611b5357600080fd5b8101908080359060200190640100000000811115611b7057600080fd5b820183602082011115611b8257600080fd5b80359060200191846001830284011164010000000083111715611ba457600080fd5b91908080601f016020809104026020016040519081016040528093929190818152602001838380828437600081840152601f19601f820116905080830192505050505050509192919290505050614213565b6040518080602001828103825283818151815260200191508051906020019080838360005b83811015611c36578082015181840152602081019050611c1b565b50505050905090810190601f168015611c635780820380516001836020036101000a031916815260200191505b509250505060405180910390f35b611c79614321565b6040518080602001828103825283818151815260200191508051906020019080838360005b83811015611cb9578082015181840152602081019050611c9e565b50505050905090810190601f168015611ce65780820380516001836020036101000a031916815260200191505b509250505060405180910390f35b611cfc614436565b6040518082815260200191505060405180910390f35b611dcb60048036036020811015611d2857600080fd5b8101908080359060200190640100000000811115611d4557600080fd5b820183602082011115611d5757600080fd5b80359060200191846001830284011164010000000083111715611d7957600080fd5b91908080601f016020809104026020016040519081016040528093929190818152602001838380828437600081840152601f19601f82011690508083019250505050505050919291929050505061443f565b6040518080602001828103825283818151815260200191508051906020019080838360005b83811015611e0b578082015181840152602081019050611df0565b50505050905090810190601f168015611e385780820380516001836020036101000a031916815260200191505b509250505060405180910390f35b611e4e61454d565b6040518080602001828103825283818151815260200191508051906020019080838360005b83811015611e8e578082015181840152602081019050611e73565b50505050905090810190601f168015611ebb5780820380516001836020036101000a031916815260200191505b509250505060405180910390f35b611f8260048036036020811015611edf57600080fd5b8101908080359060200190640100000000811115611efc57600080fd5b820183602082011115611f0e57600080fd5b80359060200191846001830284011164010000000083111715611f3057600080fd5b91908080601f016020809104026020016040519081016040528093929190818152602001838380828437600081840152601f19601f820116905080830192505050505050509192919290505050614662565b6040518082815260200191505060405180910390f35b61205160048036036020811015611fae57600080fd5b8101908080359060200190640100000000811115611fcb57600080fd5b820183602082011115611fdd57600080fd5b80359060200191846001830284011164010000000083111715611fff57600080fd5b91908080601f016020809104026020016040519081016040528093929190818152602001838380828437600081840152601f19601f8201169050808301925050505050505091929192905050506146d8565b6040518080602001828103825283818151815260200191508051906020019080838360005b83811015612091578082015181840152602081019050612076565b50505050905090810190601f1680156120be5780820380516001836020036101000a031916815260200191505b509250505060405180910390f35b612185600480360360208110156120e257600080fd5b81019080803590602001906401000000008111156120ff57600080fd5b82018360208201111561211157600080fd5b8035906020019184600183028401116401000000008311171561213357600080fd5b91908080601f016020809104026020016040519081016040528093929190818152602001838380828437600081840152601f19601f8201169050808301925050505050505091929192905050506147e6565b6040518080602001828103825283818151815260200191508051906020019080838360005b838110156121c55780820151818401526020810190506121aa565b50505050905090810190601f1680156121f25780820380516001836020036101000a031916815260200191505b509250505060405180910390f35b6122086148f4565b6040518082815260200191505060405180910390f35b6122d76004803603602081101561223457600080fd5b810190808035906020019064010000000081111561225157600080fd5b82018360208201111561226357600080fd5b8035906020019184600183028401116401000000008311171561228557600080fd5b91908080601f016020809104026020016040519081016040528093929190818152602001838380828437600081840152601f19601f8201169050808301925050505050505091929192905050506148fe565b6040518080602001828103825283818151815260200191508051906020019080838360005b838110156123175780820151818401526020810190506122fc565b50505050905090810190601f1680156123445780820380516001836020036101000a031916815260200191505b509250505060405180910390f35b60006005826040518082805190602001908083835b6020831061238a5780518252602082019150602081019050602083039250612367565b6001836020036101000a0380198251168184511680821785525050505050509050019150509081526020016040518091039020600001549050919050565b60606005826040518082805190602001908083835b6020831061240057805182526020820191506020810190506020830392506123dd565b6001836020036101000a03801982511681845116808217855250505050505090500191505090815260200160405180910390206001018054600181600116156101000203166002900480601f0160208091040260200160405190810160405280929190818152602001828054600181600116156101000203166002900480156124ca5780601f1061249f576101008083540402835291602001916124ca565b820191906000526020600020905b8154815290600101906020018083116124ad57829003601f168201915b50505050509050919050565b60606005600260405180828054600181600116156101000203166002900480156125375780601f10612515576101008083540402835291820191612537565b820191906000526020600020905b815481529060010190602001808311612523575b505091505090815260200160405180910390206004018054600181600116156101000203166002900480601f0160208091040260200160405190810160405280929190818152602001828054600181600116156101000203166002900480156125e15780601f106125b6576101008083540402835291602001916125e1565b820191906000526020600020905b8154815290600101906020018083116125c457829003601f168201915b5050505050905090565b60606006826040518082805190602001908083835b602083106126235780518252602082019150602081019050602083039250612600565b6001836020036101000a03801982511681845116808217855250505050505090500191505090815260200160405180910390206002018054600181600116156101000203166002900480601f0160208091040260200160405190810160405280929190818152602001828054600181600116156101000203166002900480156126ed5780601f106126c2576101008083540402835291602001916126ed565b820191906000526020600020905b8154815290600101906020018083116126d057829003601f168201915b50505050509050919050565b60606006826040518082805190602001908083835b60208310612731578051825260208201915060208101905060208303925061270e565b6001836020036101000a03801982511681845116808217855250505050505090500191505090815260200160405180910390206003018054600181600116156101000203166002900480601f0160208091040260200160405190810160405280929190818152602001828054600181600116156101000203166002900480156127fb5780601f106127d0576101008083540402835291602001916127fb565b820191906000526020600020905b8154815290600101906020018083116127de57829003601f168201915b50505050509050919050565b60606006600360405180828054600181600116156101000203166002900480156128685780601f10612846576101008083540402835291820191612868565b820191906000526020600020905b815481529060010190602001808311612854575b505091505090815260200160405180910390206006018054600181600116156101000203166002900480601f0160208091040260200160405190810160405280929190818152602001828054600181600116156101000203166002900480156129125780601f106128e757610100808354040283529160200191612912565b820191906000526020600020905b8154815290600101906020018083116128f557829003601f168201915b5050505050905090565b600060056002604051808280546001816001161561010002031660029004801561297d5780601f1061295b57610100808354040283529182019161297d565b820191906000526020600020905b815481529060010190602001808311612969575b5050915050908152602001604051809103902060050154905090565b60006006826040518082805190602001908083835b602083106129d157805182526020820191506020810190506020830392506129ae565b6001836020036101000a0380198251168184511680821785525050505050509050019150509081526020016040518091039020600001549050919050565b6060600660036040518082805460018160011615610100020316600290048015612a705780601f10612a4e576101008083540402835291820191612a70565b820191906000526020600020905b815481529060010190602001808311612a5c575b505091505090815260200160405180910390206001018054600181600116156101000203166002900480601f016020809104026020016040519081016040528092919081815260200182805460018160011615610100020316600290048015612b1a5780601f10612aef57610100808354040283529160200191612b1a565b820191906000526020600020905b815481529060010190602001808311612afd57829003601f168201915b5050505050905090565b60606006826040518082805190602001908083835b60208310612b5c5780518252602082019150602081019050602083039250612b39565b6001836020036101000a03801982511681845116808217855250505050505090500191505090815260200160405180910390206004018054600181600116156101000203166002900480601f016020809104026020016040519081016040528092919081815260200182805460018160011615610100020316600290048015612c265780601f10612bfb57610100808354040283529160200191612c26565b820191906000526020600020905b815481529060010190602001808311612c0957829003601f168201915b50505050509050919050565b600560046040518082805460018160011615610100020316600290048015612c915780601f10612c6f576101008083540402835291820191612c91565b820191906000526020600020905b815481529060010190602001808311612c7d575b505091505090815260200160405180910390206005826040518082805190602001908083835b60208310612cda5780518252602082019150602081019050602083039250612cb7565b6001836020036101000a03801982511681845116808217855250505050505090500191505090815260200160405180910390206000820154816000015560018201816001019080546001816001161561010002031660029004612d3e929190614a0c565b5060028201816002019080546001816001161561010002031660029004612d66929190614a0c565b5060038201816003019080546001816001161561010002031660029004612d8e929190614a0c565b5060048201816004019080546001816001161561010002031660029004612db6929190614a0c565b506005820154816005015560068201816006019080546001816001161561010002031660029004612de8929190614a0c565b50905050806005826040518082805190602001908083835b60208310612e235780518252602082019150602081019050602083039250612e00565b6001836020036101000a03801982511681845116808217855250505050505090500191505090815260200160405180910390206002019080519060200190612e6c929190614a93565b508060029080519060200190612e83929190614a93565b5050565b6060600660036040518082805460018160011615610100020316600290048015612ee85780601f10612ec6576101008083540402835291820191612ee8565b820191906000526020600020905b815481529060010190602001808311612ed4575b505091505090815260200160405180910390206002018054600181600116156101000203166002900480601f016020809104026020016040519081016040528092919081815260200182805460018160011615610100020316600290048015612f925780601f10612f6757610100808354040283529160200191612f92565b820191906000526020600020905b815481529060010190602001808311612f7557829003601f168201915b5050505050905090565b600681805160208101820180518482526020830160208501208183528095505050505050600091509050806000015490806001018054600181600116156101000203166002900480601f0160208091040260200160405190810160405280929190818152602001828054600181600116156101000203166002900480156130645780601f1061303957610100808354040283529160200191613064565b820191906000526020600020905b81548152906001019060200180831161304757829003601f168201915b505050505090806002018054600181600116156101000203166002900480601f0160208091040260200160405190810160405280929190818152602001828054600181600116156101000203166002900480156131025780601f106130d757610100808354040283529160200191613102565b820191906000526020600020905b8154815290600101906020018083116130e557829003601f168201915b505050505090806003018054600181600116156101000203166002900480601f0160208091040260200160405190810160405280929190818152602001828054600181600116156101000203166002900480156131a05780601f10613175576101008083540402835291602001916131a0565b820191906000526020600020905b81548152906001019060200180831161318357829003601f168201915b505050505090806004018054600181600116156101000203166002900480601f01602080910402602001604051908101604052809291908181526020018280546001816001161561010002031660029004801561323e5780601f106132135761010080835404028352916020019161323e565b820191906000526020600020905b81548152906001019060200180831161322157829003601f168201915b505050505090806005015490806006018054600181600116156101000203166002900480601f0160208091040260200160405190810160405280929190818152602001828054600181600116156101000203166002900480156132e25780601f106132b7576101008083540402835291602001916132e2565b820191906000526020600020905b8154815290600101906020018083116132c557829003601f168201915b5050505050905087565b600060066003604051808280546001816001161561010002031660029004801561334d5780601f1061332b57610100808354040283529182019161334d565b820191906000526020600020905b815481529060010190602001808311613339575b5050915050908152602001604051809103902060050154905090565b60606005826040518082805190602001908083835b602083106133a1578051825260208201915060208101905060208303925061337e565b6001836020036101000a03801982511681845116808217855250505050505090500191505090815260200160405180910390206004018054600181600116156101000203166002900480601f01602080910402602001604051908101604052809291908181526020018280546001816001161561010002031660029004801561346b5780601f106134405761010080835404028352916020019161346b565b820191906000526020600020905b81548152906001019060200180831161344e57829003601f168201915b50505050509050919050565b60606005600260405180828054600181600116156101000203166002900480156134d85780601f106134b65761010080835404028352918201916134d8565b820191906000526020600020905b8154815290600101906020018083116134c4575b505091505090815260200160405180910390206002018054600181600116156101000203166002900480601f0160208091040260200160405190810160405280929190818152602001828054600181600116156101000203166002900480156135825780601f1061355757610100808354040283529160200191613582565b820191906000526020600020905b81548152906001019060200180831161356557829003601f168201915b5050505050905090565b60006006826040518082805190602001908083835b602083106135c457805182526020820191506020810190506020830392506135a1565b6001836020036101000a0380198251168184511680821785525050505050509050019150509081526020016040518091039020600501549050919050565b600581805160208101820180518482526020830160208501208183528095505050505050600091509050806000015490806001018054600181600116156101000203166002900480601f0160208091040260200160405190810160405280929190818152602001828054600181600116156101000203166002900480156136ca5780601f1061369f576101008083540402835291602001916136ca565b820191906000526020600020905b8154815290600101906020018083116136ad57829003601f168201915b505050505090806002018054600181600116156101000203166002900480601f0160208091040260200160405190810160405280929190818152602001828054600181600116156101000203166002900480156137685780601f1061373d57610100808354040283529160200191613768565b820191906000526020600020905b81548152906001019060200180831161374b57829003601f168201915b505050505090806003018054600181600116156101000203166002900480601f0160208091040260200160405190810160405280929190818152602001828054600181600116156101000203166002900480156138065780601f106137db57610100808354040283529160200191613806565b820191906000526020600020905b8154815290600101906020018083116137e957829003601f168201915b505050505090806004018054600181600116156101000203166002900480601f0160208091040260200160405190810160405280929190818152602001828054600181600116156101000203166002900480156138a45780601f10613879576101008083540402835291602001916138a4565b820191906000526020600020905b81548152906001019060200180831161388757829003601f168201915b505050505090806005015490806006018054600181600116156101000203166002900480601f0160208091040260200160405190810160405280929190818152602001828054600181600116156101000203166002900480156139485780601f1061391d57610100808354040283529160200191613948565b820191906000526020600020905b81548152906001019060200180831161392b57829003601f168201915b5050505050905087565b60606005600260405180828054600181600116156101000203166002900480156139b35780601f106139915761010080835404028352918201916139b3565b820191906000526020600020905b81548152906001019060200180831161399f575b505091505090815260200160405180910390206001018054600181600116156101000203166002900480601f016020809104026020016040519081016040528092919081815260200182805460018160011615610100020316600290048015613a5d5780601f10613a3257610100808354040283529160200191613a5d565b820191906000526020600020905b815481529060010190602001808311613a4057829003601f168201915b5050505050905090565b60018054016001819055506040518060e0016040528060015481526020018681526020016040518060400160405280600581526020017f656d707479000000000000000000000000000000000000000000000000000000815250815260200183815260200185815260200184815260200182815250600660046040518082805460018160011615610100020316600290048015613b3b5780601f10613b19576101008083540402835291820191613b3b565b820191906000526020600020905b815481529060010190602001808311613b27575b50509150509081526020016040518091039020600082015181600001556020820151816001019080519060200190613b74929190614b13565b506040820151816002019080519060200190613b91929190614b13565b506060820151816003019080519060200190613bae929190614b13565b506080820151816004019080519060200190613bcb929190614b13565b5060a0820151816005015560c0820151816006019080519060200190613bf2929190614b13565b509050505050505050565b6060600660036040518082805460018160011615610100020316600290048015613c5e5780601f10613c3c576101008083540402835291820191613c5e565b820191906000526020600020905b815481529060010190602001808311613c4a575b505091505090815260200160405180910390206004018054600181600116156101000203166002900480601f016020809104026020016040519081016040528092919081815260200182805460018160011615610100020316600290048015613d085780601f10613cdd57610100808354040283529160200191613d08565b820191906000526020600020905b815481529060010190602001808311613ceb57829003601f168201915b5050505050905090565b6060600660036040518082805460018160011615610100020316600290048015613d735780601f10613d51576101008083540402835291820191613d73565b820191906000526020600020905b815481529060010190602001808311613d5f575b505091505090815260200160405180910390206003018054600181600116156101000203166002900480601f016020809104026020016040519081016040528092919081815260200182805460018160011615610100020316600290048015613e1d5780601f10613df257610100808354040283529160200191613e1d565b820191906000526020600020905b815481529060010190602001808311613e0057829003601f168201915b5050505050905090565b6001600054016000819055506040518060e0016040528060005481526020018681526020016040518060400160405280600581526020017f656d707479000000000000000000000000000000000000000000000000000000815250815260200185815260200184815260200183815260200182815250600560046040518082805460018160011615610100020316600290048015613efc5780601f10613eda576101008083540402835291820191613efc565b820191906000526020600020905b815481529060010190602001808311613ee8575b50509150509081526020016040518091039020600082015181600001556020820151816001019080519060200190613f35929190614b13565b506040820151816002019080519060200190613f52929190614b13565b506060820151816003019080519060200190613f6f929190614b13565b506080820151816004019080519060200190613f8c929190614b13565b5060a0820151816005015560c0820151816006019080519060200190613fb3929190614b13565b509050505050505050565b60066004604051808280546001816001161561010002031660029004801561401d5780601f10613ffb57610100808354040283529182019161401d565b820191906000526020600020905b815481529060010190602001808311614009575b505091505090815260200160405180910390206006826040518082805190602001908083835b602083106140665780518252602082019150602081019050602083039250614043565b6001836020036101000a038019825116818451168082178552505050505050905001915050908152602001604051809103902060008201548160000155600182018160010190805460018160011615610100020316600290046140ca929190614a0c565b50600282018160020190805460018160011615610100020316600290046140f2929190614a0c565b506003820181600301908054600181600116156101000203166002900461411a929190614a0c565b5060048201816004019080546001816001161561010002031660029004614142929190614a0c565b506005820154816005015560068201816006019080546001816001161561010002031660029004614174929190614a0c565b50905050806006826040518082805190602001908083835b602083106141af578051825260208201915060208101905060208303925061418c565b6001836020036101000a038019825116818451168082178552505050505050905001915050908152602001604051809103902060020190805190602001906141f8929190614a93565b50806003908051906020019061420f929190614a93565b5050565b60606005826040518082805190602001908083835b6020831061424b5780518252602082019150602081019050602083039250614228565b6001836020036101000a03801982511681845116808217855250505050505090500191505090815260200160405180910390206002018054600181600116156101000203166002900480601f0160208091040260200160405190810160405280929190818152602001828054600181600116156101000203166002900480156143155780601f106142ea57610100808354040283529160200191614315565b820191906000526020600020905b8154815290600101906020018083116142f857829003601f168201915b50505050509050919050565b60606005600260405180828054600181600116156101000203166002900480156143825780601f10614360576101008083540402835291820191614382565b820191906000526020600020905b81548152906001019060200180831161436e575b505091505090815260200160405180910390206006018054600181600116156101000203166002900480601f01602080910402602001604051908101604052809291908181526020018280546001816001161561010002031660029004801561442c5780601f106144015761010080835404028352916020019161442c565b820191906000526020600020905b81548152906001019060200180831161440f57829003601f168201915b5050505050905090565b60008054905090565b60606006826040518082805190602001908083835b602083106144775780518252602082019150602081019050602083039250614454565b6001836020036101000a03801982511681845116808217855250505050505090500191505090815260200160405180910390206001018054600181600116156101000203166002900480601f0160208091040260200160405190810160405280929190818152602001828054600181600116156101000203166002900480156145415780601f1061451657610100808354040283529160200191614541565b820191906000526020600020905b81548152906001019060200180831161452457829003601f168201915b50505050509050919050565b60606005600260405180828054600181600116156101000203166002900480156145ae5780601f1061458c5761010080835404028352918201916145ae565b820191906000526020600020905b81548152906001019060200180831161459a575b505091505090815260200160405180910390206003018054600181600116156101000203166002900480601f0160208091040260200160405190810160405280929190818152602001828054600181600116156101000203166002900480156146585780601f1061462d57610100808354040283529160200191614658565b820191906000526020600020905b81548152906001019060200180831161463b57829003601f168201915b5050505050905090565b60006005826040518082805190602001908083835b6020831061469a5780518252602082019150602081019050602083039250614677565b6001836020036101000a0380198251168184511680821785525050505050509050019150509081526020016040518091039020600501549050919050565b60606006826040518082805190602001908083835b6020831061471057805182526020820191506020810190506020830392506146ed565b6001836020036101000a03801982511681845116808217855250505050505090500191505090815260200160405180910390206006018054600181600116156101000203166002900480601f0160208091040260200160405190810160405280929190818152602001828054600181600116156101000203166002900480156147da5780601f106147af576101008083540402835291602001916147da565b820191906000526020600020905b8154815290600101906020018083116147bd57829003601f168201915b50505050509050919050565b60606005826040518082805190602001908083835b6020831061481e57805182526020820191506020810190506020830392506147fb565b6001836020036101000a03801982511681845116808217855250505050505090500191505090815260200160405180910390206006018054600181600116156101000203166002900480601f0160208091040260200160405190810160405280929190818152602001828054600181600116156101000203166002900480156148e85780601f106148bd576101008083540402835291602001916148e8565b820191906000526020600020905b8154815290600101906020018083116148cb57829003601f168201915b50505050509050919050565b6000600154905090565b60606005826040518082805190602001908083835b602083106149365780518252602082019150602081019050602083039250614913565b6001836020036101000a03801982511681845116808217855250505050505090500191505090815260200160405180910390206003018054600181600116156101000203166002900480601f016020809104026020016040519081016040528092919081815260200182805460018160011615610100020316600290048015614a005780601f106149d557610100808354040283529160200191614a00565b820191906000526020600020905b8154815290600101906020018083116149e357829003601f168201915b50505050509050919050565b828054600181600116156101000203166002900490600052602060002090601f016020900481019282601f10614a455780548555614a82565b82800160010185558215614a8257600052602060002091601f016020900482015b82811115614a81578254825591600101919060010190614a66565b5b509050614a8f9190614b93565b5090565b828054600181600116156101000203166002900490600052602060002090601f016020900481019282601f10614ad457805160ff1916838001178555614b02565b82800160010185558215614b02579182015b82811115614b01578251825591602001919060010190614ae6565b5b509050614b0f9190614b93565b5090565b828054600181600116156101000203166002900490600052602060002090601f016020900481019282601f10614b5457805160ff1916838001178555614b82565b82800160010185558215614b82579182015b82811115614b81578251825591602001919060010190614b66565b5b509050614b8f9190614b93565b5090565b614bb591905b80821115614bb1576000816000905550600101614b99565b5090565b9056fea265627a7a72315820076245c5e776b4b04e706cd7fc38829c5228e0ab4608b8456001433a556ba25164736f6c63430005100032",
  "source": "// SPDX-License-Identifier: MIT\npragma solidity >=0.5.16 <8.10.0;\n\ncontract ProvStorage {\n//State Variables\n  uint txNumber_upload = 0;\n  uint txNumber_download = 0;\n  string latest_txHash_upload = \"\";\n  string latest_txHash_download = \"\";\n  string temp_txHash = \"origin\";\n\n// Upload structure\nstruct Upload {\n  //Properties of each upload instance\n  uint txNumber;\n  string ipfsHash;\n  string txHash;\n  string author;\n  string filename;\n  uint timestamp; \n  string IP; \n}\n//Download Structure - Download instances also added to chain\nstruct Download {\n  uint txNumber;\n  string ipfsHash;\n  string txHash;\n  string downloader;\n  string filename;\n  uint timestamp;\n  string IP;\n}\n\n//Mappings\nmapping(string => Upload) public uploads;\n//txHash maps to an Upload instance\nmapping(string => Download) public downloads;\n//txHash maps to Download instance too!\n\n//mapping(address => mapping(uint => Upload)) public address_uploads;  //NOT IN USE\n//Uploads can also be mapped to an address (the account of the person who created the upload.)\n\n//--- Upload - Download ---\n\n  function upload(string memory _ipfsHash, string memory _author, string memory _filename, uint _timestamp, string memory _IP) public {\n    // Function to set the properties of an upload instance.\n    txNumber_upload = txNumber_upload +1;\n    uploads[temp_txHash] = Upload(txNumber_upload, _ipfsHash, \"empty\", _author, _filename, _timestamp, _IP);\n  }\n  \n  function download(string memory _ipfsHash, string memory _filename, uint _time, string memory _downloader, string memory _IP) public {\n    // Function to set the properties of a download instance.\n    txNumber_download = txNumber_download +1;\n    downloads[temp_txHash] = Download(txNumber_download, _ipfsHash, \"empty\", _downloader, _filename, _time, _IP);\n  }\n \n  //function to update txHash with correct value (blockhash) that gets generated after 'upload' is called\n  function updateTxHash_upload(string memory _txHash) public {\n    //set upload instance to have index as transaction hash\n    uploads[_txHash] = uploads[temp_txHash];\n    uploads[_txHash].txHash = _txHash;\n    latest_txHash_upload = _txHash;\n  }\n  //function to update txHash with correct value (blockhash) that gets generated after 'upload' is called\n  function updateTxHash_download(string memory _txHash) public {\n    downloads[_txHash] = downloads[temp_txHash];\n    downloads[_txHash].txHash = _txHash;\n    latest_txHash_download = _txHash;\n  }\n  //-----------------------------------------------\n\n\n  //---------Upload Get latest transaction---------\n  function getTxNumber_up_latest() public view returns (uint){\n    //return the latest transaction number\n    return txNumber_upload;\n  }\n\n  function getIPFS_up_latest() public view returns (string memory){\n    //return the ipfsHash taking transaction ID & msg.sender.\n    return uploads[latest_txHash_upload].ipfsHash;\n    //return getTxHash();\n  }\n\n  function getTxHash_up_latest() public view returns (string memory){\n    //Return transactionHash\n    return uploads[latest_txHash_upload].txHash;\n  }\n\n  function getAuthor_up_latest() public view returns (string memory){\n    //return author based on txNumber and current account.\n    return uploads[latest_txHash_upload].author;\n  }\n\n   function getFileName_up_latest() public view returns (string memory){\n    //return author based on txNumber and current account.\n    return uploads[latest_txHash_upload].filename;\n  }\n  \n   function getTimestamp_up_latest() public view returns (uint){\n    //return author based on txNumber and current account.\n    return uploads[latest_txHash_upload].timestamp;\n  }\n   function getIP_up_latest() public view returns (string memory)\n  {\n    return uploads[latest_txHash_upload].IP;\n  }\n  //-------------------------------------------------------------\n\n//----------- Download Get LATEST ------------------\n  function getTxNumber_down_latest() public view returns (uint){\n    //return the latest transaction number\n    return txNumber_download;\n  }\n\n  function getIPFS_down_latest() public view returns (string memory){\n    return downloads[latest_txHash_download].ipfsHash;\n  }\n\n   function getTxHash_down_latest() public view returns (string memory){\n    return downloads[latest_txHash_download].txHash;\n  }\n\n  function getFileName_down_latest() public view returns (string memory){\n    return downloads[latest_txHash_download].filename;\n  }\n\n  function getTimestamp_down_latest() public view returns (uint){\n    return downloads[latest_txHash_download].timestamp;\n  }\n  function getDownloader_latest() public view returns (string memory){\n    return downloads[latest_txHash_download].downloader;\n  }\n\n  function getIP_down_latest() public view returns (string memory)\n  {\n    return downloads[latest_txHash_download].IP;\n  }\n\n  //---------Get upload properties based on txHash ---------\n  function getTxNumber_up(string memory txHash) public view returns (uint){\n    //return the latest transaction number\n    return uploads[txHash].txNumber;\n  }\n  function getIPFS_up(string memory txHash) public view returns (string memory){\n    //Return IPFS Hash of an upload of index 'tXHash'\n    return uploads[txHash].ipfsHash;\n  }\n\n  function getTxHash_up(string memory txHash) public view returns (string memory){\n    //Return transactionHash\n    return uploads[txHash].txHash;\n  }\n\n  function getAuthor_up(string memory txHash) public view returns (string memory){\n    //return author based on txNumber and current account.\n    return uploads[txHash].author;\n  }\n\n   function getFileName_up(string memory txHash) public view returns (string memory){\n    //return author based on txNumber and current account.\n    return uploads[txHash].filename;\n  }\n  \n   function getTimestamp_up(string memory txHash) public view returns (uint){\n    //return author based on txNumber and current account.\n    return uploads[txHash].timestamp;\n  }\n  function getIP_up(string memory txHash) public view returns (string memory)\n  {\n    return uploads[txHash].IP;\n  }\n  //-------------------------------------------------------------\n\n  //----------- Download download properties based on txHash ------------------\n  function getTxNumber_down(string memory txHash) public view returns (uint){\n    //return the latest transaction number\n    return downloads[txHash].txNumber;\n  }\n\n  function getIPFS_down(string memory txHash) public view returns (string memory){\n    return downloads[txHash].ipfsHash;\n  }\n\n   function getTxHash_down(string memory txHash) public view returns (string memory){\n    return downloads[txHash].txHash;\n  }\n\n  function getFileName_down(string memory txHash) public view returns (string memory){\n    return downloads[txHash].filename;\n  }\n\n  function getTimestamp_down(string memory txHash) public view returns (uint){\n    return downloads[txHash].timestamp;\n  }\n  function getDownloader(string memory txHash) public view returns (string memory){\n    return downloads[txHash].downloader;\n  }\n  function getIP_down(string memory txHash) public view returns (string memory)\n  {\n    return downloads[txHash].IP;\n  }\n}\n//msg.sender = the address of the acccount currently running contract.\n\n",
  "sourcePath": "/Users/farkasmaro/Documents/ipfs-project/contracts/ProvStorage.sol",
  "compiler": {
    "name": "solc",
    "version": "0.5.16+commit.9c3226ce.Emscripten.clang"
  },
  "schemaVersion": "3.4.3",
  "updatedAt": "2022-04-10T17:00:57.540Z",
  "networkType": "ethereum",
  "devdoc": {
    "methods": {}
  },
  "userdoc": {
    "methods": {}
  }
}