{
  "contractName": "ProvStorage",
  "abi": [
    {
      "constant": true,
      "inputs": [
        {
          "internalType": "address",
          "name": "",
          "type": "address"
        },
        {
          "internalType": "uint256",
          "name": "",
          "type": "uint256"
        }
      ],
      "name": "address_uploads",
      "outputs": [
        {
          "internalType": "string",
          "name": "ipfsHash",
          "type": "string"
        },
        {
          "internalType": "bytes32",
          "name": "txHash",
          "type": "bytes32"
        },
        {
          "internalType": "string",
          "name": "author",
          "type": "string"
        },
        {
          "internalType": "string",
          "name": "filename",
          "type": "string"
        },
        {
          "internalType": "uint256",
          "name": "timestamp",
          "type": "uint256"
        }
      ],
      "payable": false,
      "stateMutability": "view",
      "type": "function"
    },
    {
      "constant": true,
      "inputs": [
        {
          "internalType": "uint256",
          "name": "",
          "type": "uint256"
        }
      ],
      "name": "uploads",
      "outputs": [
        {
          "internalType": "string",
          "name": "ipfsHash",
          "type": "string"
        },
        {
          "internalType": "bytes32",
          "name": "txHash",
          "type": "bytes32"
        },
        {
          "internalType": "string",
          "name": "author",
          "type": "string"
        },
        {
          "internalType": "string",
          "name": "filename",
          "type": "string"
        },
        {
          "internalType": "uint256",
          "name": "timestamp",
          "type": "uint256"
        }
      ],
      "payable": false,
      "stateMutability": "view",
      "type": "function"
    },
    {
      "constant": false,
      "inputs": [
        {
          "internalType": "string",
          "name": "_ipfsHash",
          "type": "string"
        },
        {
          "internalType": "string",
          "name": "_author",
          "type": "string"
        },
        {
          "internalType": "string",
          "name": "_filename",
          "type": "string"
        },
        {
          "internalType": "uint256",
          "name": "_timestamp",
          "type": "uint256"
        }
      ],
      "name": "upload",
      "outputs": [],
      "payable": false,
      "stateMutability": "nonpayable",
      "type": "function"
    },
    {
      "constant": true,
      "inputs": [],
      "name": "getTxNumber",
      "outputs": [
        {
          "internalType": "uint256",
          "name": "",
          "type": "uint256"
        }
      ],
      "payable": false,
      "stateMutability": "view",
      "type": "function"
    },
    {
      "constant": true,
      "inputs": [],
      "name": "getIPFS",
      "outputs": [
        {
          "internalType": "string",
          "name": "",
          "type": "string"
        }
      ],
      "payable": false,
      "stateMutability": "view",
      "type": "function"
    },
    {
      "constant": true,
      "inputs": [],
      "name": "getTxHash",
      "outputs": [
        {
          "internalType": "bytes32",
          "name": "",
          "type": "bytes32"
        }
      ],
      "payable": false,
      "stateMutability": "view",
      "type": "function"
    },
    {
      "constant": true,
      "inputs": [],
      "name": "getAuthor",
      "outputs": [
        {
          "internalType": "string",
          "name": "",
          "type": "string"
        }
      ],
      "payable": false,
      "stateMutability": "view",
      "type": "function"
    },
    {
      "constant": true,
      "inputs": [],
      "name": "getFileName",
      "outputs": [
        {
          "internalType": "string",
          "name": "",
          "type": "string"
        }
      ],
      "payable": false,
      "stateMutability": "view",
      "type": "function"
    },
    {
      "constant": true,
      "inputs": [],
      "name": "getTimestamp",
      "outputs": [
        {
          "internalType": "uint256",
          "name": "",
          "type": "uint256"
        }
      ],
      "payable": false,
      "stateMutability": "view",
      "type": "function"
    }
  ],
  "bytecode": "0x60806040526000600155436002556001600254034060035534801561002357600080fd5b50610fba806100336000396000f3fe608060405234801561001057600080fd5b50600436106100935760003560e01c8063a5faa12511610066578063a5faa1251461034a578063abaa2935146103cd578063eade9eab146103eb578063fbfecaa314610598578063fcf6c23c1461072557610093565b8063188ec35614610098578063285a448d146100b65780634efe2d1e146100d457806381d41c9514610157575b600080fd5b6100a06107a8565b6040518082815260200191505060405180910390f35b6100be6107c8565b6040518082815260200191505060405180910390f35b6100dc6107e8565b6040518080602001828103825283818151815260200191508051906020019080838360005b8381101561011c578082015181840152602081019050610101565b50505050905090810190601f1680156101495780820380516001836020036101000a031916815260200191505b509250505060405180910390f35b6103486004803603608081101561016d57600080fd5b810190808035906020019064010000000081111561018a57600080fd5b82018360208201111561019c57600080fd5b803590602001918460018302840111640100000000831117156101be57600080fd5b91908080601f016020809104026020016040519081016040528093929190818152602001838380828437600081840152601f19601f8201169050808301925050505050505091929192908035906020019064010000000081111561022157600080fd5b82018360208201111561023357600080fd5b8035906020019184600183028401116401000000008311171561025557600080fd5b91908080601f016020809104026020016040519081016040528093929190818152602001838380828437600081840152601f19601f820116905080830192505050505050509192919290803590602001906401000000008111156102b857600080fd5b8201836020820111156102ca57600080fd5b803590602001918460018302840111640100000000831117156102ec57600080fd5b91908080601f016020809104026020016040519081016040528093929190818152602001838380828437600081840152601f19601f820116905080830192505050505050509192919290803590602001909291905050506108a0565b005b61035261095d565b6040518080602001828103825283818151815260200191508051906020019080838360005b83811015610392578082015181840152602081019050610377565b50505050905090810190601f1680156103bf5780820380516001836020036101000a031916815260200191505b509250505060405180910390f35b6103d5610a15565b6040518082815260200191505060405180910390f35b6104376004803603604081101561040157600080fd5b81019080803573ffffffffffffffffffffffffffffffffffffffff16906020019092919080359060200190929190505050610a1f565b60405180806020018681526020018060200180602001858152602001848103845289818151815260200191508051906020019080838360005b8381101561048b578082015181840152602081019050610470565b50505050905090810190601f1680156104b85780820380516001836020036101000a031916815260200191505b50848103835287818151815260200191508051906020019080838360005b838110156104f15780820151818401526020810190506104d6565b50505050905090810190601f16801561051e5780820380516001836020036101000a031916815260200191505b50848103825286818151815260200191508051906020019080838360005b8381101561055757808201518184015260208101905061053c565b50505050905090810190601f1680156105845780820380516001836020036101000a031916815260200191505b509850505050505050505060405180910390f35b6105c4600480360360208110156105ae57600080fd5b8101908080359060200190929190505050610c2a565b60405180806020018681526020018060200180602001858152602001848103845289818151815260200191508051906020019080838360005b838110156106185780820151818401526020810190506105fd565b50505050905090810190601f1680156106455780820380516001836020036101000a031916815260200191505b50848103835287818151815260200191508051906020019080838360005b8381101561067e578082015181840152602081019050610663565b50505050905090810190601f1680156106ab5780820380516001836020036101000a031916815260200191505b50848103825286818151815260200191508051906020019080838360005b838110156106e45780820151818401526020810190506106c9565b50505050905090810190601f1680156107115780820380516001836020036101000a031916815260200191505b509850505050505050505060405180910390f35b61072d610e28565b6040518080602001828103825283818151815260200191508051906020019080838360005b8381101561076d578082015181840152602081019050610752565b50505050905090810190601f16801561079a5780820380516001836020036101000a031916815260200191505b509250505060405180910390f35b600060046000600154815260200190815260200160002060040154905090565b600060046000600154815260200190815260200160002060010154905090565b60606004600060015481526020019081526020016000206000018054600181600116156101000203166002900480601f0160208091040260200160405190810160405280929190818152602001828054600181600116156101000203166002900480156108965780601f1061086b57610100808354040283529160200191610896565b820191906000526020600020905b81548152906001019060200180831161087957829003601f168201915b5050505050905090565b60018054016001819055506040518060a001604052808581526020016003548152602001848152602001838152602001828152506004600060015481526020019081526020016000206000820151816000019080519060200190610905929190610ee0565b5060208201518160010155604082015181600201908051906020019061092c929190610ee0565b506060820151816003019080519060200190610949929190610ee0565b506080820151816004015590505050505050565b60606004600060015481526020019081526020016000206002018054600181600116156101000203166002900480601f016020809104026020016040519081016040528092919081815260200182805460018160011615610100020316600290048015610a0b5780601f106109e057610100808354040283529160200191610a0b565b820191906000526020600020905b8154815290600101906020018083116109ee57829003601f168201915b5050505050905090565b6000600154905090565b600560205281600052604060002060205280600052604060002060009150915050806000018054600181600116156101000203166002900480601f016020809104026020016040519081016040528092919081815260200182805460018160011615610100020316600290048015610ad85780601f10610aad57610100808354040283529160200191610ad8565b820191906000526020600020905b815481529060010190602001808311610abb57829003601f168201915b505050505090806001015490806002018054600181600116156101000203166002900480601f016020809104026020016040519081016040528092919081815260200182805460018160011615610100020316600290048015610b7c5780601f10610b5157610100808354040283529160200191610b7c565b820191906000526020600020905b815481529060010190602001808311610b5f57829003601f168201915b505050505090806003018054600181600116156101000203166002900480601f016020809104026020016040519081016040528092919081815260200182805460018160011615610100020316600290048015610c1a5780601f10610bef57610100808354040283529160200191610c1a565b820191906000526020600020905b815481529060010190602001808311610bfd57829003601f168201915b5050505050908060040154905085565b6004602052806000526040600020600091509050806000018054600181600116156101000203166002900480601f016020809104026020016040519081016040528092919081815260200182805460018160011615610100020316600290048015610cd65780601f10610cab57610100808354040283529160200191610cd6565b820191906000526020600020905b815481529060010190602001808311610cb957829003601f168201915b505050505090806001015490806002018054600181600116156101000203166002900480601f016020809104026020016040519081016040528092919081815260200182805460018160011615610100020316600290048015610d7a5780601f10610d4f57610100808354040283529160200191610d7a565b820191906000526020600020905b815481529060010190602001808311610d5d57829003601f168201915b505050505090806003018054600181600116156101000203166002900480601f016020809104026020016040519081016040528092919081815260200182805460018160011615610100020316600290048015610e185780601f10610ded57610100808354040283529160200191610e18565b820191906000526020600020905b815481529060010190602001808311610dfb57829003601f168201915b5050505050908060040154905085565b60606004600060015481526020019081526020016000206003018054600181600116156101000203166002900480601f016020809104026020016040519081016040528092919081815260200182805460018160011615610100020316600290048015610ed65780601f10610eab57610100808354040283529160200191610ed6565b820191906000526020600020905b815481529060010190602001808311610eb957829003601f168201915b5050505050905090565b828054600181600116156101000203166002900490600052602060002090601f016020900481019282601f10610f2157805160ff1916838001178555610f4f565b82800160010185558215610f4f579182015b82811115610f4e578251825591602001919060010190610f33565b5b509050610f5c9190610f60565b5090565b610f8291905b80821115610f7e576000816000905550600101610f66565b5090565b9056fea265627a7a723158208cfc1905880fd949a54d633bb7c0fc34543ab3b92c143ce9cf8f22a7f55b9c3264736f6c63430005100032",
  "source": "// SPDX-License-Identifier: MIT\npragma solidity >=0.5.16 <8.10.0;\n\ncontract ProvStorage {\n  string ipfsHash;\n  //not using transaction ID like this. \n  uint txNumber = 0;\n\n  uint blockNumber = block.number;\n  bytes32 txHash =  (blockhash(blockNumber -1));\n\n// Mapping of structs\n   struct Upload {\n    //struct for each upload instance\n    string ipfsHash;\n    bytes32 txHash;\n    string author;\n    string filename;\n    uint timestamp;  \n  }\n//Mappings:\n\n  mapping(uint => Upload) public uploads;\n  //Transaction ID maps to an Upload instance\n\n  mapping(address => mapping(uint => Upload)) public address_uploads;\n  //Uploads can also be mapped to an address (the account of the person who created the upload.)\n\n  function upload(string memory _ipfsHash, string memory _author, string memory _filename, uint _timestamp) public {\n    //associate an upload with address and create the instance\n    //problem is the transaction ID doesn't generate until after this function?\n    txNumber = txNumber +1;\n    //address_uploads[msg.sender][txNumber] = Upload(_ipfsHash, txHash, _author, _filename, _timestamp);\n    uploads[txNumber] = Upload(_ipfsHash, txHash, _author, _filename, _timestamp);  \n  }\n  \n  function getTxNumber() public view returns (uint){\n    //return the latest transaction number\n    return txNumber;\n  }\n\n  function getIPFS() public view returns (string memory){\n    //return the ipfsHash taking transaction ID & msg.sender.\n    //return address_uploads[msg.sender][txNumber].ipfsHash;\n    return uploads[txNumber].ipfsHash;\n  }\n\n  function getTxHash() public view returns (bytes32){\n    //Return transactionHash\n    //return address_uploads[msg.sender][txNumber].txHash;\n    return uploads[txNumber].txHash;\n  }\n\n  function getAuthor() public view returns (string memory){\n    //return author based on txNumber and current account.\n    //return address_uploads[msg.sender][txNumber].author;\n    return uploads[txNumber].author;\n  }\n\n   function getFileName() public view returns (string memory){\n    //return author based on txNumber and current account.\n    //return address_uploads[msg.sender][txNumber].filename;\n    return uploads[txNumber].filename;\n  }\n  \n   function getTimestamp() public view returns (uint){\n    //return author based on txNumber and current account.\n    //return address_uploads[msg.sender][txNumber].timestamp;\n    return uploads[txNumber].timestamp;\n  }\n  //-------------------------------------------------------------\n}\n\n//msg.sender = the address of the acccount currently running contract.",
  "sourcePath": "/Users/farkasmaro/Documents/ipfs-project/contracts/ProvStorage.sol",
  "compiler": {
    "name": "solc",
    "version": "0.5.16+commit.9c3226ce.Emscripten.clang"
  },
  "schemaVersion": "3.4.3",
  "updatedAt": "2022-03-16T13:38:52.561Z",
  "devdoc": {
    "methods": {}
  },
  "userdoc": {
    "methods": {}
  }
}