{
  "contractName": "ProvStorage",
  "abi": [
    {
      "constant": true,
      "inputs": [
        {
          "internalType": "address",
          "name": "",
          "type": "address"
        },
        {
          "internalType": "uint256",
          "name": "",
          "type": "uint256"
        }
      ],
      "name": "address_uploads",
      "outputs": [
        {
          "internalType": "string",
          "name": "ipfsHash",
          "type": "string"
        },
        {
          "internalType": "bytes32",
          "name": "txHash",
          "type": "bytes32"
        },
        {
          "internalType": "string",
          "name": "author",
          "type": "string"
        },
        {
          "internalType": "string",
          "name": "filename",
          "type": "string"
        },
        {
          "internalType": "uint256",
          "name": "timestamp",
          "type": "uint256"
        }
      ],
      "payable": false,
      "stateMutability": "view",
      "type": "function"
    },
    {
      "constant": true,
      "inputs": [
        {
          "internalType": "uint256",
          "name": "",
          "type": "uint256"
        }
      ],
      "name": "downloads",
      "outputs": [
        {
          "internalType": "string",
          "name": "ipfsHash",
          "type": "string"
        },
        {
          "internalType": "string",
          "name": "filename",
          "type": "string"
        },
        {
          "internalType": "uint256",
          "name": "timestamp",
          "type": "uint256"
        },
        {
          "internalType": "string",
          "name": "downloader",
          "type": "string"
        }
      ],
      "payable": false,
      "stateMutability": "view",
      "type": "function"
    },
    {
      "constant": true,
      "inputs": [
        {
          "internalType": "uint256",
          "name": "",
          "type": "uint256"
        }
      ],
      "name": "uploads",
      "outputs": [
        {
          "internalType": "string",
          "name": "ipfsHash",
          "type": "string"
        },
        {
          "internalType": "bytes32",
          "name": "txHash",
          "type": "bytes32"
        },
        {
          "internalType": "string",
          "name": "author",
          "type": "string"
        },
        {
          "internalType": "string",
          "name": "filename",
          "type": "string"
        },
        {
          "internalType": "uint256",
          "name": "timestamp",
          "type": "uint256"
        }
      ],
      "payable": false,
      "stateMutability": "view",
      "type": "function"
    },
    {
      "constant": false,
      "inputs": [
        {
          "internalType": "string",
          "name": "_ipfsHash",
          "type": "string"
        },
        {
          "internalType": "string",
          "name": "_author",
          "type": "string"
        },
        {
          "internalType": "string",
          "name": "_filename",
          "type": "string"
        },
        {
          "internalType": "uint256",
          "name": "_timestamp",
          "type": "uint256"
        }
      ],
      "name": "upload",
      "outputs": [],
      "payable": false,
      "stateMutability": "nonpayable",
      "type": "function"
    },
    {
      "constant": false,
      "inputs": [
        {
          "internalType": "string",
          "name": "_ipfsHash",
          "type": "string"
        },
        {
          "internalType": "string",
          "name": "_filename",
          "type": "string"
        },
        {
          "internalType": "uint256",
          "name": "_time",
          "type": "uint256"
        },
        {
          "internalType": "string",
          "name": "_downloader",
          "type": "string"
        }
      ],
      "name": "download",
      "outputs": [],
      "payable": false,
      "stateMutability": "nonpayable",
      "type": "function"
    },
    {
      "constant": true,
      "inputs": [],
      "name": "getTxNumber",
      "outputs": [
        {
          "internalType": "uint256",
          "name": "",
          "type": "uint256"
        }
      ],
      "payable": false,
      "stateMutability": "view",
      "type": "function"
    },
    {
      "constant": true,
      "inputs": [],
      "name": "getIPFS",
      "outputs": [
        {
          "internalType": "string",
          "name": "",
          "type": "string"
        }
      ],
      "payable": false,
      "stateMutability": "view",
      "type": "function"
    },
    {
      "constant": true,
      "inputs": [],
      "name": "getTxHash",
      "outputs": [
        {
          "internalType": "bytes32",
          "name": "",
          "type": "bytes32"
        }
      ],
      "payable": false,
      "stateMutability": "view",
      "type": "function"
    },
    {
      "constant": true,
      "inputs": [],
      "name": "getAuthor",
      "outputs": [
        {
          "internalType": "string",
          "name": "",
          "type": "string"
        }
      ],
      "payable": false,
      "stateMutability": "view",
      "type": "function"
    },
    {
      "constant": true,
      "inputs": [],
      "name": "getFileName",
      "outputs": [
        {
          "internalType": "string",
          "name": "",
          "type": "string"
        }
      ],
      "payable": false,
      "stateMutability": "view",
      "type": "function"
    },
    {
      "constant": true,
      "inputs": [],
      "name": "getTimestamp",
      "outputs": [
        {
          "internalType": "uint256",
          "name": "",
          "type": "uint256"
        }
      ],
      "payable": false,
      "stateMutability": "view",
      "type": "function"
    },
    {
      "constant": true,
      "inputs": [],
      "name": "getTxNumber_down",
      "outputs": [
        {
          "internalType": "uint256",
          "name": "",
          "type": "uint256"
        }
      ],
      "payable": false,
      "stateMutability": "view",
      "type": "function"
    },
    {
      "constant": true,
      "inputs": [],
      "name": "getIPFS_down",
      "outputs": [
        {
          "internalType": "string",
          "name": "",
          "type": "string"
        }
      ],
      "payable": false,
      "stateMutability": "view",
      "type": "function"
    },
    {
      "constant": true,
      "inputs": [],
      "name": "getFileName_down",
      "outputs": [
        {
          "internalType": "string",
          "name": "",
          "type": "string"
        }
      ],
      "payable": false,
      "stateMutability": "view",
      "type": "function"
    },
    {
      "constant": true,
      "inputs": [],
      "name": "getTimestamp_down",
      "outputs": [
        {
          "internalType": "uint256",
          "name": "",
          "type": "uint256"
        }
      ],
      "payable": false,
      "stateMutability": "view",
      "type": "function"
    },
    {
      "constant": true,
      "inputs": [],
      "name": "getDownloader",
      "outputs": [
        {
          "internalType": "string",
          "name": "",
          "type": "string"
        }
      ],
      "payable": false,
      "stateMutability": "view",
      "type": "function"
    }
  ],
  "bytecode": "0x608060405260006001556000600255436003556001600354034060045534801561002857600080fd5b50611a5b806100386000396000f3fe608060405234801561001057600080fd5b50600436106101005760003560e01c8063a5faa12511610097578063eade9eab11610066578063eade9eab14610913578063f963f05814610ac0578063fbfecaa314610b43578063fcf6c23c14610cd057610100565b8063a5faa125146105fc578063abaa29351461067f578063b68325d01461069d578063c32602591461089057610100565b8063774262b5116100d3578063774262b5146101e257806381d41c951461026557806387de74a8146104585780639fd50b2d1461047657610100565b8063188ec35614610105578063285a448d146101235780634efe2d1e146101415780636d73c7c1146101c4575b600080fd5b61010d610d53565b6040518082815260200191505060405180910390f35b61012b610d73565b6040518082815260200191505060405180910390f35b610149610d93565b6040518080602001828103825283818151815260200191508051906020019080838360005b8381101561018957808201518184015260208101905061016e565b50505050905090810190601f1680156101b65780820380516001836020036101000a031916815260200191505b509250505060405180910390f35b6101cc610e4b565b6040518082815260200191505060405180910390f35b6101ea610e55565b6040518080602001828103825283818151815260200191508051906020019080838360005b8381101561022a57808201518184015260208101905061020f565b50505050905090810190601f1680156102575780820380516001836020036101000a031916815260200191505b509250505060405180910390f35b6104566004803603608081101561027b57600080fd5b810190808035906020019064010000000081111561029857600080fd5b8201836020820111156102aa57600080fd5b803590602001918460018302840111640100000000831117156102cc57600080fd5b91908080601f016020809104026020016040519081016040528093929190818152602001838380828437600081840152601f19601f8201169050808301925050505050505091929192908035906020019064010000000081111561032f57600080fd5b82018360208201111561034157600080fd5b8035906020019184600183028401116401000000008311171561036357600080fd5b91908080601f016020809104026020016040519081016040528093929190818152602001838380828437600081840152601f19601f820116905080830192505050505050509192919290803590602001906401000000008111156103c657600080fd5b8201836020820111156103d857600080fd5b803590602001918460018302840111640100000000831117156103fa57600080fd5b91908080601f016020809104026020016040519081016040528093929190818152602001838380828437600081840152601f19601f82011690508083019250505050505050919291929080359060200190929190505050610f0d565b005b610460610fca565b6040518082815260200191505060405180910390f35b6104a26004803603602081101561048c57600080fd5b8101908080359060200190929190505050610fea565b60405180806020018060200185815260200180602001848103845288818151815260200191508051906020019080838360005b838110156104f05780820151818401526020810190506104d5565b50505050905090810190601f16801561051d5780820380516001836020036101000a031916815260200191505b50848103835287818151815260200191508051906020019080838360005b8381101561055657808201518184015260208101905061053b565b50505050905090810190601f1680156105835780820380516001836020036101000a031916815260200191505b50848103825285818151815260200191508051906020019080838360005b838110156105bc5780820151818401526020810190506105a1565b50505050905090810190601f1680156105e95780820380516001836020036101000a031916815260200191505b5097505050505050505060405180910390f35b6106046111e2565b6040518080602001828103825283818151815260200191508051906020019080838360005b83811015610644578082015181840152602081019050610629565b50505050905090810190601f1680156106715780820380516001836020036101000a031916815260200191505b509250505060405180910390f35b61068761129a565b6040518082815260200191505060405180910390f35b61088e600480360360808110156106b357600080fd5b81019080803590602001906401000000008111156106d057600080fd5b8201836020820111156106e257600080fd5b8035906020019184600183028401116401000000008311171561070457600080fd5b91908080601f016020809104026020016040519081016040528093929190818152602001838380828437600081840152601f19601f8201169050808301925050505050505091929192908035906020019064010000000081111561076757600080fd5b82018360208201111561077957600080fd5b8035906020019184600183028401116401000000008311171561079b57600080fd5b91908080601f016020809104026020016040519081016040528093929190818152602001838380828437600081840152601f19601f820116905080830192505050505050509192919290803590602001909291908035906020019064010000000081111561080857600080fd5b82018360208201111561081a57600080fd5b8035906020019184600183028401116401000000008311171561083c57600080fd5b91908080601f016020809104026020016040519081016040528093929190818152602001838380828437600081840152601f19601f8201169050808301925050505050505091929192905050506112a4565b005b610898611350565b6040518080602001828103825283818151815260200191508051906020019080838360005b838110156108d85780820151818401526020810190506108bd565b50505050905090810190601f1680156109055780820380516001836020036101000a031916815260200191505b509250505060405180910390f35b61095f6004803603604081101561092957600080fd5b81019080803573ffffffffffffffffffffffffffffffffffffffff16906020019092919080359060200190929190505050611408565b60405180806020018681526020018060200180602001858152602001848103845289818151815260200191508051906020019080838360005b838110156109b3578082015181840152602081019050610998565b50505050905090810190601f1680156109e05780820380516001836020036101000a031916815260200191505b50848103835287818151815260200191508051906020019080838360005b83811015610a195780820151818401526020810190506109fe565b50505050905090810190601f168015610a465780820380516001836020036101000a031916815260200191505b50848103825286818151815260200191508051906020019080838360005b83811015610a7f578082015181840152602081019050610a64565b50505050905090810190601f168015610aac5780820380516001836020036101000a031916815260200191505b509850505050505050505060405180910390f35b610ac8611613565b6040518080602001828103825283818151815260200191508051906020019080838360005b83811015610b08578082015181840152602081019050610aed565b50505050905090810190601f168015610b355780820380516001836020036101000a031916815260200191505b509250505060405180910390f35b610b6f60048036036020811015610b5957600080fd5b81019080803590602001909291905050506116cb565b60405180806020018681526020018060200180602001858152602001848103845289818151815260200191508051906020019080838360005b83811015610bc3578082015181840152602081019050610ba8565b50505050905090810190601f168015610bf05780820380516001836020036101000a031916815260200191505b50848103835287818151815260200191508051906020019080838360005b83811015610c29578082015181840152602081019050610c0e565b50505050905090810190601f168015610c565780820380516001836020036101000a031916815260200191505b50848103825286818151815260200191508051906020019080838360005b83811015610c8f578082015181840152602081019050610c74565b50505050905090810190601f168015610cbc5780820380516001836020036101000a031916815260200191505b509850505050505050505060405180910390f35b610cd86118c9565b6040518080602001828103825283818151815260200191508051906020019080838360005b83811015610d18578082015181840152602081019050610cfd565b50505050905090810190601f168015610d455780820380516001836020036101000a031916815260200191505b509250505060405180910390f35b600060056000600154815260200190815260200160002060040154905090565b600060056000600154815260200190815260200160002060010154905090565b60606005600060015481526020019081526020016000206000018054600181600116156101000203166002900480601f016020809104026020016040519081016040528092919081815260200182805460018160011615610100020316600290048015610e415780601f10610e1657610100808354040283529160200191610e41565b820191906000526020600020905b815481529060010190602001808311610e2457829003601f168201915b5050505050905090565b6000600254905090565b60606006600060025481526020019081526020016000206003018054600181600116156101000203166002900480601f016020809104026020016040519081016040528092919081815260200182805460018160011615610100020316600290048015610f035780601f10610ed857610100808354040283529160200191610f03565b820191906000526020600020905b815481529060010190602001808311610ee657829003601f168201915b5050505050905090565b60018054016001819055506040518060a001604052808581526020016004548152602001848152602001838152602001828152506005600060015481526020019081526020016000206000820151816000019080519060200190610f72929190611981565b50602082015181600101556040820151816002019080519060200190610f99929190611981565b506060820151816003019080519060200190610fb6929190611981565b506080820151816004015590505050505050565b600060066000600254815260200190815260200160002060020154905090565b6006602052806000526040600020600091509050806000018054600181600116156101000203166002900480601f0160208091040260200160405190810160405280929190818152602001828054600181600116156101000203166002900480156110965780601f1061106b57610100808354040283529160200191611096565b820191906000526020600020905b81548152906001019060200180831161107957829003601f168201915b505050505090806001018054600181600116156101000203166002900480601f0160208091040260200160405190810160405280929190818152602001828054600181600116156101000203166002900480156111345780601f1061110957610100808354040283529160200191611134565b820191906000526020600020905b81548152906001019060200180831161111757829003601f168201915b505050505090806002015490806003018054600181600116156101000203166002900480601f0160208091040260200160405190810160405280929190818152602001828054600181600116156101000203166002900480156111d85780601f106111ad576101008083540402835291602001916111d8565b820191906000526020600020905b8154815290600101906020018083116111bb57829003601f168201915b5050505050905084565b60606005600060015481526020019081526020016000206002018054600181600116156101000203166002900480601f0160208091040260200160405190810160405280929190818152602001828054600181600116156101000203166002900480156112905780601f1061126557610100808354040283529160200191611290565b820191906000526020600020905b81548152906001019060200180831161127357829003601f168201915b5050505050905090565b6000600154905090565b6001600254016002819055506040518060800160405280858152602001848152602001838152602001828152506006600060025481526020019081526020016000206000820151816000019080519060200190611302929190611981565b50602082015181600101908051906020019061131f929190611981565b50604082015181600201556060820151816003019080519060200190611346929190611981565b5090505050505050565b60606006600060025481526020019081526020016000206000018054600181600116156101000203166002900480601f0160208091040260200160405190810160405280929190818152602001828054600181600116156101000203166002900480156113fe5780601f106113d3576101008083540402835291602001916113fe565b820191906000526020600020905b8154815290600101906020018083116113e157829003601f168201915b5050505050905090565b600760205281600052604060002060205280600052604060002060009150915050806000018054600181600116156101000203166002900480601f0160208091040260200160405190810160405280929190818152602001828054600181600116156101000203166002900480156114c15780601f10611496576101008083540402835291602001916114c1565b820191906000526020600020905b8154815290600101906020018083116114a457829003601f168201915b505050505090806001015490806002018054600181600116156101000203166002900480601f0160208091040260200160405190810160405280929190818152602001828054600181600116156101000203166002900480156115655780601f1061153a57610100808354040283529160200191611565565b820191906000526020600020905b81548152906001019060200180831161154857829003601f168201915b505050505090806003018054600181600116156101000203166002900480601f0160208091040260200160405190810160405280929190818152602001828054600181600116156101000203166002900480156116035780601f106115d857610100808354040283529160200191611603565b820191906000526020600020905b8154815290600101906020018083116115e657829003601f168201915b5050505050908060040154905085565b60606006600060025481526020019081526020016000206001018054600181600116156101000203166002900480601f0160208091040260200160405190810160405280929190818152602001828054600181600116156101000203166002900480156116c15780601f10611696576101008083540402835291602001916116c1565b820191906000526020600020905b8154815290600101906020018083116116a457829003601f168201915b5050505050905090565b6005602052806000526040600020600091509050806000018054600181600116156101000203166002900480601f0160208091040260200160405190810160405280929190818152602001828054600181600116156101000203166002900480156117775780601f1061174c57610100808354040283529160200191611777565b820191906000526020600020905b81548152906001019060200180831161175a57829003601f168201915b505050505090806001015490806002018054600181600116156101000203166002900480601f01602080910402602001604051908101604052809291908181526020018280546001816001161561010002031660029004801561181b5780601f106117f05761010080835404028352916020019161181b565b820191906000526020600020905b8154815290600101906020018083116117fe57829003601f168201915b505050505090806003018054600181600116156101000203166002900480601f0160208091040260200160405190810160405280929190818152602001828054600181600116156101000203166002900480156118b95780601f1061188e576101008083540402835291602001916118b9565b820191906000526020600020905b81548152906001019060200180831161189c57829003601f168201915b5050505050908060040154905085565b60606005600060015481526020019081526020016000206003018054600181600116156101000203166002900480601f0160208091040260200160405190810160405280929190818152602001828054600181600116156101000203166002900480156119775780601f1061194c57610100808354040283529160200191611977565b820191906000526020600020905b81548152906001019060200180831161195a57829003601f168201915b5050505050905090565b828054600181600116156101000203166002900490600052602060002090601f016020900481019282601f106119c257805160ff19168380011785556119f0565b828001600101855582156119f0579182015b828111156119ef5782518255916020019190600101906119d4565b5b5090506119fd9190611a01565b5090565b611a2391905b80821115611a1f576000816000905550600101611a07565b5090565b9056fea265627a7a72315820ad8e32da3197ea10fdda57fc7eeb98008c04d97de6ad82ae8bb5dd23e020655c64736f6c63430005100032",
  "source": "// SPDX-License-Identifier: MIT\npragma solidity >=0.5.16 <8.10.0;\n\ncontract ProvStorage {\n  string ipfsHash;\n  //not using transaction ID like this. \n  uint txNumber= 0;\n  uint txNumber_download = 0;\n\n  uint blockNumber = block.number;\n  bytes32 txHash =  (blockhash(blockNumber -1));\n\n// Upload structure\nstruct Upload {\n  //struct for each upload instance\n  string ipfsHash;\n  bytes32 txHash;\n  string author;\n  string filename;\n  uint timestamp;  \n}\n//Download Structure - Download instances also added to chain\nstruct Download {\n  string ipfsHash;\n  string filename;\n  uint timestamp;\n  string downloader;\n  //string ip;  need to pull from dapp\n}\n//Mappings:\n\n  mapping(uint => Upload) public uploads;\n  //txNumber maps to an Upload instance\n  mapping(uint=> Download) public downloads;\n  //txNumber_downloads maps to Download instance?\n\n  mapping(address => mapping(uint => Upload)) public address_uploads;  //NOT IN USE\n  //Uploads can also be mapped to an address (the account of the person who created the upload.)\n\n  function upload(string memory _ipfsHash, string memory _author, string memory _filename, uint _timestamp) public {\n    //associate an upload with address and create the instance\n    //problem is the transaction ID doesn't generate until after this function?\n    txNumber = txNumber +1;\n    //address_uploads[msg.sender][txNumber] = Upload(_ipfsHash, txHash, _author, _filename, _timestamp);\n    uploads[txNumber] = Upload(_ipfsHash, txHash, _author, _filename, _timestamp);  \n  }\n\n  function download(string memory _ipfsHash, string memory _filename, uint _time, string memory _downloader) public {\n    txNumber_download = txNumber_download +1;\n    downloads[txNumber_download] = Download(_ipfsHash, _filename, _time, _downloader);\n  }\n  \n  //---------Upload Get---------\n  function getTxNumber() public view returns (uint){\n    //return the latest transaction number\n    return txNumber;\n  }\n\n  function getIPFS() public view returns (string memory){\n    //return the ipfsHash taking transaction ID & msg.sender.\n    //return address_uploads[msg.sender][txNumber].ipfsHash;\n    return uploads[txNumber].ipfsHash;\n  }\n\n  function getTxHash() public view returns (bytes32){\n    //Return transactionHash\n    //return address_uploads[msg.sender][txNumber].txHash;\n    return uploads[txNumber].txHash;\n  }\n\n  function getAuthor() public view returns (string memory){\n    //return author based on txNumber and current account.\n    //return address_uploads[msg.sender][txNumber].author;\n    return uploads[txNumber].author;\n  }\n\n   function getFileName() public view returns (string memory){\n    //return author based on txNumber and current account.\n    //return address_uploads[msg.sender][txNumber].filename;\n    return uploads[txNumber].filename;\n  }\n  \n   function getTimestamp() public view returns (uint){\n    //return author based on txNumber and current account.\n    //return address_uploads[msg.sender][txNumber].timestamp;\n    return uploads[txNumber].timestamp;\n  }\n  //-------------------------------------------------------------\n//----------- Download Get ------------------\n  function getTxNumber_down() public view returns (uint){\n    //return the latest transaction number\n    return txNumber_download;\n  }\n\n  function getIPFS_down() public view returns (string memory){\n    return downloads[txNumber_download].ipfsHash;\n  }\n\n  function getFileName_down() public view returns (string memory){\n    return downloads[txNumber_download].filename;\n  }\n\n  function getTimestamp_down() public view returns (uint){\n    return downloads[txNumber_download].timestamp;\n  }\n  function getDownloader() public view returns (string memory){\n    return downloads[txNumber_download].downloader;\n  }\n}\n\n//msg.sender = the address of the acccount currently running contract.",
  "sourcePath": "/Users/farkasmaro/Documents/ipfs-project/contracts/ProvStorage.sol",
  "compiler": {
    "name": "solc",
    "version": "0.5.16+commit.9c3226ce.Emscripten.clang"
  },
  "schemaVersion": "3.4.3",
  "updatedAt": "2022-03-22T18:25:46.558Z",
  "networkType": "ethereum",
  "devdoc": {
    "methods": {}
  },
  "userdoc": {
    "methods": {}
  }
}