{
  "contractName": "ProvStorage",
  "abi": [
    {
      "constant": true,
      "inputs": [
        {
          "internalType": "uint256",
          "name": "",
          "type": "uint256"
        }
      ],
      "name": "downloads",
      "outputs": [
        {
          "internalType": "uint256",
          "name": "txNumber",
          "type": "uint256"
        },
        {
          "internalType": "string",
          "name": "ipfsHash",
          "type": "string"
        },
        {
          "internalType": "string",
          "name": "txHash",
          "type": "string"
        },
        {
          "internalType": "string",
          "name": "filename",
          "type": "string"
        },
        {
          "internalType": "uint256",
          "name": "timestamp",
          "type": "uint256"
        },
        {
          "internalType": "string",
          "name": "downloader",
          "type": "string"
        }
      ],
      "payable": false,
      "stateMutability": "view",
      "type": "function"
    },
    {
      "constant": true,
      "inputs": [
        {
          "internalType": "uint256",
          "name": "",
          "type": "uint256"
        }
      ],
      "name": "uploads",
      "outputs": [
        {
          "internalType": "uint256",
          "name": "txNumber",
          "type": "uint256"
        },
        {
          "internalType": "string",
          "name": "ipfsHash",
          "type": "string"
        },
        {
          "internalType": "string",
          "name": "txHash",
          "type": "string"
        },
        {
          "internalType": "string",
          "name": "author",
          "type": "string"
        },
        {
          "internalType": "string",
          "name": "filename",
          "type": "string"
        },
        {
          "internalType": "uint256",
          "name": "timestamp",
          "type": "uint256"
        }
      ],
      "payable": false,
      "stateMutability": "view",
      "type": "function"
    },
    {
      "constant": true,
      "inputs": [
        {
          "internalType": "string",
          "name": "",
          "type": "string"
        }
      ],
      "name": "uploads_t",
      "outputs": [
        {
          "internalType": "uint256",
          "name": "txNumber",
          "type": "uint256"
        },
        {
          "internalType": "string",
          "name": "ipfsHash",
          "type": "string"
        },
        {
          "internalType": "string",
          "name": "txHash",
          "type": "string"
        },
        {
          "internalType": "string",
          "name": "author",
          "type": "string"
        },
        {
          "internalType": "string",
          "name": "filename",
          "type": "string"
        },
        {
          "internalType": "uint256",
          "name": "timestamp",
          "type": "uint256"
        }
      ],
      "payable": false,
      "stateMutability": "view",
      "type": "function"
    },
    {
      "constant": false,
      "inputs": [
        {
          "internalType": "string",
          "name": "_ipfsHash",
          "type": "string"
        },
        {
          "internalType": "string",
          "name": "_author",
          "type": "string"
        },
        {
          "internalType": "string",
          "name": "_filename",
          "type": "string"
        },
        {
          "internalType": "uint256",
          "name": "_timestamp",
          "type": "uint256"
        }
      ],
      "name": "upload",
      "outputs": [],
      "payable": false,
      "stateMutability": "nonpayable",
      "type": "function"
    },
    {
      "constant": false,
      "inputs": [
        {
          "internalType": "string",
          "name": "_ipfsHash",
          "type": "string"
        },
        {
          "internalType": "string",
          "name": "_filename",
          "type": "string"
        },
        {
          "internalType": "uint256",
          "name": "_time",
          "type": "uint256"
        },
        {
          "internalType": "string",
          "name": "_downloader",
          "type": "string"
        }
      ],
      "name": "download",
      "outputs": [],
      "payable": false,
      "stateMutability": "nonpayable",
      "type": "function"
    },
    {
      "constant": false,
      "inputs": [
        {
          "internalType": "string",
          "name": "_txHash",
          "type": "string"
        }
      ],
      "name": "updateTxHash_upload",
      "outputs": [],
      "payable": false,
      "stateMutability": "nonpayable",
      "type": "function"
    },
    {
      "constant": true,
      "inputs": [],
      "name": "getTxNumber_up_latest",
      "outputs": [
        {
          "internalType": "uint256",
          "name": "",
          "type": "uint256"
        }
      ],
      "payable": false,
      "stateMutability": "view",
      "type": "function"
    },
    {
      "constant": true,
      "inputs": [],
      "name": "getIPFS_up_latest",
      "outputs": [
        {
          "internalType": "string",
          "name": "",
          "type": "string"
        }
      ],
      "payable": false,
      "stateMutability": "view",
      "type": "function"
    },
    {
      "constant": true,
      "inputs": [],
      "name": "getTxHash_up_latest",
      "outputs": [
        {
          "internalType": "string",
          "name": "",
          "type": "string"
        }
      ],
      "payable": false,
      "stateMutability": "view",
      "type": "function"
    },
    {
      "constant": true,
      "inputs": [],
      "name": "getAuthor_up_latest",
      "outputs": [
        {
          "internalType": "string",
          "name": "",
          "type": "string"
        }
      ],
      "payable": false,
      "stateMutability": "view",
      "type": "function"
    },
    {
      "constant": true,
      "inputs": [],
      "name": "getFileName_up_latest",
      "outputs": [
        {
          "internalType": "string",
          "name": "",
          "type": "string"
        }
      ],
      "payable": false,
      "stateMutability": "view",
      "type": "function"
    },
    {
      "constant": true,
      "inputs": [],
      "name": "getTimestamp_up_latest",
      "outputs": [
        {
          "internalType": "uint256",
          "name": "",
          "type": "uint256"
        }
      ],
      "payable": false,
      "stateMutability": "view",
      "type": "function"
    },
    {
      "constant": true,
      "inputs": [],
      "name": "getIPFS_t",
      "outputs": [
        {
          "internalType": "string",
          "name": "",
          "type": "string"
        }
      ],
      "payable": false,
      "stateMutability": "view",
      "type": "function"
    },
    {
      "constant": true,
      "inputs": [],
      "name": "getTxHash_t",
      "outputs": [
        {
          "internalType": "string",
          "name": "",
          "type": "string"
        }
      ],
      "payable": false,
      "stateMutability": "view",
      "type": "function"
    },
    {
      "constant": true,
      "inputs": [],
      "name": "getAuthor_t",
      "outputs": [
        {
          "internalType": "string",
          "name": "",
          "type": "string"
        }
      ],
      "payable": false,
      "stateMutability": "view",
      "type": "function"
    },
    {
      "constant": true,
      "inputs": [],
      "name": "getFileName_t",
      "outputs": [
        {
          "internalType": "string",
          "name": "",
          "type": "string"
        }
      ],
      "payable": false,
      "stateMutability": "view",
      "type": "function"
    },
    {
      "constant": true,
      "inputs": [],
      "name": "getTimestamp_t",
      "outputs": [
        {
          "internalType": "uint256",
          "name": "",
          "type": "uint256"
        }
      ],
      "payable": false,
      "stateMutability": "view",
      "type": "function"
    },
    {
      "constant": false,
      "inputs": [
        {
          "internalType": "string",
          "name": "_txHash",
          "type": "string"
        }
      ],
      "name": "updateTxHash_download",
      "outputs": [],
      "payable": false,
      "stateMutability": "nonpayable",
      "type": "function"
    },
    {
      "constant": true,
      "inputs": [],
      "name": "getTxNumber_down_latest",
      "outputs": [
        {
          "internalType": "uint256",
          "name": "",
          "type": "uint256"
        }
      ],
      "payable": false,
      "stateMutability": "view",
      "type": "function"
    },
    {
      "constant": true,
      "inputs": [],
      "name": "getIPFS_down_latest",
      "outputs": [
        {
          "internalType": "string",
          "name": "",
          "type": "string"
        }
      ],
      "payable": false,
      "stateMutability": "view",
      "type": "function"
    },
    {
      "constant": true,
      "inputs": [],
      "name": "getTxHash_down_latest",
      "outputs": [
        {
          "internalType": "string",
          "name": "",
          "type": "string"
        }
      ],
      "payable": false,
      "stateMutability": "view",
      "type": "function"
    },
    {
      "constant": true,
      "inputs": [],
      "name": "getFileName_down_latest",
      "outputs": [
        {
          "internalType": "string",
          "name": "",
          "type": "string"
        }
      ],
      "payable": false,
      "stateMutability": "view",
      "type": "function"
    },
    {
      "constant": true,
      "inputs": [],
      "name": "getTimestamp_down_latest",
      "outputs": [
        {
          "internalType": "uint256",
          "name": "",
          "type": "uint256"
        }
      ],
      "payable": false,
      "stateMutability": "view",
      "type": "function"
    },
    {
      "constant": true,
      "inputs": [],
      "name": "getDownloader_latest",
      "outputs": [
        {
          "internalType": "string",
          "name": "",
          "type": "string"
        }
      ],
      "payable": false,
      "stateMutability": "view",
      "type": "function"
    }
  ],
  "bytecode": "0x6080604052600080556000600155604051806020016040528060008152506002908051906020019062000034929190620000bf565b5060405180602001604052806000815250600390805190602001906200005c929190620000bf565b506040518060400160405280600681526020017f6f726967696e000000000000000000000000000000000000000000000000000081525060049080519060200190620000aa929190620000bf565b50348015620000b857600080fd5b506200016e565b828054600181600116156101000203166002900490600052602060002090601f016020900481019282601f106200010257805160ff191683800117855562000133565b8280016001018555821562000133579182015b828111156200013257825182559160200191906001019062000115565b5b50905062000142919062000146565b5090565b6200016b91905b80821115620001675760008160009055506001016200014d565b5090565b90565b612ec0806200017e6000396000f3fe608060405234801561001057600080fd5b50600436106101585760003560e01c8063a096e5d0116100c3578063c933297a1161007c578063c933297a14611092578063c98073be14611115578063d59a0c8714611133578063da095745146111b6578063e841d2c8146111d4578063fbfecaa3146111f257610158565b8063a096e5d014610bd8578063ab6f47e814610c5b578063b39f9fbe14610cde578063b68325d014610d61578063bf7594c314610f54578063c1af68c514610fd757610158565b806376c683411161011557806376c68341146106455780637fcc9ffa1461066357806381d41c95146106e6578063847c63cb146108d957806399cd81951461095c5780639fd50b2d146109df57610158565b8063154778dc1461015d5780631f28badd146101e057806346dc4e841461046657806354df221b146104845780636deb24bd14610507578063743e08e6146105c2575b600080fd5b6101656113eb565b6040518080602001828103825283818151815260200191508051906020019080838360005b838110156101a557808201518184015260208101905061018a565b50505050905090810190601f1680156101d25780820380516001836020036101000a031916815260200191505b509250505060405180910390f35b610299600480360360208110156101f657600080fd5b810190808035906020019064010000000081111561021357600080fd5b82018360208201111561022557600080fd5b8035906020019184600183028401116401000000008311171561024757600080fd5b91908080601f016020809104026020016040519081016040528093929190818152602001838380828437600081840152601f19601f8201169050808301925050505050505091929192905050506114a2565b604051808781526020018060200180602001806020018060200186815260200185810385528a818151815260200191508051906020019080838360005b838110156102f15780820151818401526020810190506102d6565b50505050905090810190601f16801561031e5780820380516001836020036101000a031916815260200191505b50858103845289818151815260200191508051906020019080838360005b8381101561035757808201518184015260208101905061033c565b50505050905090810190601f1680156103845780820380516001836020036101000a031916815260200191505b50858103835288818151815260200191508051906020019080838360005b838110156103bd5780820151818401526020810190506103a2565b50505050905090810190601f1680156103ea5780820380516001836020036101000a031916815260200191505b50858103825287818151815260200191508051906020019080838360005b83811015610423578082015181840152602081019050610408565b50505050905090810190601f1680156104505780820380516001836020036101000a031916815260200191505b509a505050505050505050505060405180910390f35b61046e611754565b6040518082815260200191505060405180910390f35b61048c611773565b6040518080602001828103825283818151815260200191508051906020019080838360005b838110156104cc5780820151818401526020810190506104b1565b50505050905090810190601f1680156104f95780820380516001836020036101000a031916815260200191505b509250505060405180910390f35b6105c06004803603602081101561051d57600080fd5b810190808035906020019064010000000081111561053a57600080fd5b82018360208201111561054c57600080fd5b8035906020019184600183028401116401000000008311171561056e57600080fd5b91908080601f016020809104026020016040519081016040528093929190818152602001838380828437600081840152601f19601f82011690508083019250505050505050919291929050505061182b565b005b6105ca611a84565b6040518080602001828103825283818151815260200191508051906020019080838360005b8381101561060a5780820151818401526020810190506105ef565b50505050905090810190601f1680156106375780820380516001836020036101000a031916815260200191505b509250505060405180910390f35b61064d611b3c565b6040518082815260200191505060405180910390f35b61066b611b5c565b6040518080602001828103825283818151815260200191508051906020019080838360005b838110156106ab578082015181840152602081019050610690565b50505050905090810190601f1680156106d85780820380516001836020036101000a031916815260200191505b509250505060405180910390f35b6108d7600480360360808110156106fc57600080fd5b810190808035906020019064010000000081111561071957600080fd5b82018360208201111561072b57600080fd5b8035906020019184600183028401116401000000008311171561074d57600080fd5b91908080601f016020809104026020016040519081016040528093929190818152602001838380828437600081840152601f19601f820116905080830192505050505050509192919290803590602001906401000000008111156107b057600080fd5b8201836020820111156107c257600080fd5b803590602001918460018302840111640100000000831117156107e457600080fd5b91908080601f016020809104026020016040519081016040528093929190818152602001838380828437600081840152601f19601f8201169050808301925050505050505091929192908035906020019064010000000081111561084757600080fd5b82018360208201111561085957600080fd5b8035906020019184600183028401116401000000008311171561087b57600080fd5b91908080601f016020809104026020016040519081016040528093929190818152602001838380828437600081840152601f19601f82011690508083019250505050505050919291929080359060200190929190505050611c13565b005b6108e1611e89565b6040518080602001828103825283818151815260200191508051906020019080838360005b83811015610921578082015181840152602081019050610906565b50505050905090810190601f16801561094e5780820380516001836020036101000a031916815260200191505b509250505060405180910390f35b610964611f9e565b6040518080602001828103825283818151815260200191508051906020019080838360005b838110156109a4578082015181840152602081019050610989565b50505050905090810190601f1680156109d15780820380516001836020036101000a031916815260200191505b509250505060405180910390f35b610a0b600480360360208110156109f557600080fd5b8101908080359060200190929190505050612055565b604051808781526020018060200180602001806020018681526020018060200185810385528a818151815260200191508051906020019080838360005b83811015610a63578082015181840152602081019050610a48565b50505050905090810190601f168015610a905780820380516001836020036101000a031916815260200191505b50858103845289818151815260200191508051906020019080838360005b83811015610ac9578082015181840152602081019050610aae565b50505050905090810190601f168015610af65780820380516001836020036101000a031916815260200191505b50858103835288818151815260200191508051906020019080838360005b83811015610b2f578082015181840152602081019050610b14565b50505050905090810190601f168015610b5c5780820380516001836020036101000a031916815260200191505b50858103825286818151815260200191508051906020019080838360005b83811015610b95578082015181840152602081019050610b7a565b50505050905090810190601f168015610bc25780820380516001836020036101000a031916815260200191505b509a505050505050505050505060405180910390f35b610be06122f1565b6040518080602001828103825283818151815260200191508051906020019080838360005b83811015610c20578082015181840152602081019050610c05565b50505050905090810190601f168015610c4d5780820380516001836020036101000a031916815260200191505b509250505060405180910390f35b610c636123a9565b6040518080602001828103825283818151815260200191508051906020019080838360005b83811015610ca3578082015181840152602081019050610c88565b50505050905090810190601f168015610cd05780820380516001836020036101000a031916815260200191505b509250505060405180910390f35b610ce6612461565b6040518080602001828103825283818151815260200191508051906020019080838360005b83811015610d26578082015181840152602081019050610d0b565b50505050905090810190601f168015610d535780820380516001836020036101000a031916815260200191505b509250505060405180910390f35b610f5260048036036080811015610d7757600080fd5b8101908080359060200190640100000000811115610d9457600080fd5b820183602082011115610da657600080fd5b80359060200191846001830284011164010000000083111715610dc857600080fd5b91908080601f016020809104026020016040519081016040528093929190818152602001838380828437600081840152601f19601f82011690508083019250505050505050919291929080359060200190640100000000811115610e2b57600080fd5b820183602082011115610e3d57600080fd5b80359060200191846001830284011164010000000083111715610e5f57600080fd5b91908080601f016020809104026020016040519081016040528093929190818152602001838380828437600081840152601f19601f8201169050808301925050505050505091929192908035906020019092919080359060200190640100000000811115610ecc57600080fd5b820183602082011115610ede57600080fd5b80359060200191846001830284011164010000000083111715610f0057600080fd5b91908080601f016020809104026020016040519081016040528093929190818152602001838380828437600081840152601f19601f820116905080830192505050505050509192919290505050612576565b005b610f5c61268b565b6040518080602001828103825283818151815260200191508051906020019080838360005b83811015610f9c578082015181840152602081019050610f81565b50505050905090810190601f168015610fc95780820380516001836020036101000a031916815260200191505b509250505060405180910390f35b61109060048036036020811015610fed57600080fd5b810190808035906020019064010000000081111561100a57600080fd5b82018360208201111561101c57600080fd5b8035906020019184600183028401116401000000008311171561103e57600080fd5b91908080601f016020809104026020016040519081016040528093929190818152602001838380828437600081840152601f19601f8201169050808301925050505050505091929192905050506127a0565b005b61109a6127e7565b6040518080602001828103825283818151815260200191508051906020019080838360005b838110156110da5780820151818401526020810190506110bf565b50505050905090810190601f1680156111075780820380516001836020036101000a031916815260200191505b509250505060405180910390f35b61111d6128fc565b6040518082815260200191505060405180910390f35b61113b612905565b6040518080602001828103825283818151815260200191508051906020019080838360005b8381101561117b578082015181840152602081019050611160565b50505050905090810190601f1680156111a85780820380516001836020036101000a031916815260200191505b509250505060405180910390f35b6111be6129bc565b6040518082815260200191505060405180910390f35b6111dc612a39565b6040518082815260200191505060405180910390f35b61121e6004803603602081101561120857600080fd5b8101908080359060200190929190505050612a43565b604051808781526020018060200180602001806020018060200186815260200185810385528a818151815260200191508051906020019080838360005b8381101561127657808201518184015260208101905061125b565b50505050905090810190601f1680156112a35780820380516001836020036101000a031916815260200191505b50858103845289818151815260200191508051906020019080838360005b838110156112dc5780820151818401526020810190506112c1565b50505050905090810190601f1680156113095780820380516001836020036101000a031916815260200191505b50858103835288818151815260200191508051906020019080838360005b83811015611342578082015181840152602081019050611327565b50505050905090810190601f16801561136f5780820380516001836020036101000a031916815260200191505b50858103825287818151815260200191508051906020019080838360005b838110156113a857808201518184015260208101905061138d565b50505050905090810190601f1680156113d55780820380516001836020036101000a031916815260200191505b509a505050505050505050505060405180910390f35b606060056000805481526020019081526020016000206004018054600181600116156101000203166002900480601f0160208091040260200160405190810160405280929190818152602001828054600181600116156101000203166002900480156114985780601f1061146d57610100808354040283529160200191611498565b820191906000526020600020905b81548152906001019060200180831161147b57829003601f168201915b5050505050905090565b600681805160208101820180518482526020830160208501208183528095505050505050600091509050806000015490806001018054600181600116156101000203166002900480601f01602080910402602001604051908101604052809291908181526020018280546001816001161561010002031660029004801561156a5780601f1061153f5761010080835404028352916020019161156a565b820191906000526020600020905b81548152906001019060200180831161154d57829003601f168201915b505050505090806002018054600181600116156101000203166002900480601f0160208091040260200160405190810160405280929190818152602001828054600181600116156101000203166002900480156116085780601f106115dd57610100808354040283529160200191611608565b820191906000526020600020905b8154815290600101906020018083116115eb57829003601f168201915b505050505090806003018054600181600116156101000203166002900480601f0160208091040260200160405190810160405280929190818152602001828054600181600116156101000203166002900480156116a65780601f1061167b576101008083540402835291602001916116a6565b820191906000526020600020905b81548152906001019060200180831161168957829003601f168201915b505050505090806004018054600181600116156101000203166002900480601f0160208091040260200160405190810160405280929190818152602001828054600181600116156101000203166002900480156117445780601f1061171957610100808354040283529160200191611744565b820191906000526020600020905b81548152906001019060200180831161172757829003601f168201915b5050505050908060050154905086565b6000600560008054815260200190815260200160002060050154905090565b60606007600060015481526020019081526020016000206001018054600181600116156101000203166002900480601f0160208091040260200160405190810160405280929190818152602001828054600181600116156101000203166002900480156118215780601f106117f657610100808354040283529160200191611821565b820191906000526020600020905b81548152906001019060200180831161180457829003601f168201915b5050505050905090565b8060056000805481526020019081526020016000206002019080519060200190611856929190612cdf565b506006600460405180828054600181600116156101000203166002900480156118b65780601f106118945761010080835404028352918201916118b6565b820191906000526020600020905b8154815290600101906020018083116118a2575b505091505090815260200160405180910390206006826040518082805190602001908083835b602083106118ff57805182526020820191506020810190506020830392506118dc565b6001836020036101000a03801982511681845116808217855250505050505090500191505090815260200160405180910390206000820154816000015560018201816001019080546001816001161561010002031660029004611963929190612d5f565b506002820181600201908054600181600116156101000203166002900461198b929190612d5f565b50600382018160030190805460018160011615610100020316600290046119b3929190612d5f565b50600482018160040190805460018160011615610100020316600290046119db929190612d5f565b5060058201548160050155905050806006826040518082805190602001908083835b60208310611a2057805182526020820191506020810190506020830392506119fd565b6001836020036101000a03801982511681845116808217855250505050505090500191505090815260200160405180910390206002019080519060200190611a69929190612cdf565b508060029080519060200190611a80929190612cdf565b5050565b60606007600060015481526020019081526020016000206002018054600181600116156101000203166002900480601f016020809104026020016040519081016040528092919081815260200182805460018160011615610100020316600290048015611b325780601f10611b0757610100808354040283529160200191611b32565b820191906000526020600020905b815481529060010190602001808311611b1557829003601f168201915b5050505050905090565b600060076000600154815260200190815260200160002060040154905090565b606060056000805481526020019081526020016000206002018054600181600116156101000203166002900480601f016020809104026020016040519081016040528092919081815260200182805460018160011615610100020316600290048015611c095780601f10611bde57610100808354040283529160200191611c09565b820191906000526020600020905b815481529060010190602001808311611bec57829003601f168201915b5050505050905090565b6001600054016000819055506040518060c0016040528060005481526020018581526020016040518060400160405280600581526020017f656d7074790000000000000000000000000000000000000000000000000000008152508152602001848152602001838152602001828152506005600080548152602001908152602001600020600082015181600001556020820151816001019080519060200190611cbd929190612de6565b506040820151816002019080519060200190611cda929190612de6565b506060820151816003019080519060200190611cf7929190612de6565b506080820151816004019080519060200190611d14929190612de6565b5060a082015181600501559050506040518060c0016040528060005481526020018581526020016040518060400160405280600581526020017f656d707479000000000000000000000000000000000000000000000000000000815250815260200184815260200183815260200182815250600660046040518082805460018160011615610100020316600290048015611de55780601f10611dc3576101008083540402835291820191611de5565b820191906000526020600020905b815481529060010190602001808311611dd1575b50509150509081526020016040518091039020600082015181600001556020820151816001019080519060200190611e1e929190612de6565b506040820151816002019080519060200190611e3b929190612de6565b506060820151816003019080519060200190611e58929190612de6565b506080820151816004019080519060200190611e75929190612de6565b5060a0820151816005015590505050505050565b6060600660026040518082805460018160011615610100020316600290048015611eea5780601f10611ec8576101008083540402835291820191611eea565b820191906000526020600020905b815481529060010190602001808311611ed6575b505091505090815260200160405180910390206001018054600181600116156101000203166002900480601f016020809104026020016040519081016040528092919081815260200182805460018160011615610100020316600290048015611f945780601f10611f6957610100808354040283529160200191611f94565b820191906000526020600020905b815481529060010190602001808311611f7757829003601f168201915b5050505050905090565b606060056000805481526020019081526020016000206001018054600181600116156101000203166002900480601f01602080910402602001604051908101604052809291908181526020018280546001816001161561010002031660029004801561204b5780601f106120205761010080835404028352916020019161204b565b820191906000526020600020905b81548152906001019060200180831161202e57829003601f168201915b5050505050905090565b6007602052806000526040600020600091509050806000015490806001018054600181600116156101000203166002900480601f0160208091040260200160405190810160405280929190818152602001828054600181600116156101000203166002900480156121075780601f106120dc57610100808354040283529160200191612107565b820191906000526020600020905b8154815290600101906020018083116120ea57829003601f168201915b505050505090806002018054600181600116156101000203166002900480601f0160208091040260200160405190810160405280929190818152602001828054600181600116156101000203166002900480156121a55780601f1061217a576101008083540402835291602001916121a5565b820191906000526020600020905b81548152906001019060200180831161218857829003601f168201915b505050505090806003018054600181600116156101000203166002900480601f0160208091040260200160405190810160405280929190818152602001828054600181600116156101000203166002900480156122435780601f1061221857610100808354040283529160200191612243565b820191906000526020600020905b81548152906001019060200180831161222657829003601f168201915b505050505090806004015490806005018054600181600116156101000203166002900480601f0160208091040260200160405190810160405280929190818152602001828054600181600116156101000203166002900480156122e75780601f106122bc576101008083540402835291602001916122e7565b820191906000526020600020905b8154815290600101906020018083116122ca57829003601f168201915b5050505050905086565b60606007600060015481526020019081526020016000206003018054600181600116156101000203166002900480601f01602080910402602001604051908101604052809291908181526020018280546001816001161561010002031660029004801561239f5780601f106123745761010080835404028352916020019161239f565b820191906000526020600020905b81548152906001019060200180831161238257829003601f168201915b5050505050905090565b60606007600060015481526020019081526020016000206005018054600181600116156101000203166002900480601f0160208091040260200160405190810160405280929190818152602001828054600181600116156101000203166002900480156124575780601f1061242c57610100808354040283529160200191612457565b820191906000526020600020905b81548152906001019060200180831161243a57829003601f168201915b5050505050905090565b60606006600260405180828054600181600116156101000203166002900480156124c25780601f106124a05761010080835404028352918201916124c2565b820191906000526020600020905b8154815290600101906020018083116124ae575b505091505090815260200160405180910390206002018054600181600116156101000203166002900480601f01602080910402602001604051908101604052809291908181526020018280546001816001161561010002031660029004801561256c5780601f106125415761010080835404028352916020019161256c565b820191906000526020600020905b81548152906001019060200180831161254f57829003601f168201915b5050505050905090565b60018054016001819055506040518060c0016040528060005481526020018581526020016040518060400160405280600581526020017f656d707479000000000000000000000000000000000000000000000000000000815250815260200184815260200183815260200182815250600760006001548152602001908152602001600020600082015181600001556020820151816001019080519060200190612620929190612de6565b50604082015181600201908051906020019061263d929190612de6565b50606082015181600301908051906020019061265a929190612de6565b506080820151816004015560a0820151816005019080519060200190612681929190612de6565b5090505050505050565b60606006600260405180828054600181600116156101000203166002900480156126ec5780601f106126ca5761010080835404028352918201916126ec565b820191906000526020600020905b8154815290600101906020018083116126d8575b505091505090815260200160405180910390206004018054600181600116156101000203166002900480601f0160208091040260200160405190810160405280929190818152602001828054600181600116156101000203166002900480156127965780601f1061276b57610100808354040283529160200191612796565b820191906000526020600020905b81548152906001019060200180831161277957829003601f168201915b5050505050905090565b8060076000600154815260200190815260200160002060020190805190602001906127cc929190612cdf565b5080600390805190602001906127e3929190612cdf565b5050565b60606006600260405180828054600181600116156101000203166002900480156128485780601f10612826576101008083540402835291820191612848565b820191906000526020600020905b815481529060010190602001808311612834575b505091505090815260200160405180910390206003018054600181600116156101000203166002900480601f0160208091040260200160405190810160405280929190818152602001828054600181600116156101000203166002900480156128f25780601f106128c7576101008083540402835291602001916128f2565b820191906000526020600020905b8154815290600101906020018083116128d557829003601f168201915b5050505050905090565b60008054905090565b606060056000805481526020019081526020016000206003018054600181600116156101000203166002900480601f0160208091040260200160405190810160405280929190818152602001828054600181600116156101000203166002900480156129b25780601f10612987576101008083540402835291602001916129b2565b820191906000526020600020905b81548152906001019060200180831161299557829003601f168201915b5050505050905090565b6000600660026040518082805460018160011615610100020316600290048015612a1d5780601f106129fb576101008083540402835291820191612a1d565b820191906000526020600020905b815481529060010190602001808311612a09575b5050915050908152602001604051809103902060050154905090565b6000600154905090565b6005602052806000526040600020600091509050806000015490806001018054600181600116156101000203166002900480601f016020809104026020016040519081016040528092919081815260200182805460018160011615610100020316600290048015612af55780601f10612aca57610100808354040283529160200191612af5565b820191906000526020600020905b815481529060010190602001808311612ad857829003601f168201915b505050505090806002018054600181600116156101000203166002900480601f016020809104026020016040519081016040528092919081815260200182805460018160011615610100020316600290048015612b935780601f10612b6857610100808354040283529160200191612b93565b820191906000526020600020905b815481529060010190602001808311612b7657829003601f168201915b505050505090806003018054600181600116156101000203166002900480601f016020809104026020016040519081016040528092919081815260200182805460018160011615610100020316600290048015612c315780601f10612c0657610100808354040283529160200191612c31565b820191906000526020600020905b815481529060010190602001808311612c1457829003601f168201915b505050505090806004018054600181600116156101000203166002900480601f016020809104026020016040519081016040528092919081815260200182805460018160011615610100020316600290048015612ccf5780601f10612ca457610100808354040283529160200191612ccf565b820191906000526020600020905b815481529060010190602001808311612cb257829003601f168201915b5050505050908060050154905086565b828054600181600116156101000203166002900490600052602060002090601f016020900481019282601f10612d2057805160ff1916838001178555612d4e565b82800160010185558215612d4e579182015b82811115612d4d578251825591602001919060010190612d32565b5b509050612d5b9190612e66565b5090565b828054600181600116156101000203166002900490600052602060002090601f016020900481019282601f10612d985780548555612dd5565b82800160010185558215612dd557600052602060002091601f016020900482015b82811115612dd4578254825591600101919060010190612db9565b5b509050612de29190612e66565b5090565b828054600181600116156101000203166002900490600052602060002090601f016020900481019282601f10612e2757805160ff1916838001178555612e55565b82800160010185558215612e55579182015b82811115612e54578251825591602001919060010190612e39565b5b509050612e629190612e66565b5090565b612e8891905b80821115612e84576000816000905550600101612e6c565b5090565b9056fea265627a7a7231582015d971b3cf1240323efc6c02998b4012f21ae4c31667e0c933a93baf76c3026864736f6c63430005100032",
  "source": "// SPDX-License-Identifier: MIT\npragma solidity >=0.5.16 <8.10.0;\n\ncontract ProvStorage {\n//Global variables storing latest transaction count.\n  uint txNumber_upload = 0;\n  uint txNumber_download = 0;\n  string latest_txHash_upload = \"\";\n  string latest_txHash_download = \"\";\n\n  string temp_txHash = \"origin\";\n\n// Upload structure\nstruct Upload {\n  //struct for each upload instance\n  uint txNumber;\n  string ipfsHash;\n  string txHash;\n  string author;\n  string filename;\n  uint timestamp;  \n}\n//Download Structure - Download instances also added to chain\nstruct Download {\n  uint txNumber;\n  string ipfsHash;\n  string txHash;\n  string filename;\n  uint timestamp;\n  string downloader;\n  //string ip;  need to pull from dapp\n}\n\n//Mappings\nmapping(uint => Upload) public uploads;\nmapping(string => Upload) public uploads_t;\n//txNumber maps to an Upload instance\nmapping(uint => Download) public downloads;\n//txNumber_downloads maps to Download instance?\n\n//mapping(address => mapping(uint => Upload)) public address_uploads;  //NOT IN USE\n//Uploads can also be mapped to an address (the account of the person who created the upload.)\n\n\n//Conversion functions:\n/*\nfunction bytes32ToString(bytes32 _bytes32) public pure returns (string memory) {\n  //From: https://ethereum.stackexchange.com/questions/2519/how-to-convert-a-bytes32-to-string\n\nfunction uint2str(uint _i) internal pure returns (string memory _uintAsString) {\n  //From: https://stackoverflow.com/questions/47129173/how-to-convert-uint-to-string-in-solidity\n*/\n//DateUtils- https://github.com/SkeletonCodeworks/DateUtils \n\n//------------------------------------------------------------------------\n//--- Upload - Download ---\n\n  function upload(string memory _ipfsHash, string memory _author, string memory _filename, uint _timestamp) public {\n    //associate an upload with address and create the instance\n    txNumber_upload = txNumber_upload +1;\n    //address_uploads[msg.sender][txNumber] = Upload(_ipfsHash, txHash, _author, _filename, _timestamp);\n    uploads[txNumber_upload] = Upload(txNumber_upload, _ipfsHash, \"empty\" , _author, _filename, _timestamp);  \n    //This is new struct mapped with the hash!!!!!! Change this works.\n    uploads_t[temp_txHash] = Upload(txNumber_upload, _ipfsHash, \"empty\", _author, _filename, _timestamp);\n  }\n  \n  function download(string memory _ipfsHash, string memory _filename, uint _time, string memory _downloader) public {\n    txNumber_download = txNumber_download +1;\n    downloads[txNumber_download] = Download(txNumber_upload,_ipfsHash, \"empty\", _filename, _time, _downloader);\n  }\n \n  //function to update txHash with correct value (blockhash) that gets generated after 'upload' is called\n  function updateTxHash_upload(string memory _txHash) public {\n    uploads[txNumber_upload].txHash = _txHash;\n    //set upload instance to have index as transaction hash\n    uploads_t[_txHash] = uploads_t[temp_txHash];\n    uploads_t[_txHash].txHash = _txHash;\n    latest_txHash_upload = _txHash;\n  }\n\n  //---------Upload Get---------\n  function getTxNumber_up_latest() public view returns (uint){\n    //return the latest transaction number\n    return txNumber_upload;\n  }\n\n  function getIPFS_up_latest() public view returns (string memory){\n    //return the ipfsHash taking transaction ID & msg.sender.\n    return uploads[txNumber_upload].ipfsHash;\n    //return getTxHash();\n  }\n\n  function getTxHash_up_latest() public view returns (string memory){\n    //Return transactionHash\n    return uploads[txNumber_upload].txHash;\n  }\n\n  function getAuthor_up_latest() public view returns (string memory){\n    //return author based on txNumber and current account.\n    return uploads[txNumber_upload].author;\n  }\n\n   function getFileName_up_latest() public view returns (string memory){\n    //return author based on txNumber and current account.\n    return uploads[txNumber_upload].filename;\n  }\n  \n   function getTimestamp_up_latest() public view returns (uint){\n    //return author based on txNumber and current account.\n    return uploads[txNumber_upload].timestamp;\n  }\n  //-------------------------------------------------------------\n\n  //----- test getters for transaction hash -----\n\n function getIPFS_t() public view returns (string memory){\n    return uploads_t[latest_txHash_upload].ipfsHash;\n  }\n\n  function getTxHash_t() public view returns (string memory){\n    return uploads_t[latest_txHash_upload].txHash;\n  }\n\n  function getAuthor_t() public view returns (string memory){\n    return uploads_t[latest_txHash_upload].author;\n  }\n\n   function getFileName_t() public view returns (string memory){\n    return uploads_t[latest_txHash_upload].filename;\n  }\n  \n   function getTimestamp_t() public view returns (uint){\n    return uploads_t[latest_txHash_upload].timestamp;\n   }\n\n  //-----\n\n  //function to update txHash with correct value (blockhash) that gets generated after 'upload' is called\n  function updateTxHash_download(string memory _txHash) public {\n    downloads[txNumber_download].txHash = _txHash;\n    latest_txHash_download = _txHash;\n  }\n//----------- Download Get LATEST ------------------\n  function getTxNumber_down_latest() public view returns (uint){\n    //return the latest transaction number\n    return txNumber_download;\n  }\n\n  function getIPFS_down_latest() public view returns (string memory){\n    return downloads[txNumber_download].ipfsHash;\n  }\n\n   function getTxHash_down_latest() public view returns (string memory){\n    return downloads[txNumber_download].txHash;\n  }\n\n  function getFileName_down_latest() public view returns (string memory){\n    return downloads[txNumber_download].filename;\n  }\n\n  function getTimestamp_down_latest() public view returns (uint){\n    return downloads[txNumber_download].timestamp;\n  }\n  function getDownloader_latest() public view returns (string memory){\n    return downloads[txNumber_download].downloader;\n  }\n}\n\n//msg.sender = the address of the acccount currently running contract.",
  "sourcePath": "/Users/farkasmaro/Documents/ipfs-project/contracts/ProvStorage.sol",
  "compiler": {
    "name": "solc",
    "version": "0.5.16+commit.9c3226ce.Emscripten.clang"
  },
  "schemaVersion": "3.4.3",
  "updatedAt": "2022-03-31T14:24:19.370Z",
  "networkType": "ethereum",
  "devdoc": {
    "methods": {}
  },
  "userdoc": {
    "methods": {}
  }
}